:020000040800F2
:100000005821002021020008491C0008211A00087C
:10001000291C000815050008152000080000000034
:10002000000000000000000000000000890100083E
:100030001705000800000000CD0100083D1D000864
:100040003B0200083B0200083B0200083B0200089C
:100050003B0200083B0200083B0200083B0200088C
:100060003B0200083B0200083B0200083B0200087C
:100070003B0200083B0200083B0200083B0200086C
:100080003B0200083B0200083B0200083B0200085C
:10009000092000083B0200083B0200083B02000860
:1000A0003B0200083B0200083B0200083B0200083C
:1000B000B91D00083B0200083B0200083B02000893
:1000C0003B0200083B0200083B0200083B0200081C
:1000D0003B0200083B0200083B0200083B0200080C
:1000E0003B0200083B0200083B02000800F002F857
:1000F00000F03AF80AA090E8000C82448344AAF188
:100100000107DA4501D100F02FF8AFF2090EBAE885
:100110000F0013F0010F18BFFB1A43F0010318473B
:100120006449000084490000103A24BF78C878C1AF
:10013000FAD8520724BF30C830C144BF04680C60ED
:10014000704700000023002400250026103A28BF35
:1001500078C1FBD8520728BF30C148BF0B60704739
:100160001FB51FBD10B510BD00F045F91146FFF7D2
:10017000F7FF02F017F900F063F903B4FFF7F2FF9D
:1001800003BC00F06BF90000224B19680868B0E866
:10019000F00F80F30988BFF36F8F4FF0000080F3FA
:1001A00011884EF00D0E70470000000006480068F0
:1001B000006880F3088862B661B6BFF34F8FBFF363
:1001C0006F8F00DF00BF00BF08ED00E0EFF3098094
:1001D000BFF36F8F0F4B1A6820E9F00F106008B55E
:1001E0004FF0500080F31188BFF34F8FBFF36F8F34
:1001F00003F04EF84FF0000080F31188BDE808408E
:1002000019680868B0E8F00F80F30988BFF36F8FB2
:10021000704700BF54000020EFF3058070470000D6
:100220000948804709480047FEE7FEE7FEE7FEE78A
:10023000FEE7FEE7FEE7FEE7FEE7FEE704480549C6
:10024000054A064B70470000B51D0008ED00000888
:10025000581B002058210020581D0020581D002048
:10026000032A40F2308010F0030C00F0158011F8E2
:10027000013BBCF1020F624498BF11F801CB00F8BA
:10028000013B38BF11F8013BA2F1040298BF00F80E
:1002900001CB38BF00F8013B11F0030300F02580CB
:1002A000083AC0F0088051F8043B083A51F804CBF2
:1002B000A0E80810F5E7121D5CBF51F8043B40F8B8
:1002C000043BAFF30080D20724BF11F8013B11F8C3
:1002D00001CB48BF11F8012B24BF00F8013B00F807
:1002E00001CB48BF00F8012B704710B5203AC0F091
:1002F0000B80B1E81850203AA0E81850B1E8185027
:10030000A0E81850BFF4F5AF5FEA027C24BFB1E863
:100310001850A0E8185044BF18C918C0BDE81040D4
:100320005FEA827C24BF51F8043B40F8043B08BFDD
:100330007047D20728BF31F8023B48BF11F8012BA4
:1003400028BF20F8023B48BF00F8012B704702F09D
:10035000FF0343EA032242EA024200F02CB84FF0C6
:10036000000200B5134694469646203922BFA0E805
:100370000C50A0E80C50B1F12001BFF4F7AF090711
:1003800028BFA0E80C5048BF0CC05DF804EB890002
:1003900028BF40F8042B08BF704748BF20F8022B45
:1003A00011F0804F18BF00F8012B7047704770475D
:1003B00070474FF000020429C0F0128010F0030CC7
:1003C0003FF4CFAFCCF1040CBCF1020F18BF00F822
:1003D000012BA8BF20F8022BA1EB0C01FFF7C1BF36
:1003E0005FEAC17C24BF00F8012B00F8012B48BF55
:1003F00000F8012B7047754600F02CF8AE4605005A
:100400006946534620F00700854618B020B5FFF72F
:1004100015FFBDE820404FF000064FF000074FF0F9
:1004200000084FF0000B21F00701AC46ACE8C00912
:10043000ACE8C009ACE8C009ACE8C0098D4670471B
:1004400010B50446AFF300802046BDE81040FFF72A
:1004500094BE000000487047F41A0020014918209B
:10046000ABBEFEE726000200704700002DE9F04118
:100470004FF07E57224C3FE0B4F9060004F09CF8A0
:10048000054680F00046024600211E48E36801F060
:10049000DDFB804602F0ECFC60706178E07801F0F2
:1004A0001FFFA070A07830B1606994F90210084471
:1004B00060616078E070284603F0B4FE124A134B86
:1004C00003F0C8FC0022124B03F01CFC03F0E8FB15
:1004D0000146404604F09CF802F0D2FC26F00040B1
:1004E000B84206DA0120207001F01EFFA061BDE8CD
:1004F000F081052000F054FB20780028BCD0F6E7FE
:1005000000000020A40100207B14AE47E17A943F54
:100510000000F03FFEE7704790F82020012A07D046
:10052000022A05D0416A41F48021416201207047CE
:10053000006842690A4342610020704710B590F894
:1005400020300268012B07D0022B05D0416A41F40C
:1005500080214162012010BDD2F8000240F001006C
:10056000C2F80002087D00F01F0301209840D2F875
:100570001C328343C2F81C32CB69B3B9D2F80C32B7
:100580008343C2F80C328C894B6864F31F434C6977
:1005900002EBC404C4F840320C890B6864F31F43B7
:1005A0004C6902EBC404C4F84432CB69012B16D168
:1005B000D2F80C320343C2F80C320C884B6864F357
:1005C0001F434C6902EBC404C4F840320C89CB6869
:1005D00064F31F434C6902EBC404C4F844328B69D2
:1005E000002BD2F804320FD053EA0003C2F80432D1
:1005F0000B69002BD2F8143208D00343C2F814322E
:10060000096A012904D008E08343EFE78343F5E753
:10061000D2F81C120143C2F81C12D2F8000220F0DA
:100620000100C2F80002002010BD704770B590F8BC
:100630002040012C05D0022C03D0416A41F48021D6
:1006400028E0046809B32469A40720D04FF4D874C3
:10065000056804EB01142D5915F004059560056833
:100660002D591AD0ED08556005682C5904F0020484
:10067000D4604FF4DA74056804EB01142E5906F0C7
:100680000F06082E0CD308250DE0E468DCE7416A6C
:1006900041F400114162012070BD6D0D1560E3E76A
:1006A0002D5905F00F05156105682D59C5F307256E
:1006B000956105682C59240C54614FF4DC72046870
:1006C00002EB0112A4581C700468A458240A5C7040
:1006D0000468A458240C9C700468A258120EDA70A6
:1006E0004FF4DE72046802EB0112A4581C71046816
:1006F000A458240A5C710468A458240C9C710468F2
:10070000A258120EDA71006829B1016941F0200186
:100710000161002070BDC16841F02001C160F8E7AF
:100720002DE9F05F0546006800244669D0F8049082
:100730008768D0F80CB0D0F810A0D0F81880F10776
:1007400048D0F90714D001218160B80703D52846A5
:1007500000F01FFA0CE0780702D54FF4006407E0C0
:10076000380702D54FF4805402E0284600F010FA12
:10077000F80516D529684FF480708860B80503D550
:10078000284600F008FA0CE0780502D544F400543D
:1007900007E0380502D544F4804402E0284600F022
:1007A000F9F9F80316D529684FF480308860B8034A
:1007B00003D5284600F0F1F90CE0780302D544F4A3
:1007C000004407E0380302D544F4803402E02846B0
:1007D00000F0E2F9300707D55FEACB6004D529685D
:1007E000102044F40074C86070074FF0080707D564
:1007F0005FEA0B7004D52868C760284600F05CF9F2
:10080000B00706D52868C068800702D0284600F0E7
:1008100055F9700607D55FEACA6004D5296810202B
:1008200044F480640861B00607D55FEA0A7004D515
:1008300028680761284600F07BF9F00606D528688D
:100840000069800702D0284600F073F9B00308D58C
:100850005FEAC96005D5296810204860284600F085
:1008600069F9F00307D55FEA097004D52868476085
:10087000284600F093F9300446D55FEA497040D528
:10088000F00504D55FEAC87001D044F00104B0055A
:1008900004D55FEA887001D544F00204700504D5E0
:1008A0005FEA487001D544F00404300529D518F0FA
:1008B000700F26D008F07000402815D006DC1028F4
:1008C00009D020280AD0302816D10AE050280ED0AE
:1008D000602811D10EE044F008040DE044F010044B
:1008E0000AE044F0200407E044F0400404E044F04F
:1008F000800401E044F480742868816921F070016B
:100900008161296804204860002C05D0686A204372
:1009100068622846FFF789FEBDE8F09F70B50400C5
:1009200003D094F8200010B104E0012070BD2046EF
:1009300000F082F82068016841F00101016000F0D8
:100940003BFA0546052604E000F036FA401B0A286B
:1009500011D820684068C007F6D02068016821F0EF
:100960000201016000F028FA05460BE000F024FACD
:10097000401B0A2806D9606A40F40030606284F89F
:100980002060D2E7206840688007EFD4207E0128ED
:10099000206801683DD021F080010160607E01285F
:1009A0002068016838D021F040010160A07E012854
:1009B0002068016833D021F020010160E07E012829
:1009C000206801682ED041F010010160207F0128CD
:1009D0002068016829D021F008010160607F0128AA
:1009E0002068016824D021F004010160D4E90201EB
:1009F0000843D4E90412114308436168491E0843BF
:100A00002168C86100206062012084F82000002075
:100A100070BD41F08001C0E741F04001C5E741F001
:100A20002001CAE721F01001CFE741F00801D4E727
:100A300041F00401D9E7000010B586B00021009113
:100A40000191029103910068184988422CD11848FD
:100A5000C16941F00071C161C16901F00071049187
:100A6000816941F0040181618069124C00F0040049
:100A700004904FF4006000900120029069462046E7
:100A800000F0A0F8A0140090022001900320039031
:100A90006946204600F096F800220521142000F057
:100AA00029FA142000F018FA06B010BD00640040C6
:100AB00000100240000801407047000010B51A4BBA
:100AC0001A4A0021FFF7B2FD08B172B6FEE71748D7
:100AD0004FF0FF3302681448A2F58062A0F11C01B8
:100AE000463A05D0012A0CD0022A17D072B6FEE78A
:100AF0004288407852BA12B200B101235343CB80EE
:100B000010BD0278002AB0F8012052BA00D152423A
:100B10000A62C07800B101234B6210BD00884A6AA6
:100B200040BA5043486210BD1C000020BC010020A8
:100B3000704770477047000070B5044690F8200079
:100B4000012804D0606A40F40020606218E00220AE
:100B500084F820002068016821F00101016000F0A4
:100B60002BF905460EE000BF00F026F9401B0A28CD
:100B700008D9606A40F400306062052084F82000E3
:100B8000012070BD20684068C007EDD1606270BD73
:100B90007047704770477047704770477047000054
:100BA00070B5044600F008F90546601C02D0044800
:100BB0000078044400F000F9401BA042FAD370BD55
:100BC000440000202DE9F84FDFF8B8910024A9F186
:100BD000040B23460F2709F1040AABF1040EC9E008
:100BE0000125A5402A40AA427DD1674ED1F804C014
:100BF000ACEB0608B44532D014DCBCF1030F3AD09C
:100C000009DCBCF1000F2AD0BCF1010F1CD0BCF1F3
:100C1000020F31D11DE0BCF1110F17D0BCF1120F42
:100C20002AD119E0B8F5881F19D006DCB8F5803F45
:100C300015D0B8F5801F1FD111E0B8F5001F0ED0F8
:100C4000B8F5041F18D10AE0CB6815E0CB681B1D6E
:100C500012E0CB6808330FE0CB680C330CE08B68F4
:100C60002BB1012B4FF0080303D0456104E00423AE
:100C700002E0056100E00023FF2A01D8064601E0FA
:100C800000F104064FEA840501D9A5F12005D6F844
:100C9000008007FA05FC28EA0C0803FA05F548EA83
:100CA0000508C6F800804D68ED0062D5374DAE6985
:100CB00046F00106AE61AD6924F0030605F00105BA
:100CC0000095334D06EB050CDCF80850A607360FEF
:100CD00007FA06F825EA0805DFF8B880404503D191
:100CE0004FF0000817E044E0DFF8AC80404502D147
:100CF0004FF001080FE0DFF8A480404502D14FF02B
:100D0000020808E0DFF89880404502D14FF0030860
:100D100001E04FF0040808FA06F848EA0508CCF8A4
:100D200008804D68D9F80060ED024D4601D51643A4
:100D300000E096432E604D68DAF80060AD0255463B
:100D400001D5164300E096432E604D68DBF8006045
:100D5000AD035D4601D5164300E096432E604D6815
:100D6000DEF80060ED03754601D5164300E09643BA
:100D70002E60641C0D682A46E5407FF431AFBDE863
:100D8000F88F00000804014000001110001002401C
:100D90000000014000080140000C0140001001402B
:100DA000001401408068084000D0012070470AB15B
:100DB000016170470904FBE7014880687047000043
:100DC0004400002002488168027811448160704725
:100DD00044000020074810B5016841F0100101608F
:100DE000032000F0A7F80F2000F006F800F050F8FC
:100DF000002010BD0020024030B50546204887B0D5
:100E0000C16941F00101C161C06906A900F001009A
:100E1000009001A800F036F90498B8B100F052F93A
:100E2000400018494FF08042B0FBF1F11648491ECE
:100E30000260416040F2E7320021C0E90321816095
:100E4000816100F065FB040003D015E000F03AF981
:100E5000E7E70D4800F09EFB04000DD11C2000F0D8
:100E60003BF8102D07D2002229461C2000F042F842
:100E70000648056000E0012407B0204630BD0000B0
:100E80000010024040420F00D8010020480000201E
:100E90000F4808B5816941F001018161816901F064
:100EA00001010091C16941F08051C161C069002216
:100EB00000F0805000900F21901E00F01BF80548B4
:100EC000416821F0E06141F00071416008BD00001F
:100ED0000010024000000140002809DB00F01F0262
:100EE000012191404009800000F1E020C0F800118C
:100EF00070470000F0B40E4B1B680C46C3F302238E
:100F0000C3F10705042D00D90425191D072901D2B5
:100F1000002300E0DB1E012606FA05F1491E2140F0
:100F200099409E40761E16403143F0BC01F073B8E4
:100F30000CED00E0064900F0070208684FF6FF03D9
:100F4000184040EA0220034A10430860704700003E
:100F50000CED00E00000FA052DE9F0470F46050012
:100F600061D0434E306800F00700B84209D23068C3
:100F700020F0070038433060306800F00700B842C6
:100F800051D128683B4C810712D5400703D56068D2
:100F900040F4E06060602878000703D5606840F4A2
:100FA000605060606068A96820F0F00008436060ED
:100FB0002878C00728D06868012810D02168022846
:100FC00010D0890700292EDA616821F0030101435E
:100FD0006160FFF7F1FE804641F288390DE021683B
:100FE0008903EFE78901EDE7FFF7E6FEA0EB0801D3
:100FF000494502D90320BDE8F0876068696800F0C0
:101000000C00B0EB810FEFD1306800F00700B84260
:101010000BD9306820F0070038433060306800F0AA
:101020000700B84201D00120E5E72878400705D540
:101030006068E96820F4E060084360602878000791
:1010400006D56068296920F4605040EAC1006060FC
:1010500000F048F86168084AC1F30311515CC840C8
:101060000649086006480068FFF7C6FE0020C2E790
:1010700000200240001002402E4A000850000020CC
:10108000480000200F2202600C4A536803F003035B
:101090004360536803F0F0038360536803F4E06334
:1010A000C36052684FF4E06303EAD202026104486D
:1010B000006800F007000860704700000010024060
:1010C000002002400448054900684968044AC1F309
:1010D0000221515CC84070475000002000100240BF
:1010E0003E4A00080E4A51680E4801F00C03042BDA
:1010F00011D0082B0FD10C48C1F38343C903C05C46
:101100000AD55168084AC1F34041921E515C054A14
:101110005043B0FBF1F0704704494843704700006A
:101120000010024000127A001E4A000800093D002B
:101130002DE9F84F040070D02078C04DC00749D089
:101140006868C0F38100012807D06868C0F3810097
:10115000022809D16868C00306D52868800339D5FC
:1011600060680028E7D035E06068B0F5803F0BD0BC
:1011700010B1B0F5A02F11D0286820F4803028607D
:10118000286820F4802002E0286840F4803028603D
:10119000606890B1FFF710FE06460AE0286840F448
:1011A00080202860F0E700BFFFF706FE801B642860
:1011B00073D828688003F7D50CE0FFF7FDFD0646DD
:1011C00005E000BFFFF7F8FD801B6428F0D8286811
:1011D0008003F7D420789A4E80074FF001094FF032
:1011E000000839D5686810F00C0F07D06868C0F3A4
:1011F0008100022809D16868C00306D428688007E6
:1012000014D52069012808D110E02069B0B1C6F8D2
:101210000090FFF7D1FD074605E00AE1FFF7CCFD9E
:10122000C01B0228C4D828688007F7D528686169E0
:1012300020F0F80040EAC10028600DE0C6F8008008
:10124000FFF7BAFD074604E0FFF7B6FDC01B022812
:1012500023D828688007F7D4207800072CD5794850
:10126000A169D9B1C0F80090FFF7A6FD074604E0D8
:10127000FFF7A2FDC01B02280FD8686A8007F7D5C8
:1012800071484FF4FA510068B0FBF1F0009000BFD4
:101290000098411E0091FAD20EE080E0C0F8008074
:1012A000FFF78AFD074604E0FFF786FDC01B022812
:1012B00075D8686A8007F7D42078400760D5E86958
:1012C0000027C00008D4E86940F08050E861E86970
:1012D000012700F0805000905C480168C90513D4D4
:1012E0000168834641F480710160FFF765FD824625
:1012F00006E000BFFFF760FDA0EB0A0064284ED8AF
:10130000DBF80000C005F5D5E06801280AD008B177
:10131000052813D0286A20F001002862286A20F0EE
:10132000040002E0286A40F001002862E06841F20F
:10133000883B98B1FFF740FD82460BE0286A40F0F9
:1013400004002862EEE700BFFFF736FDA0EB0A01BC
:1013500059455AD8286A8007F6D50CE0FFF72CFDCE
:10136000824605E0FFF728FDA0EB0A0159454CD85D
:10137000286A8007F6D41FB1E86920F08050E86140
:10138000E06988B36968C1F38101022944D0022869
:10139000C6F8608004D0FFF70FFD044638E034E063
:1013A000FFF70AFD074604E0FFF706FDC01B022811
:1013B0002BD828688001F7D4206AB0F5803F05D18A
:1013C0006868A16820F4003008436860D4E9080127
:1013D0000843696821F4741108436860C6F8609096
:1013E000FFF7EAFC044606E025E000BFFFF7E4FC57
:1013F000001B022809D828688001F7D51BE000BF30
:10140000FFF7DAFC001B022802D90320BDE8F88FA1
:1014100028688001F4D40EE00128F7D06868226AB9
:1014200000F48031914204D1616A00F47010884266
:1014300001D00120EAE70020E8E7000000100240A8
:1014400000004242800442425000002000700040F0
:101450007047704710B590F83C20012A22D0012235
:1014600080F83C20CA688C6822F4407222434C68A1
:1014700022F4806222430C6822F4006222430C6949
:1014800022F4805222434C6922F400522243C9695B
:10149000002322F480420A4301684A6480F83C3009
:1014A000002010BD022010BD70B590F83C20012A2C
:1014B00026D0012480F83C40022280F83D200368B9
:1014C0005A689D6822F070060A6832435A600D4BD4
:1014D00002689A4208D0B2F1804F05D00A4B9A4276
:1014E00002D00A4B9A4204D1496825F0800319437F
:1014F000916080F83D40002180F83C10084670BDA6
:10150000022070BD002C0140000400400008004093
:1015100010B5040003D094F83D0010B107E001209D
:1015200010BD002084F83C00204600F01FF8022087
:1015300084F83D00211D206800F044FC012084F85F
:10154000460084F83E0084F83F0084F8400084F8A8
:10155000410084F8420084F8430084F8440084F891
:10156000450084F83D00002010BD000008B500686B
:101570000649884208D10648816941F400618161C9
:10158000806900F40060009008BD0000002C01405C
:101590000010024090F83D10012901D00120704751
:1015A000022180F83D100168CA6842F00102CA6059
:1015B00000680B49884208D0B0F1804F05D0094936
:1015C000884202D00849884204D1816801F00701AD
:1015D000062903D0016841F0010101600020704735
:1015E000002C0140000400400008004070B5044693
:1015F00090F83C000025012817D0012684F83C60B3
:10160000022084F83D002068826822F0770222F4EC
:101610007F4282600868502838D00DDC20284FD0E7
:1016200005DC90B3102811D14AE0022070BD3028AB
:1016300046D040280AD13BE060282FD070280DD03A
:10164000B0F5805F03D0B0F5005F12D0012584F8BB
:101650003D60002084F83C00284670BDCB68D1E98D
:101660000121206800F0F7FB2068816841F07701D4
:1016700009E0CB68D1E90121206800F0ECFB20688B
:10168000816841F480418160E1E719E0CA684968F6
:10169000206800F095FC5021206806E0CA6849687F
:1016A000206800F09EFC6021206800F0DEFBCEE7A1
:1016B000CA684968206800F083FC40212068F4E78C
:1016C000226801461046F0E770472DE9F0410446D4
:1016D0000068C66805694FF00007A90713D5B10770
:1016E00011D5F91E016101202077206880698007EB
:1016F000204602D0FFF7E8FF04E000F0A5F82046FE
:1017000000F037F92777680716D5700714D52168D8
:101710006FF004000861022020772068806910F4CF
:10172000407F204602D0FFF7CFFF04E000F08CF8A6
:10173000204600F01EF92777280715D5300713D566
:1017400021686FF008000861042020772068C069D4
:101750008007204602D0FFF7B7FF04E000F074F8DE
:10176000204600F006F92777E80616D5F00614D5CE
:1017700021686FF010000861082020772068C06998
:1017800010F4407F204602D0FFF79EFF04E000F0F7
:101790005BF8204600F0EDF82777E80708D0F0075F
:1017A00006D021686FF001000861204600F030F992
:1017B000280608D5300606D521686FF0800008613C
:1017C0002046FFF745FE680608D5700606D5216855
:1017D0006FF040000861204600F021F9A8060AD504
:1017E000B00608D521686FF0200008612046BDE8EA
:1017F000F041FFF72EBEBDE8F081000000B585B0D6
:101800000021009101910291039100680B498842E7
:1018100012D10B48816941F00401816180696946F8
:1018200000F0040004904FF48070009002200190BA
:1018300003900448FFF7C6F905B000BD002C014035
:101840000010024000080140704770B5044690F84F
:101850003C0000260D4601280FD0012084F83C00F2
:101860006AB1042A1DD0082A2FD00C2A3FD00126A5
:10187000002084F83C00304670BD022070BD206816
:1018800000F0FCFA2068816941F00801816120685C
:10189000816921F004018161206881692A6911430D
:1018A00011E0206800F012FB2068816941F40061BA
:1018B00081612068816921F480618161206881698A
:1018C0002A6941EA02218161D2E7206800F02AFBFF
:1018D0002068C16941F00801C1612068C16921F037
:1018E0000401C1612068C1692A69114311E02068BF
:1018F00000F044FB2068C16941F40061C1612068C7
:10190000C16921F48061C1612068C1692A6941EA25
:101910000221C161ACE710B5040003D094F83D008A
:1019200010B107E0012010BD002084F83C002046E3
:1019300000F01EF8022084F83D00211D206800F010
:1019400041FA012084F8460084F83E0084F83F0004
:1019500084F8400084F8410084F8420084F8430091
:1019600084F8440084F8450084F83D00002010BD50
:101970007047704710B50446022249B104290ED0C1
:10198000082913D094F84100012816D0012010BD79
:1019900094F83E000128F9D184F83E200FE094F835
:1019A0003F000128F2D184F83F2008E094F840007D
:1019B0000128EBD184F8402001E084F84120012285
:1019C000206800F03BFA0F492068884203D1426C3E
:1019D00042F4004242642068884208D0B0F1804F4F
:1019E00005D00949884202D00849884204D181685B
:1019F00001F00701062903D0016841F001010160EF
:101A0000002010BD002C01400004004000080040F0
:101A10000068B0F1804F01D1FFF7D4B9704770472B
:101A2000FEE7000010B519488AB017490160092186
:101A30000024C0E901144FF4A021C0E9034144612E
:101A4000047644768476C47604774477FEF766FF9E
:101A500008B172B6FEE7012001940294CDE9064078
:101A600003940594049408900094694607480994E7
:101A7000FEF764FD002211461420FFF73BFA142004
:101A8000FFF72AFA0AB010BD00640040EC00002005
:101A90002DE9F04385B000242C4800940194029471
:101AA0000394816941F010018161816901F01001A5
:101AB0000491816941F020018161816901F0200177
:101AC0000491816941F004018161816901F004019F
:101AD0000491816941F0080181618069DFF87080BB
:101AE00000F008004FF400550490002229464046BB
:101AF000FFF75DF9DFF85C902F1100223946484668
:101B0000FFF755F90095022601250396CDE901540A
:101B100069464046FFF756F8C0208DE83100694617
:101B20004846FFF74FF8CDE9005469460A48029548
:101B3000FFF748F800970396CDE9015469464846F7
:101B4000FFF740F805B0BDE8F08300000010024048
:101B50000010014000080140000C014010B596B093
:101B600000240F9410941194129413941C2108A82B
:101B70001494FEF7F4FB20216846FEF7F0FB294899
:101B80002749016041F61F41C0E9011440F2E731E5
:101B9000C0E9031444618461FFF7BAFC08B172B66E
:101BA000FEE74FF480500F900FA91E48FFF71EFD6F
:101BB00008B172B6FEE71B48FFF7ADFE08B172B67A
:101BC000FEE7139413A917481494FFF76DFC08B1AE
:101BD00072B6FEE76020CDE908040A940B940C94D9
:101BE0000D94002208A90F480E94FFF72EFE08B1AD
:101BF00072B6FEE700944FF40050CDE90440029421
:101C000001940394694607480794FFF723FC08B141
:101C100072B6FEE70348FFF7F1FD16B010BD0000F5
:101C2000002C014014010020FEE70000054C207844
:101C300028B100F06BFA012000F034FCF7E7FEF762
:101C400015FCF8E700000020FEE700002DE9F04158
:101C500016460A4604461F463146104602F0A4FDC9
:101C60000546394602F0D4FC616902F007FB1649CB
:101C70006061884202DC1549884200D961613146C1
:101C8000E06802F091FD394602F0B4FB1049E660CD
:101C900000F0FEFA0F4900F00FFB01462561A06835
:101CA00002F0B6FC07466169606802F0B1FC0646C6
:101CB0002946206802F0ACFC314602F0DFFA3946D2
:101CC000BDE8F04102F0DABA0000FA430000FAC3BE
:101CD0000000C8C20000C842002141610161C1602A
:101CE000704700000C4C00BF01F0C2F860706178D2
:101CF000E07800F0F5FAA070A07830B1606994F94E
:101D00000210084460616078E07000F00DFB206113
:101D1000012000F0C7FBE7E700000020044C00BFF3
:101D2000B4F9060000F088F9012000F0BBFBF7E7EA
:101D300000000020012000F0B5FBFBE710B54FF0DC
:101D4000E020006901F0F6FD012803D0BDE8104055
:101D500001F024BB10BD30B58FB028216846FEF7D6
:101D6000FEFA14210AA8FEF7FAFA01210804CDE9C7
:101D700000100024029402250491CDE907504FF48D
:101D8000E01009906846FFF7D3F908B172B6FEE794
:101D90000F20CDE90A054FF48060CDE90C40022107
:101DA0000AA80E94FFF7D8F8002801D072B6FEE713
:101DB0000FB030BD704700000148FFF786BC00003F
:101DC000D8010020F0B50268194B1A4C1A4D4FF09B
:101DD0008047984205D0B84203D0A04201D0A84223
:101DE00003D122F070064A683243984205D0B842C7
:101DF00003D0A04201D0A84203D122F44074CA68A3
:101E000022434C6922F08002224302608A68C26247
:101E10000A688262984201D1096901630121416126
:101E20000169C90703D0016921F001010161F0BD19
:101E3000002C0140000400400008004010B501F0F3
:101E40001F030121046A99408C430462016A9A408D
:101E50001143016210BD10B5846842EA032224F4E4
:101E60007F440A432243826010BD826822F07002E0
:101E70000A4342F0070181607047000030B5036AF1
:101E8000026A22F0010202624268846924F073054A
:101E90000C682C4323F002058B682B430A4DA842A3
:101EA0000BD123F00805CB6822F440722B434D6917
:101EB00023F0040315438A692A4342608461496818
:101EC0004163036230BD0000002C014030B5026A5E
:101ED000036A23F010030362436884690D6824F4E5
:101EE000E64444EA05248D6822F0200242EA051205
:101EF0000B4DA8420ED1CD6822F0800242EA0512B5
:101F00004D6923F4406343EA85038D6922F0400262
:101F100043EA85034360846149688163026230BD9E
:101F2000002C014030B5036A026A22F4807202621A
:101F30004268C46923F4007324F073050C682C43D1
:101F40008D6843EA05230C4DA8420ED1CD6823F4D9
:101F5000006343EA05234D6922F4405242EA051228
:101F60008D6923F4806342EA05124260C4614968C6
:101F7000C163036230BD0000002C014030B5046A2B
:101F8000026A22F4805202624268C3690D6823F437
:101F9000E64343EA05238D6824F4005444EA0534FB
:101FA000064DA84204D14D6922F4804242EA8512CE
:101FB0004260C36149680164046230BD002C014085
:101FC00010B5036A046A24F001040462846924F0F1
:101FD000F00444EA021423F00A020A438461026214
:101FE00010BD10B5036A046A24F010040462846909
:101FF00023F0A00324F4704444EA023243EA0111BE
:102000008261016210BD00000148FEF789BB00003B
:10201000EC000020FEE70907090E002804DB00F1B0
:10202000E02080F80014704700F00F0000F1E0207D
:1020300080F8141D704700002DE9F0412F4DB5F9CF
:10204000060002F0B9FA0746FEF7B6FE2C4C06462B
:102050000120217831B1012910D003291ED0207030
:10206000BDE8F081274A27F000419142F8DD207059
:102070000020666000F004FF6761F1E76068301AD5
:10208000B0F5FA7FECD3207C0328E9D2032121703C
:10209000401CA66020746869E060E1E727F0004119
:1020A000B1F1804F14DA002121702174287000F002
:1020B0003BF9A8611248A030FFF70EFE1048B83077
:1020C000FFF70AFEBDE8F0410D488830FFF704BE77
:1020D000A068301A3228C3D9E06869698842BFD144
:1020E000384602F09FF84FF06632074B01F0B2FE1F
:1020F00001F0D6FD00F0C4FEAE60B1E700000020A4
:10210000D400002000000C426666E6BF2DE9F84FBF
:10211000584CB4F9060002F04FFADFF85C810090E9
:1021200098F800700FB1032F7ED1606A02F044FA74
:10213000524E314602F06CFA0546206A404202F0E7
:102140003BFA314602F064FA06464FF0FF39032F9E
:102150000AD14F464946284602F0CDFB054639468E
:10216000304602F0C8FB0646424A454825F0004189
:10217000DFF810B1D7684FF0663A814203DC26F0F1
:102180000041814238DD4946304602F0B4FB294621
:1021900002F074F83C4900F07BF84FF07E5100F0FB
:1021A0008BF8014634483B46B830226BFFF74EFDB2
:1021B00006463148E3680021A030009AFFF746FD4B
:1021C000054698F80000032809D1284602F02AF8AD
:1021D00052465B4601F03EFE01F062FD05462B498A
:1021E000304602F015FA294602F048F8054600F09C
:1021F000AFF82063284634E02169A06902F0D4FAE0
:1022000005461D483B460021A030009AFFF71EFD01
:10221000814619482A4600218830E368FFF716FDF9
:10222000054698F8000000E01DE0032815D1484657
:1022300001F0F8FF564652465F465B4601F00AFE43
:1022400001F02EFD8146284601F0ECFF32463B4668
:1022500001F000FE01F024FD05462946484602F043
:102260000DF800F00DFEB4F90600BDE8F84FFFF7D9
:10227000E3BE000000000020D40000200AD7233C69
:10228000CDCCCC3D6666E63F000080BF00007A44BE
:1022900070B50C46054602F082F800F07040B0F1CF
:1022A000005F07D024F00040C0F1FF40C00F04BF22
:1022B000204670BD284670BD70B50C46054602F03C
:1022C0006EF800F07040B0F1004F07D024F00040ED
:1022D000C0F1FF40C00F04BF204670BD284670BD4E
:1022E00030B587B00D46044618220E496846FDF702
:1022F000FCFF00224FEA0D0313F81200A0420CD19C
:1023000003EB42004078A84207D1062A02DA0120F6
:1023100007B030BD4FF0FF30FAE7521C0C2AEBDB60
:102320000020F5E7044A0008064810B5406902F0AD
:1023300043F9054902F05EF8BDE81040034902F098
:1023400067B9000000000020000034420000B443E0
:102350002DE9F041FEF730FD0F4C05466069A16A9A
:10236000471AE16A4FF00000691A10D0084602F0DF
:102370003BF90146094802F03DF80646384602F0AE
:102380001BF9074902F036F8314602F041F961695C
:10239000C4E90A15BDE8F0810000002000007A447D
:1023A00000003442FEF716FDFFF7D5FCFFF770FB87
:1023B000FFF738FBFFF7D2FB00212A48FFF7DAFAD4
:1023C0002848294948302A4B01600021416081603A
:1023D0001830264AC0E90023264B83601830264B6C
:1023E0000360264B4360264B836018300260254A09
:1023F0004260254A416182600161B838FEF79CFB6A
:1024000008B172B6FEE7174802212838FEF784F8B3
:10241000002205211420FEF76DFD1420FEF75CFD5F
:1024200000F04EF8194A0021194800F077F8194CCD
:10243000164A002160632432174800F06FF8134AEF
:10244000A06348320021154800F068F80F4AE063A5
:102450006C320021124800F061F8206400F042F86C
:10246000FEE70000140100200AD7A33D9A99193F06
:10247000CDCCCC3DEC51B83D9A99193E0AD7233CBE
:10248000CDCC4C3D0AD7A33C9A99993F744900089A
:10249000351D0008000000201D1D00082D1C00082F
:1024A000E51C000810B5EFF3058111B16FF00504CC
:1024B00003E0002408B100F037FE204610BD000004
:1024C000EFF3058010B16FF0050070470448016814
:1024D00011B14FF0FF3070470121016000207047BB
:1024E000A400002010B5EFF3058010B16FF00500D7
:1024F00010BD08480168012902D04FF0FF3010BD1F
:10250000054A002182F8141D0221016000F074FECA
:10251000002010BDA40000200BE000E02DE9FF41E9
:102520004FEA01034FF00005EFF30581039549BB26
:1025300040B38027182100244AB3166806B13446F8
:1025400096691EB13146761E382E02D21679F607EC
:1025500003D0002004B0BDE8F081566906B1B70889
:10256000D2F808C0BCF1000F0DD0D5685C2D18D38F
:1025700012693AB136B18DE806103A46214601F0AB
:10258000AEF903900DE0D6685EB912694AB903AAA4
:10259000CDE90012BAB2214601F074F9012800D049
:1025A00003950398D6E700002DE9F041134C0F4640
:1025B0000546E6682068001D00F082FC681C07D113
:1025C00037B12168BDE8F0410D48091D00F0C8BCD5
:1025D00020683544B5424560216805D2A06BBDE84E
:1025E000F041091D00F0A4BC606B091D00F0A0FCC7
:1025F000A06A854200D2A562BDE8F08154000020A7
:10260000100700202DE9F041054600F0B5FC2D4CE7
:10261000A068401CA06020682B4F10B1606930B3E7
:102620002BE02560A068012827D1002606EB860054
:1026300007EB800000F06EFC761C382EF6D32348A2
:1026400000F068FC2148143000F064FC1F4828307A
:1026500000F060FC1D483C3000F05CFC1B48503032
:1026600000F058FC194860631430A06305E020684E
:10267000E96AC06A884200D82560606A401C6062CE
:102680006864E86A2169884200D9206100EB800013
:1026900007EB8000291D00F063FC00F08DFC6069F1
:1026A00000280CD02068E96AC06A884207D208492D
:1026B0004FF080500860BFF34F8FBFF36F8FBDE8BE
:1026C000F08100005400002060020020C0060020BD
:1026D00004ED00E038B500F04FFC104C2068C8B99C
:1026E0000F4800F017FC0E48143000F013FC0C48A3
:1026F000E060143020610A4B0020F03B009003F1B1
:10270000500210210A2000F05FFE206010B105A1E8
:1027100000F0D4FCBDE8384000F04EBC9000002032
:1027200014080020546D72510000000030B4026C97
:102730000B46002A0BD0C1681144C1608468A142D5
:1027400001D30168C16030BC1846FDF789BD30BCBB
:1027500070472DE9F041856B174604460026026C50
:1027600082B1C7B1E068FDF77BFDE168206C091A12
:10277000E1602268914202D2A168081AE060022F4B
:1027800016D017E02068A8B9A06801F04BF90646FA
:102790000020A0600EE06068FDF762FD216C6068BB
:1027A00008446060A168884204D32068606001E04A
:1027B00005B16D1E6D1CA5633046BDE8F08110B5F6
:1027C000044690F8590058B101280CD002280FD0C7
:1027D000502080F31188BFF34F8FBFF36F8FFEE758
:1027E000206B00F0FDFB2046BDE8104000F0F8BB78
:1027F00010BD000010484FF44061420706D0C01DD4
:102800000D4920F00700411AC1F540610B4A002331
:102810000144C2E900030839183A21F007011160A8
:102820004B600B600B1AC0E9001393604FF000403F
:102830005360506170470000F40E0020C00000207B
:10284000144E154CA6F29C474FF08058DFF84C9080
:1028500012E000BF00F090FBF068C568281D00F092
:102860002FFBA068401EA0606068401E606000F002
:10287000A3FB2846FFF7A3FF60680028EAD1386869
:102880000128F9D9C9F80080BFF34F8FBFF36F8FCC
:10289000F2E70000FC0600205400002004ED00E0F8
:1028A00070B51D46049C51B1C4F80020C4E90F0165
:1028B0000121204600F0BCFD84F84C5070BD24601E
:1028C000F4E700002DE9F05F8846DDE90B9415463A
:1028D000834691009A460A9EA522206BFDF737FD9C
:1028E0006FF00301206B01EB8501084420F007071E
:1028F000780707D0502080F31188BFF34F8FBFF3C4
:102900006F8FFEE70025B8F1000F0FD05FF00000D9
:10291000221818F8001082F8341018F8001011B1BD
:10292000401C1028F4D384F8435001E084F834505C
:10293000382E00D33726E662C4E91365201D00F067
:10294000F4FA04F1180000F0F0FA2461C6F138003E
:102950006462A061656584F858505246594638460D
:1029600000F05AFA2060B9F1000F01D0C9F8004018
:10297000BDE8F09F30B5114900E011460A68824277
:10298000FBD34B685C18844203D14068184448600C
:10299000084643681C18944209D1084C183C246826
:1029A000A24209D052681A4442600A681268026062
:1029B000814200D0086030BD0460F9E7C00000200B
:1029C00070B5002441600B4D0061914206D8D11AC8
:1029D0008269914206D2011D286907E09A4203D21A
:1029E000994201D3012403E0011DE86800F0A0FA38
:1029F000204670BD9000002010B5044600F0BCFADF
:102A0000A06B28B15FF0000400F0D6FA204610BD9C
:102A10000124F9E730B589B03C4D6EE004980028F8
:102A200006DADDE90601059A90470498002864DB80
:102A3000069C606910B1201D00F042FA03A800F066
:102A4000D7F8024604980A2857D2DFE800F00505B7
:102A5000052D334A05052D3394F8280040F0010078
:102A600084F828000599A069059B01442046FFF7DA
:102A7000A7FF68B3216A2046884794F828004007DA
:102A80003BD5002000900598A16900234218194603
:102A9000204601F0D1F8D8B9502080F31188BFF357
:102AA0004F8FBFF36F8FFEE714F8280F20F001005F
:102AB000207022E094F8280040F0010084F82800FB
:102AC0000598A06128B1811813462046FFF778FFCA
:102AD00013E0502080F31188BFF34F8FBFF36F8F47
:102AE000FEE794F82800810703D4204600F078FA26
:102AF00003E020F0010084F82800002204A92868DF
:102B000000F0EAFD002889D109B030BD9000002016
:102B10002DE9FC410F46054600F0B2FB01A800F08C
:102B200067F80446019818B100F0F4FFBDE8FC8195
:102B3000254EAFB130690068D0B30027291B3A4653
:102B4000306800F0CFFA00F0E5FF0028EED11F4911
:102B50004FF080500860BFF34F8FBFF36F8FE5E7F2
:102B6000A542EBD800F0D6FFF0682746C068C468DD
:102B7000201D00F0A5F994F82800410719D5A06997
:102B80002B4641193A462046FFF71AFFA8B100200C
:102B90000346014600902A46204601F04DF860B9F0
:102BA000502080F31188BFF34F8FBFF36F8FFEE784
:102BB00007E020F0010084F82800216A20468847B9
:102BC000B4E70127BAE700009000002004ED00E020
:102BD0000648416B096829B1416BC968C9684968F1
:102BE000816270474FF0FF31FAE700005400002087
:102BF00070B5054600F0ACFE064E0446B06884424F
:102C000003D200F009F8012000E0002028602046EF
:102C1000B46070BD90000020F8B5194D20E0C06888
:102C2000C4680668201D00F04BF9216A20468847D9
:102C300094F82800400713D5A0693044B04206D963
:102C400024616060211DE86800F072F908E000204E
:102C50000346014600903246204600F0EDFF38B1B1
:102C6000E86801680029DAD12969C5E90310F8BDCF
:102C7000502080F31188BFF34F8FBFF36F8FFEE7B3
:102C80009000002008484068401C4FF0500080F33E
:102C9000118804D0BFF34F8FBFF36F8FFEE7BFF3F0
:102CA0004F8FBFF36F8FFEE7C8000020074CE0682E
:102CB000016841B1C0680021D0F80000FFF728FF8B
:102CC000FFF7A8FEF3E701210020F7E790000020BE
:102CD0002DE9F041044600F04FF994F9455004F114
:102CE000240609E0606A48B1304600F0DBFE08B116
:102CF00000F048FA6D1E6DB2002DF3DC4FF0FF3688
:102D000084F8456000F058F900F036F994F9445021
:102D100004F1100709E0206948B1384600F0C2FE0E
:102D200008B100F02FFA6D1E6DB2002DF3DC84F8AF
:102D30004460BDE8F04100F03FB900002DE9F041EA
:102D40000546002700F09CFA324E306808B9FFF7BC
:102D500051FD706905424ED1C5B3083568070ED0E4
:102D600005F00700C0F108000544680707D05020AF
:102D700080F31188BFF34F8FBFF36F8FFEE72DB342
:102D80007068854237D82348183001460C6801E046
:102D900020460C466168A94202D221680029F7D179
:102DA00031688C4227D00768216801606068083765
:102DB000411B10290FD96019420708D0502080F319
:102DC0001188BFF34F8FBFF36F8FFEE713E04160B1
:102DD0006560FFF7CFFD61687068401A7060B26887
:102DE000904200D2B060706901430020C4E9000144
:102DF000F068401CF06000F08DFE780707D050208E
:102E000080F31188BFF34F8FBFF36F8FFEE7384613
:102E1000BDE8F081A800002010B5031F4FF08074BA
:102E20001C601B1F21F001011960191F024B0B6070
:102E3000143940380A6010BD852C000870B50A4D61
:102E400040212846FDF7AEFF044680212846FDF7C5
:102E5000A9FF054601210548FDF7A4FFA10041EAAD
:102E600045010143C8B270BD00080140000C01409B
:102E700010B5FFF7E3FF0149087110BD0000002005
:102E800070B5044620F000400A49FFF715FA01F03A
:102E900073FB85B214F1FF4F01D2012200E0002242
:102EA0004FF400710448FDF782FF04480068456351
:102EB00070BD000000007A440008014014010020A9
:102EC000D0E9013201699A60D0E901235A604A6869
:102ED000824201D182684A60002202610868401E75
:102EE0000860086870470000034B036003F15C0052
:102EF00008608020106070473C080020044B03608D
:102F000003F15C0008604FF48070106070470000AF
:102F1000980A002000F108014FF0FF32C0E90112C9
:102F2000C1600161002101607047002101617047AB
:102F300030B50B685A1C02D000F1080202E00269A9
:102F400004E02246546825689D42FAD953684B60D4
:102F500099608A60516008610168491C016030BD58
:102F600042684A6093688B60936859609160086119
:102F70000168491C01607047502080F31188BFF33D
:102F80004F8FBFF36F8F0A494868401C4860012883
:102F90000CD10848006810F0FF0F07D0502080F3D4
:102FA0001188BFF34F8FBFF36F8FFEE770470000AC
:102FB000C800002004ED00E00849486828B1401E20
:102FC000486001D180F311887047502080F3118848
:102FD000BFF34F8FBFF36F8FFEE70000C8000020E4
:102FE00070B500282AD0164DA0F108046068696900
:102FF000084207D1502080F31188BFF34F8FBFF3F1
:103000006F8FFEE722683AB1502080F31188BFF33A
:103010004F8FBFF36F8FFEE78843606000F030F999
:1030200060686968084468602046FFF7A3FC286967
:10303000401C2861BDE8704000F06CBD70BD000010
:10304000A80000204FF0E0200021016181610549C6
:103050004FF47A720968B1FBF2F1491E4161072110
:10306000016170475000002010B5FDF7D5F81149F7
:1030700010280ED300F1E02090F8F0030A78904277
:1030800007D2502080F31188BFF34F8FBFF36F8FAB
:10309000FEE709480068896800F4E060884207D9C3
:1030A000502080F31188BFF34F8FBFF36F8FFEE77F
:1030B00010BD0000C80000200CED00E010B5084B6A
:1030C000002200BF53F832401CB1521C082AF9D329
:1030D00010BD43F8321003EBC201486010BD000080
:1030E0002002002070B515460E460446FFF744FF47
:1030F00094F944100020491C01D184F8440094F94B
:103100004510491C01D184F84500FFF755FFA06B1D
:1031100028B92A46314604F1240000F051F820462F
:10312000BDE87040FFF7D4BD10B5020014D00F48C1
:10313000006B38B1502080F31188BFF34F8FBFF37D
:103140006F8FFEE700F09CF800211046FFF72CFA85
:1031500000F0E0FC002807D105494FF080500860DE
:10316000BFF34F8FBFF36F8F10BD000054000020DE
:1031700004ED00E002490A6A0260C96841607047D4
:103180005400002001490120C8617047540000200C
:1031900010B50C4650B1094909681831FFF7C8FE4F
:1031A0002046BDE810400121FFF7FEB9502080F312
:1031B0001188BFF34F8FBFF36F8FFEE754000020DD
:1031C00070B514460D4668B10A4909681831FFF711
:1031D000C7FE0CB14FF0FF3521462846BDE87040D0
:1031E000FFF7E2B9502080F31188BFF34F8FBFF390
:1031F0006F8FFEE75400002030B587B000240394A1
:1032000005AA04A903A80494FFF76EFEDDE90301F3
:103210000094CDE90110002315A11748059A00F08C
:103220005EFB164D0028E8621FD000F0D5FC012897
:1032300009D0401C19D1502080F31188BFF34F8F63
:10324000BFF36F8FFEE7502080F31188BFF34F8FDD
:10325000BFF36F8F4FF0FF30A86201206861EC6010
:1032600007B0BDE8304000F045B807B030BD000001
:1032700049444C450000000041280008540000204B
:103280000248016B491C0163704700005400002094
:10329000164810B5016B11B10121C16110BD0021AB
:1032A000C1610169124A01E0B9B1491E01EB810314
:1032B00052F82330002BF7D001EB810302EB83029D
:1032C00002F1080453685B685360A34201D15B6854
:1032D0005360DA680260016110BD502080F31188EC
:1032E000BFF34F8FBFF36F8FFEE700005400002045
:1032F000600200201CB5264908780190FF20087064
:1033000008788DF800009DF800009DF8002000F07E
:10331000F000904207D0502080F31188BFF34F8F08
:10332000BFF36F8FFEE79DF800001A4C00F05000CD
:1033300020700720A06005E09DF8002052008DF865
:103340000020401E9DF800201206F5D4A06003283E
:1033500007D0502080F31188BFF34F8FBFF36F8FDA
:10336000FEE74FF44070A060019808700A480168B9
:1033700041F470010160016841F070410160FFF7A4
:1033800061FE00206060FCF711FF00201CBD000002
:1033900000E400E0C800002020ED00E010B550205F
:1033A00080F31188BFF34F8FBFF36F8F00F0D6FA11
:1033B00018B104494FF080500860002080F3118854
:1033C00010BD000004ED00E038B5049D18B153B104
:1033D000CAB181B120E0502080F31188BFF34F8F34
:1033E000BFF36F8FFEE7502080F31188BFF34F8F3C
:1033F000BFF36F8FFEE7502080F31188BFF34F8F2C
:10340000BFF36F8FFEE739B1502080F31188BFF30F
:103410004F8FBFF36F8FFEE750241C46012384F8C3
:1034200046302B460094FFF73BFA204638BD00009B
:1034300070B50D46040025D0FFF79EFDD4E90F209E
:10344000216802FB0011A1600021A1632168616075
:103450000A46D4E90F01401E00FB0121E16021462C
:103460004FF0FF3001F8440F487004F110008DB1A7
:10347000FFF750FD04F12400FFF74CFDFFF79CFD22
:10348000012070BD502080F31188BFF34F8FBFF330
:103490006F8FFEE721690029F0D000F003FB0028C0
:1034A000ECD004494FF080500860BFF34F8FBFF35A
:1034B0006F8FE3E704ED00E02DE9FF4782B01D4682
:1034C0008A464FF00008040003D0BAF1000F08D07C
:1034D00011E0502080F31188BFF34F8FBFF36F8F3F
:1034E000FEE7206C38B1502080F31188BFF34F8F76
:1034F000BFF36F8FFEE7022D0AD1E06B012807D0E2
:10350000502080F31188BFF34F8FBFF36F8FFEE71A
:1035100000F010FA3F4F4FF000094FF0805648B9C5
:10352000049838B1502080F31188BFF34F8FBFF358
:103530006F8FFEE7FFF720FDA06BE16B884207D39A
:10354000022D05D00498D0B1B8F1000F1AD01EE0BA
:103550002A4651462046FFF7FCF8616A19B104F18A
:10356000240000F09FFA20B13E60BFF34F8FBFF3FD
:103570006F8FFFF721FD012006B0BDE8F087FFF750
:103580001BFD22E06846FFF7F5FD4FF00108FFF74D
:1035900013FDFFF775FEFFF7EFFC94F94400401CA4
:1035A00001D184F8449094F94500401C01D184F87D
:1035B0004590FFF701FD04A9684600F029F930B1F4
:1035C0002046FFF785FB00F0A5FA0020D4E7FFF7BF
:1035D000D3FCA06BE16B884213D1FFF7EDFC04F143
:1035E00010000499FFF7D4FD2046FFF771FB00F0AF
:1035F00091FA00289ED13E60BFF34F8FBFF36F8FCB
:1036000098E7FFF7D9FC2046FFF762FB00F082FA4B
:1036100090E7000004ED00E02DE9F0471F469046DA
:103620008946040003D0B9F1000F08D011E0502002
:1036300080F31188BFF34F8FBFF36F8FFEE7206CCD
:1036400038B1502080F31188BFF34F8FBFF36F8FD5
:10365000FEE7022F0AD1E06B012807D0502080F34B
:103660001188BFF34F8FBFF36F8FFEE7FFF7FCFCAE
:103670005020EFF3118680F31188BFF34F8FBFF313
:103680006F8FA06BE16B884206D3022F04D000201D
:1036900086F31188BDE8F08794F94550A06B3A464F
:1036A00049462046FFF755F8681C04D06D1C84F885
:1036B00045500120ECE7606A0028FAD004F12400AC
:1036C00000F0F0F90028F4D0B8F1000FF1D001219A
:1036D000C8F80010EDE700002DE9F747002683B099
:1036E0008A46040003D0BAF1000F08D011E0502040
:1036F00080F31188BFF34F8FBFF36F8FFEE7206C0D
:1037000038B1502080F31188BFF34F8FBFF36F8F14
:10371000FEE700F00FF9DFF8F4804FF000094FF0FA
:10372000805748B9059838B1502080F31188BFF30D
:103730004F8FBFF36F8FFEE7FFF71EFCA56BC5B180
:1037400051462046FEF7F2FF6D1EA563206950B179
:1037500004F1100000F0A6F928B1C8F80070BFF31A
:103760004F8FBFF36F8FFFF727FC012006B0BDE836
:10377000F087059808B11EB106E0FFF71DFC27E0B1
:103780006846FFF7F7FC0126FFF716FCFFF778FD08
:10379000FFF7F2FB94F94400401C01D184F84490F7
:1037A00094F94500401C01D184F84590FFF704FCD2
:1037B00005A9684600F02CF8002820460AD0FFF73B
:1037C00087FA00F0A7F92046FFF716F90028B3D0D2
:1037D0000020CBE7FFF710F990B104F12400059920
:1037E000FFF7D6FC2046FFF773FA00F093F90028A4
:1037F000A2D1C8F80070BFF34F8FBFF36F8F9BE764
:103800002046FFF765FA00F085F995E704ED00E042
:103810002DE9F0410C46050011D0C4B1FFF7ACFB17
:10382000174BDA686E682068911B471C17D02F6809
:103830001B6A9F4219D0964217D8012410E05020ED
:1038400080F31188BFF34F8FBFF36F8FFEE75020D7
:1038500080F31188BFF34F8FBFF36F8FFEE7002413
:10386000FFF7AAFB2046BDE8F081884205D9401A3F
:1038700020602846FFF77EFCF1E700202060DCE7AF
:10388000540000202DE9FF5F8346DDE90E8799464D
:1038900016468A469000FFF751FA05001CD05C20BE
:1038A000FFF74CFA040014D00020256384F8590077
:1038B000CDE90240CDE900874B4632465146584695
:1038C000FFF700F82046FEF79DFE012004B0BDE89A
:1038D000F09F2846FFF784FB4FF0FF30F6E7F0B586
:1038E00085B0DDE90B640A9DA6B1DCB15C270097C9
:1038F0002663022684F85960002604AFCDE902460B
:10390000CDE90057FEF7DEFF2046FEF77BFE049868
:1039100005B0F0BD502080F31188BFF34F8FBFF387
:103920006F8FFEE7502080F31188BFF34F8FBFF3F6
:103930006F8FFEE70548416919B1006B18B100208F
:10394000704701207047022070470000540000209B
:103950000148C06870470000540000202DE9F04184
:103960002E4C0027206B28B1A069401CA06138466E
:10397000BDE8F081E668761CE66013D1606B0068F4
:1039800038B1502080F31188BFF34F8FBFF36F8F92
:10399000FEE7606BA16B6163A063206A401C20623C
:1039A000FFF716F9A06ADFF87880864209D3606BCA
:1039B0000068A0B1606BC068C5686868864211D2B3
:1039C000A0622068C06A00EB800158F8210001283D
:1039D00000D90127E0690028C9D00127C7E74FF0C7
:1039E000FF30EDE7281DFFF76BFAA86A18B105F163
:1039F0001800FFF765FAE86A2169884200D920615A
:103A000000EB800108EB8100291DFFF7A9FAE86AA5
:103A10002168C96A8842CAD30127C8E75400002038
:103A20006002002070B504004FF0000133D01B4D40
:103A30002868844207D0502080F31188BFF34F8F4D
:103A4000BFF36F8FFEE7206D38B1401E2065E36C39
:103A5000E26A9A421FD040B11DE0502080F31188E5
:103A6000BFF34F8FBFF36F8FFEE7201DFFF728FADC
:103A7000E06CE062C0F13800A061E06A2969884228
:103A800000D92861064900EB800001EB8000211D70
:103A9000FFF766FA0121084670BD000054000020BF
:103AA0006002002070B5C068C46854B104F1180009
:103AB0000646FFF705FA144D286B50B131461348FE
:103AC00015E0502080F31188BFF34F8FBFF36F8F45
:103AD000FEE7201DFFF7F4F9E06A2969884200D962
:103AE00028610B4900EB800001EB8000211DFFF7EE
:103AF00037FAE06A2968C96A884202D90120E86178
:103B000070BD002070BD000054000020E8060020B9
:103B1000600200202DE9F0472C4D00242746286B39
:103B200038B1FFF729FA286B401E2863286B40B193
:103B300046E0502080F31188BFF34F8FBFF36F8FA3
:103B4000FEE7A968224E0120D1B3A6F5916980460F
:103B50003068E0B1F068C46804F11800FFF7B0F90C
:103B6000201DFFF7ADF9E06A2969884200D9286174
:103B700000EB800109EB8100211DFFF7F1F9E06AFC
:103B80002968C96A8842E3D3C5F81C80E0E70CB114
:103B9000FFF71EF8AC694CB14FEA0806FFF7DEFEEE
:103BA00000B1EE61641EF9D10020A861E86938B166
:103BB0000849012738070860BFF34F8FBFF36F8FA5
:103BC000FFF7FAF93846BDE8F087000054000020FE
:103BD000E806002004ED00E010B586B0FEF77AFD9F
:103BE000114C2068B8B100200390049005AA04A9E4
:103BF00003A8FFF783F9DDE9032102208DE8070020
:103C000000230AA10B48059AFFF769FE606010B116
:103C100006B0012010BD502080F31188BFF34F8FF4
:103C2000BFF36F8FFEE7000090000020546D7220FC
:103C300053766300AD2C00082DE9FF411E46134664
:103C400002000A9D4FF0000016D0144C2768002F88
:103C50000FD0CDE900130292062917DAFFF76AFEAA
:103C600002284FF000030FD0002269462068FFF7BA
:103C700023FC04B0BDE8F081502080F31188BFF32D
:103C80004F8FBFF36F8FFEE72A46EEE700233246E1
:103C900069463846FFF7C0FCEBE7000090000020C3
:103CA00021F00042A2F16052B2F5801F01F0004302
:103CB00028BFD2F17F6C0BD95FEA001C43EAC20235
:103CC00042EB507018BF704728BF20F001007047CA
:103CD000B2F5801FBCBF184670474FEA410C1CF577
:103CE000001F02D2084600F05ABD70B500F05CF922
:103CF00000000089FFF7F6BF4FF00040A0F58000FC
:103D00007047000010B591EA030F48BF83F00043ED
:103D100000F1A681841A71EB030C05D2121943EB52
:103D20000C03001B61EB0C01DFF824E14FEA115496
:103D3000A4EB135C1EEA430F18BF9EEA445F73D0E6
:103D400023EA0E03DCF1200E21EA045143F4801330
:103D500032D322FA0CFE10EB0E0023FA0CFE41EBDC
:103D60000E01CCF1200E03FA0EFE10EB0E0051F105
:103D70000001B1F5801FCCF1200E32D201EB0451CD
:103D800012FA0EF2BDE8104058BF7047401C38BF11
:103D90005FEA420218BF7047002814BF20F00100FC
:103DA00041F100014FEA410313F5001F38BF70478E
:103DB000A1F1C04100F046B9012A43EB0302ACF186
:103DC000200CDCF11F0E32BF4FF0000E23FA0CF373
:103DD00010EB030041EB0451B4EB115FD0D0A1EB29
:103DE000045101F5801149085FEA300001EB0451EC
:103DF0000ED350F1000038BF12FA0EFE08D1BDE814
:103E00001040C9E7401C38BF5FEA4202CAD1C3E78D
:103E1000BDE810404FEA410313F5001F38BF70475B
:103E2000A1F1C04100F00EB99EEA445F08D011EA4A
:103E30005E0FBDE8104004BF01F000410020704754
:103E4000BDE8104070B500F0AFF800BF64FBBE3EA7
:103E50000000E0FFDFF848C170B51CEA111E1EBF6C
:103E60001CEA13159EEA0C0F95EA0C0F00F06F8008
:103E700081EA030423EA4C134EEAD47E21EA4C1172
:103E800041F4801143F48013AE44A1FB024CA0FB2B
:103E90000365AEF17F7E361955EB0C05A1FB034C93
:103EA0004CF10003A0FB021C16EB0C06654153F11C
:103EB0000003094218BF46F0010613F4007F0BD13E
:103EC0004FEA03314FEA0530340341EA155140EA25
:103ED00016506FF003020AE04FEAC3214FEAC520F3
:103EE000F40241EA555140EA56506FF0020202EBEB
:103EF0002E4201EB025585EACE710AD05FEA440CEE
:103F000018BF24F0004450F1000041F1000120EA04
:103F1000D47040F2FE7C624500D270BDA84214BF4E
:103F20004FF080444FF04044002E08BF0024BEF103
:103F3000806FA8BFA1F1C041BDE8704080F28280CF
:103F40004FF0000001F1C04101F0004170479EEACE
:103F50000C0F0CEA131518BF95EA0C0F06D04FF0A2
:103F6000000081EA030E0EF0004170BD00F01CF865
:103F70008900013E00F007B800F009B84FEA430C91
:103F80005FEA5C5C08D081EA030100F05BB84FEAAD
:103F9000410C5FEA5C5CF6D14FF0000001497047CC
:103FA0000000FF070000F87F0EF1020E2EF0030E56
:103FB0005EF8046B364205D4012A43EB030515F580
:103FC000001F12D8012841EB010C1CF5001F0CD872
:103FD0000ED14FEAD17C15F5001F0CEB4C0C0CF107
:103FE000020C08BF4CEBD37C04E04FF0080C01E05E
:103FF0004FEAD37C0CEB4C0526FA05F606F00706D3
:10400000B6F1040C06D20EEB860CBDE870404CF005
:10401000010C6047DFE80CF0090B02024FF0004191
:104020004FF00000A1F5002170BD1946104601288F
:1040300051EB010418BFD4F5001484BF002001F037
:10404000004170BD0808A0F500114FEA310170472A
:1040500010B591EA030F48BF83F000433FF55AAE15
:10406000841A71EB030C07D212198CF0004C43EB4D
:104070000C03001B61EB0C01DFF8A4E14FEA1154C3
:10408000A4EB135C1EEA430F18BF9EEA445F00F0E6
:10409000B08023EA6E03524221EA0451C3EB6E035F
:1040A00038BF5B1EDCF1200E25D322FA0CFE10EB8C
:1040B0000E0043FA0CFE41EB0E01CCF1200E03FA88
:1040C0000EFE10EB0E0051F10001CCF1200E29D4B0
:1040D00012FA0EF201EB0451BDE8104058BF7047D0
:1040E000401C1CBFB2F1004F704700280CBF491C98
:1040F00020F00100704712EB020E43EB030218BFE1
:104100004FF0010E4EEA4202ACF1200CDCF11E0E23
:1041100054D943FA0CFE10EB0E0051F1FF31CCF1F3
:104120001E0ED5D50EF1010E12FA0EFE404141EBE6
:10413000010101EB445C5FEA5C5C10D910EBDE70BE
:1041400001EB045138BFBEF1004FBDE8104018BF6D
:10415000704700280CBF491C20F00100704730D286
:104160004FEAD42C11F5001124F400641BD0B1FAED
:1041700081F20B3AA41AA41ED2F12003914030FA26
:1041800003F31943904001EBCC71002C01EB045177
:10419000BDE81040A8BF704701F1C0414FF00000DA
:1041A00001F000417047B0FA80F310FA03F100D13A
:1041B00010BDE41A173C4805C90AE4E701EB0451B5
:1041C00010BD491001EB0451BDE810404FEA30002A
:1041D00002E04FF0000170474A0008BF0042F8D0EB
:1041E000B2F5001F28BF704701F000414FF00000FA
:1041F00070479EEA445F07D011EA5E0FBDE81040A9
:1042000004BF002100207047BDE8104070B5FFF7E3
:10421000CBFE00BF40DFF63E83F000411046704702
:104220000000E0FF43004FEAD30C4FEA3C0C434050
:104230001FBF40070CF1605113F0FE4F70471CF098
:10424000006F03D100200CF0004170470CF00043D8
:1042500043EA507010B540EACC0000F05AFA00BFB3
:10426000000000924FEA0001FFF7ECBE4FF0004162
:104270004FF00000A1F500217047000090EA010F07
:1042800048BF81F0004100F19682421A3CBF801A7B
:1042900089184FEAD0524FF07F4C1CEA410FA2EB35
:1042A000D15318BF9CEA026F00F03B804FF0004CE6
:1042B0004CEA00204CEA012121FA03FC10EB0C0C23
:1042C0001ED202F1FF325FEA1C2040EBC25038BF21
:1042D00070471CF07F0F4FEA400C18BFBCF17F4FB6
:1042E00038BF7047C3F12003994008BF20F0010098
:1042F000BCF17F4F38BF7047A0F1C04000F04FBA0B
:104300004FEA3C00000A40EBC25028BF1CF0FF0FF0
:104310004FEA400CE6D018BFBCF17F4F38BF704762
:10432000EAE79CEA026F05D010EA5C0F08BF00F0D4
:104330000040704710B500F0ECF900BF64FBBE3ED2
:10434000014800F0A6BA00BF0000C07F50EA010C8F
:1043500000F113801CF5000F58BFBCF5000F01D40D
:104360008842704707D710F5000F58BF11F5000FAE
:1043700022D488427047894270471CF5000F04D54B
:10438000BCF5000FF7D5814270474FF0807C1CEBE5
:10439000400F38BF1CEB410F0ED28142704710B561
:1043A000FFF7D4FFEFF3008020F0104038BF40F05B
:1043B000004080F3008810BDBDE8104010B500F04B
:1043C000A8F900BF0000000900F007B84FF0404016
:1043D00010F1004FEFF300807047401058BFC0F15C
:1043E0004040491058BFC1F140418142EFF3008085
:1043F000704700004FF47F0C1CEAD0121EBF1CEA6D
:10440000D11392EA0C0F93EA0C0F00F0858090EA2A
:10441000010F48BF42F4807240F4000C41F40000E8
:104420002CF07F4120F07F4000B58142A2EB0302D7
:104430000FF2081CACEB504EC0F100009EF800E0FB
:104440004FEA4E0E00FB0EFC38BF49004FEA2C1C11
:1044500002F5FA020CFB0EF34FEACE1E4FEA112CC6
:104460004FEAC1210EEB635E42EB22420EFB0CFCD5
:104470004FEA1C5300FB03114FEA112C4FEA0131A4
:104480000EFB0CFC4FEADC4C00FB0C11C14228BFB8
:1044900009184CEB03335DF804EB10EB410143EBDF
:1044A000C250B2F57C0F38BF704729D512F0F00F1B
:1044B0001CBF00F1C04000F00040704700818283C3
:1044C0008485868788898B8C8D8E8F919293959623
:1044D00097999A9C9D9FA0A2A3A5A7A8AAACAEB0AD
:1044E000B2B3B5B7B9BCBEC0C2C5C7C9CCCED1D4B2
:1044F000D7D9DCDFE2E6E9ECF0F3F7FAFE000000E2
:104500004FEA400C0CF1807CBCF17E4F28BF704715
:10451000B0F1C04000F043B990EA010F0CEAD113AA
:1045200048BF42F48072624538BF634507D213F436
:104530007F0F16D080EA010000F00040704710B5F0
:1045400000F0E7F8097EFC3E00F005B880EA0100C3
:1045500000F00040704780EA010000F0004000F0E9
:104560001EB912F47F0F04BF0248704780EA0100B1
:1045700000F015B90000C07FC10DD1F19E0206DB2D
:104580004FEA002343F0004323FA02F07047004251
:1045900007D54FEA4001B1F1FE4F02D24FF00000C3
:1045A000704710B500F0B5F849922480002070479C
:1045B0006FEA20007047000010F0004148BF404201
:1045C000B0FA80F310FA03F2C3F19D030BD051EA65
:1045D000C35101EB1220530638BF704700F10100B0
:1045E00008BF20F001007047B0FA80F310FA03F220
:1045F000C3F19D030AD0D90501EB1220530638BF41
:10460000704700F1010008BF20F001007047000072
:104610004FF47F0C1CEAD0121EBF1CEAD11392EAA1
:104620000C0F93EA0C0F00F0478090EA010F48BF8F
:1046300042F480724FF0004C4CEA00204CEA012119
:1046400002EB0302A0FB0113A2F50002002918BF30
:1046500043F001035B0028BF4FEA330342EB2242E1
:104660005FEA132C4CEBC2502EBFBCEB436FB2F58C
:104670007C0F70474FEA036CBCF1004F08BF20F07D
:104680000100B2F57C0F38BF70470BD582F0FF02F6
:1046900012F5803FC8BF704700F1C040D8BF00F09E
:1046A0000040704700F5000C5FEA4C0C48BF7047B3
:1046B000B0F1C04000F073B890EA010F0CEAD113DA
:1046C00048BF42F48072624538BF634504D280EA35
:1046D000010000F00040704710B500F01AF800BF6C
:1046E0008900013E00F007B800F009B85FEA410C0C
:1046F0005FEA1C6C08D080EA010000F050B85FEA65
:10470000400C5FEA1C6CF6D14FF00040A0F5800031
:1047100070470EF1020E2EF0030E5EF8044B244299
:1047200004D44FEA4102B2F17F4F11D84FEA40035F
:10473000B3F17F4F0CD80ED14FEAD07CB2F17F4F4E
:104740000CEB4C0C0CF1020C08BF4CEBD17C04E0E0
:104750004FF0080C01E04FEAD17C0CEB4C0324FA3B
:1047600003F404F00704B4F1040C06D20EEB840C3D
:10477000BDE810404CF0010C6047DFE80CF0070882
:1047800002024FF00040A0F5800010BD0846420034
:1047900018BFD2F1807288BF00F0004010BDFF2129
:1047A00041EAD050C005704790EA010F48BF81F040
:1047B00000413FF56AAD421A04D882F00042A0EBF6
:1047C000020011444FEAD0524FF07F4C1CEA410FD7
:1047D000A2EBD15318BF9CEA026F4AD04FF0004CB5
:1047E0004CEA00204CEA012121FA03FCB0EB0C0C4E
:1047F0000FD412F0FE0F36D05FEA4C001DD5001228
:1048000040EBC25038BF70471CF03F0F18BF7047D5
:104810000BE0A2F101025FEA1C2040EBC25038BF5E
:1048200070471CF07F0F18BF7047C3F120039940F9
:1048300014BF401E20F00100704780084FEA122389
:1048400008BF7047B0FA80FCA2EB0C02CCF1280C38
:1048500060FA0CF093EA122F04BF00EBC2507047CD
:104860004FEAC3707047130A5FEADC1008BF704755
:10487000F6E79CEA026F04D010EA5C0F08BF002044
:10488000704710B5FFF745FF40DFF63E81F000406E
:1048900070470CF00F03092B08BF082000F051806F
:1048A0000A2B0BD0082B18BF704708BF1CF0400F15
:1048B0000AD04FF000004FF0000170471CF0400F8D
:1048C00018BF4FF0004070471CF0100F08D020F0C8
:1048D000704300F07F4242EAD3014FEA43707047D1
:1048E00000F0604021F07F4242EA000201F07F4088
:1048F00040EA727070474FF0FF0212EAD0521CBFBC
:1049000092F0FF038B42C2BFD14200EBC15070470F
:10491000002A0AD0002B0BD0002900F00040A4BFD1
:1049200040F0FE4040F40000704700F00040704747
:1049300043024FF00B0C18BF4CF0806C7FF400ADBD
:1049400070471CF4801F11D01CF4E02F03D06FEAD5
:10495000CC31490070474FF04050EFF3008222F015
:10496000704242EA000282F3008870474FF0000074
:1049700070470000584A00080000000000000000D6
:10498000000000000000000000020000180000000D
:104990000000000000000000484A0008000000007D
:1049A0000000000000000000000000000002000005
:1049B000300000000000000000000000744A000801
:1049C00000000000000000000000000000000000E7
:1049D00000020000180000000000000000000000BD
:1049E000644A000800000000000000000000000011
:1049F0000000000000020000300000000000000085
:104A0000000000000504040606020203030101057C
:104A10000501010303020206060404050102020364
:104A20000405060708090A0B0C0D0E0F10100000F4
:104A3000000000000000010203040607080900004E
:104A400000000102030400005461736B526563654A
:104A500069766543414E000064656661756C745407
:104A600061736B005461736B5265616448616C6C77
:104A7000000000005461736B4D436F6E74726F6C75
:104A800000000000A44A000800000020D40000003C
:104A900028010008784B0008D40000208420000082
:104AA00044010008000000000000000000000000B9
:104AB000CDCC4C3D000000000000000000000000D4
:104AC00000000000000000000000000000000000E6
:104AD00000000000000000000000000000000000D6
:104AE00000000000000000000100000010000000B5
:104AF0000000000000127A0000000000000000002A
:104B000000000000000000000000000000000000A5
:104B10000000000000000000000000000000000095
:104B20000000000000000000000000000000000085
:104B30000000000000000000000000000000000075
:104B40000000000000000000000000000000000065
:104B50000000000000000000000000000000000055
:104B60000000000000000000000000000000000045
:084B7000AAAAAAAA0000000095
:04000005080000ED02
:00000001FF
