:020000040800F2
:100000004823002079020008973F0008C932000801
:10001000893F00087B140008114700080000000019
:10002000000000000000000000000000E1010008E6
:100030004315000800000000250200085141000897
:10004000930200089302000893020008930200083C
:10005000930200089302000893020008930200082C
:10006000930200089302000893020008930200081C
:10007000930200089302000893020008930200080C
:10008000011500080D1500089302000893020008EE
:1000900093020008930200089302000893020008EC
:1000A00093020008930200089302000893020008DC
:1000B00093020008930200089302000893020008CC
:1000C00093020008930200089302000893020008BC
:1000D00093020008930200080547000893020008F5
:1000E00093020008930200089302000800F002F84F
:1000F00000F067F80AA090E8000C82448344AAF15B
:100100000107DA4501D100F05CF8AFF2090EBAE858
:100110000F0013F0010F18BFFB1A43F0010318473B
:100120000C7C00002C7C00000A444FF0000C10F8FE
:10013000013B13F0070408BF10F8014B1D1108BF65
:1001400010F8015B641E05D010F8016B641E01F805
:10015000016BF9D113F0080F1EBF10F8014BAD1C55
:100160000C1B09D16D1E58BF01F801CBFAD505E073
:1001700014F8016B01F8016B6D1EF9D59142D6D3CD
:10018000704700000023002400250026103A28BFF5
:1001900078C1FBD8520728BF30C148BF0B607047F9
:1001A000662907F06E84002070471FB500F024FC1C
:1001B00004000020002106F011FDE0601FBD10B515
:1001C00010BD00F01DFD1146FFF7EFFF04F032FFF8
:1001D00000F03BFD03B4FFF7F2FF03BC00F07EFD2F
:1001E000224B19680868B0E8F00F80F30988BFF364
:1001F0006F8F4FF0000080F311884EF00D0E7047A6
:100200000000000006480068006880F3088862B6B5
:1002100061B6BFF34F8FBFF36F8F00DF00BF00BF2A
:1002200008ED00E0EFF30980BFF36F8F0F4B1A6802
:1002300020E9F00F106008B54FF0500080F31188EE
:10024000BFF34F8FBFF36F8F05F0C0FF4FF000007B
:1002500080F31188BDE8084019680868B0E8F00F1D
:1002600080F30988BFF36F8F704700BF60000020E4
:10027000EFF30580704700000948804709480047B0
:10028000FEE7FEE7FEE7FEE7FEE7FEE7FEE7FEE746
:10029000FEE7FEE704480549054A064B70470000A3
:1002A000C1410008ED000008481D0020482300203F
:1002B000481F0020481F00200FB41CB5084B06AA99
:1002C0007B4469460090059800F05BFB04460020E3
:1002D000694600F069FB20461CBC5DF814FB000079
:1002E000E50600002DE9F0474FF0000A8946044674
:1002F000C0F820A02046E1688847002876D025284D
:1003000006D0D4E901219047206A401C2062F1E721
:10031000E168204600258847C4F81CA0064600274F
:10032000C4F818A02A2E09D0304604F0EBFA38B3EE
:1003300004EB8708303EC8F8186019E059F8041B30
:10034000204604EB87029161E1688847012F064649
:1003500018D1E069002820DA25F020051DE0D8F842
:10036000180000EB800006EB40003038C8F8180099
:100370002046E1688847064604F0C4FA0028EED11A
:10038000012F0AD02E2E08D12046E16888477F1C15
:100390000646022F45F02005C4DBA069002803DAD9
:1003A000404245F00105A061E80701D025F01005A5
:1003B000B6B1A6F14100192802D8203645F40065EF
:1003C0004A463146204625604D46FFF7E9FE58B1C2
:1003D000012806D0ED1D25F0070000F1080989E786
:1003E00004E005F1040985E730468AE7206ABDE8A4
:1003F000F087032A40F2308010F0030C00F01580E3
:1004000011F8013BBCF1020F624498BF11F801CB17
:1004100000F8013B38BF11F8013BA2F1040298BF7C
:1004200000F801CB38BF00F8013B11F0030300F0E6
:100430002580083AC0F0088051F8043B083A51F88A
:1004400004CBA0E80810F5E7121D5CBF51F8043B8F
:1004500040F8043BAFF30080D20724BF11F8013B02
:1004600011F801CB48BF11F8012B24BF00F8013B64
:1004700000F801CB48BF00F8012B704710B5203AB7
:10048000C0F00B80B1E81850203AA0E81850B1E84D
:100490001850A0E81850BFF4F5AF5FEA027C24BF03
:1004A000B1E81850A0E8185044BF18C918C0BDE8FA
:1004B00010405FEA827C24BF51F8043B40F8043BC3
:1004C00008BF7047D20728BF31F8023B48BF11F878
:1004D000012B28BF20F8023B48BF00F8012B7047D2
:1004E00002F0FF0343EA032242EA024200F063BA49
:1004F0004FF0000200B5134694469646203922BFBD
:10050000A0E80C50A0E80C50B1F12001BFF4F7AF07
:10051000090728BFA0E80C5048BF0CC05DF804EBE9
:10052000890028BF40F8042B08BF704748BF20F857
:10053000022B11F0804F18BF00F8012B7047704755
:100540007047704710B500F05BFA006810BD10B539
:10055000044600F055FA046010BD70472DE9FF4FC6
:100560000C461E464FF0FF378BB0D2E90001DDF894
:1005700060800A908A46C1F30A5505B93D460021BC
:1005800008464FF00000BAF1000F00F4400005DA11
:1005900000EB80004FF4400101EA50004FEA90590F
:1005A000B9F1010F00DDB9460A9850EA4A000ED0B1
:1005B00044F61050A5F2FF3545432F14B8F1000F53
:1005C0001ED07542291E1EDDC9F100021CE0B8F1E3
:1005D000010F4FF0000001D0302103E0F24305E0AD
:1005E0002154401CB042FBDB304600220021215444
:1005F0000B99C1F80880C1E900200FB0BDE8F08F69
:10060000BD1B6D1CDEE74A4600DA694206A800F011
:1006100081FA06AB93E8070003AB83E80700504676
:100620000A9900F062FB8DE80700A0F500501F3822
:1006300000900398002D0ADD42F21F014A4608444B
:10064000002303A90390684600F0CBFD09E0A0F564
:1006500000504A461F38002303A90390684600F063
:10066000D5FD8DE807000004000C03D04FF0FF30EB
:10067000410800E01046B8F1000F03D000220092BC
:1006800015461EE0751E05D400F0BEF930326255E5
:100690006D1EF9D5B3460122084302D000227F1C0B
:1006A00004E02078302801D100227F1E002A09971B
:1006B00084D01DE0112D07DA00F0A6F93032625522
:1006C0006D1C50EA0102F5D1084302D00098C8B170
:1006D0000EE00021681E05E0235C625C6354225436
:1006E000401E491C8142F7DBAB46A81B401E099007
:1006F000002004F80B000B98099AC0F80880C0E9A4
:10070000002B7AE711264FF0000857E72DE9F04F4C
:1007100088460446D21D22F0070191B0D1E90001BC
:10072000CDE90A0103F0F5FF02460B98C00F01D096
:100730002D2007E02068810701D52B2002E0202131
:1007400001EAC000032A099001D0072A05DB03460D
:100750004146204600F09EF90BE12078800601D545
:10076000E06900E00620B8F1650F814606D0B8F1D7
:10077000660F18D0B8F1670F70D131E00020B9F1E1
:10078000110F009001DB112301E009F101030AAA16
:1007900001A90CA8FFF7E2FEDDE90C70002609F1C3
:1007A0000105834647E001204B4600904FF000478B
:1007B0000AAA01A90CA8FFF7D1FEDDE90DB00C993A
:1007C0005D46002610B909F101000D18B9EB0500CE
:1007D00003D4C0F1FF3609F10105A5EB09002BE0B8
:1007E000B9F1010F01DA4FF001090020B9F1110F41
:1007F0000090484601DD112300E003460AAA01A942
:100800000CA8FFF7ABFEDDE90C704D4600268346D1
:10081000207800070AD4AB4500DA5D4601A8012D17
:1008200004DD411911F8011C302907D04F4502DAC7
:1008300017F1040F04DA012082460FE06D1EEEE787
:10084000002F02DCED1B3E4403E0781CA84200DDD3
:100850007D1CB81B00F1010A4FF00047207800070B
:1008600003D4AA4501DB4FF0FF3A0021B7F1004F56
:100870000DF143088DF8431024D002202B23002FC4
:1008800001DA7F422D230A21021EA0F1010000DCC3
:100890005FB197FBF1FC97FBF1F201FB1C7C174663
:1008A0000CF1300C08F801CDEEE7A8F1010003705F
:1008B0002188090501D5452100E06521A0F1010845
:1008C00000F8011C09980FA9A1EB0807FF1D00B152
:1008D0000120411901EBEA70A1693844081A401E51
:1008E000A0612078C00602D42046AFF300800998AA
:1008F00028B1D4E901219047206A401C2062207869
:10090000C00622D52046AFF300801EE0002E04DB97
:10091000B34502DD01A8805D00E03020D4E901216B
:100920009047206A401C2062761CAAF101005FEA11
:10093000000A0AD100F060F8C0680168405CD4E9A0
:1009400001219047206A401C2062281EA5F1010564
:10095000DCDC07E0D4E9012118F8010B9047206A9C
:10096000401C2062381EA7F10107F3DC2046AFF3DC
:100970000080032011B041E601694A1C0261087839
:10098000704700B58FB0CDE90131002105910549CF
:100990007944CDE9031011466846FFF7A3FC0FB078
:1009A00000BD0000E5FFFFFF0A6802F8010B0A60C6
:1009B00070474FF000020429C0F0128010F0030CC1
:1009C0003FF498ADCCF1040CBCF1020F18BF00F855
:1009D000012BA8BF20F8022BA1EB0C01FFF78ABD69
:1009E0005FEAC17C24BF00F8012B00F8012B48BF4F
:1009F00000F8012B7047000000487047041D0020DC
:100A000000487047E41C002030B5B0F10A024FEAFC
:100A1000900E71F100034EEA817EB0EB0E0061EBA7
:100A200091014FEA101E4EEA017E10EB0E0041EBE1
:100A300011114FEA102E4EEA016E10EB0E0041EB41
:100A400011214FEA104E4EEA014E10EB0E0041EB21
:100A50001141401841F100014FEAD00040EA4170D5
:100A60004FEAD10110EB80054FEA810444EA90740B
:100A700044EB01046D1944EB0404521BA3414FF0F5
:100A8000000348BF0A3200D530BD401C41F10001CF
:100A900030BD00002DE9F0411F46044603260168E1
:100AA000072A01F4006004DB08B116A505E016A5CD
:100AB00003E008B115A500E015A521F010002060A5
:100AC000A069C01EA0610FB1401EA0612046AFF317
:100AD00000804FB1D4E9012138469047206A401C7C
:100AE0002062C01C206206E0206AFAE7D4E90121F6
:100AF00015F8010B9047761EF8D22046AFF3008020
:100B0000BDE8F0814E414E006E616E00494E4600D8
:100B1000696E66002DE9F047814616468AB0354871
:100B200078440DC88DE80D0032487844801C03AC31
:100B30000DC884E80D0041F69B300844372190FB36
:100B4000F1F290FBF1F5A5F1800501FB12041B3CCD
:100B500002D56442012000E00020DFF898A0804622
:100B60000027FA44AAF1BE0A0EE0E0070AD0324696
:100B7000684607EB470101230AEB810100F046FBC1
:100B80008DE8070064107F1C002CEED1194F7F44C4
:100B9000AE3F19E0E80715D007EB04100DF1180A75
:100BA00090E80E008AE80E00C068F04201D1981962
:100BB00008903246012306A903A800F027FB03ABE7
:100BC00083E807006D10641C002DE3D14FF0010392
:100BD00032466946B8F1000F03A802D000F001FBCD
:100BE00001E000F013FBC9E90001C9F808200AB0D0
:100BF000BDE8F087B471000000487047E41C002095
:100C00007546FFF7F9FFAE4605006946534620F0EA
:100C10000700854618B020B5FFF73CFBBDE8204033
:100C20004FF000064FF000074FF000084FF0000BA8
:100C300021F00701AC46ACE8C009ACE8C009ACE85B
:100C4000C009ACE8C0098D46704710B50446AFF343
:100C500000802046BDE81040FFF7BCBA4FF0013CD1
:100C600050F8042B51F8043B9A4221D1A2EB0C031B
:100C7000934313EACC1317D150F8042B51F8043BDB
:100C80009A4215D1A2EB0C03934313EACC130BD178
:100C900050F8042B51F8043B9A4209D1A2EB0C0303
:100CA000934313EACC13DBD04FF00000704700BF32
:100CB000D01A01BAB1FA81F101F0180122FA01F05B
:100CC000CB40C1F12001DBB2C0B2C01A2CFA01F353
:100CD000D11A914311EAC311E6D170470149182096
:100CE000ABBEFEE72600020070475FEA400C08BF7B
:100CF00091F0000F4FEA8C234FEAC12243EA515191
:100D00004FEA1C5018BF00F5F0404FEA300018BF02
:100D100041F000415FEA6C5C00F02980BCF1FF3FCC
:100D200008BF40F080407047130C06BF12044FF01C
:100D3000100C4FF0000C130E04BF12020CF1080C43
:100D4000130F04BF12010CF1040C930F04BF9200A7
:100D50000CF1020CD30F04BF52000CF1010C114630
:100D60004FF00002A0F11F00A0EB0C00704711F043
:100D7000004F08BF704731F000413FF4D5AF0B0C76
:100D800006BF09044FF0100C4FF0000C0B0E04BF0F
:100D900009020CF1080C0B0F04BF09010CF1040C43
:100DA0008B0F04BF89000CF1020CCB0F04BF49006C
:100DB0000CF1010CCCF12003A0EB0C0022FA03F3A0
:100DC00002FA0CF241EA030100F10100704720F041
:100DD0007F4C80EA030023F07F47ACEB070303F569
:100DE0007C5300F0004003F1FF032DE980494FEAF6
:100DF000154B09B44FEA144325EA0B4E24EA034885
:100E00000FF2042606EB132749083E785FEA320208
:100E100003FB0667C7F5000707FB06F64FEA5437E2
:100E20004FEAD64606F1020607FB066CCCF1005CE1
:100E30004FEA1C472CEA074C07FB06F40CFB06F5AF
:100E400004EB15464FEA961634BF00204FF00040E1
:100E50004FEAD13706FB07FC4FEA1C4C0CFB0BF7A3
:100E6000D21B03FB0CF761EB07010CFB0EF7B0EB99
:100E7000074072EB17420CFB08F734BFA2EB0742A6
:100E8000B2EB074261EB17414FEA0C444FEA91077E
:100E900006FB07FC4FEA1C4C0CFB0BF7B0EBC74002
:100EA00072EB573203FB0CF734BFA2EBC742B2EB35
:100EB000C74261EB57310CFB0EF7B0EBC70072EB8A
:100EC00057720CFB08F734BFA2EBC702B2EBC702A4
:100ED00061EB5771039F4FEA816141EA921104EB84
:100EE000CC044FEAD1374FEA826206FB07FC42EAA4
:100EF00090124FEA80604FEA1C4C0CFB0BF7D21BA0
:100F000003FB0CF761EB07010CFB0EF7B0EB07409E
:100F100072EB17420CFB08F734BFA2EB0742B2EBAF
:100F2000074261EB17414FEA8C554FEA910704EBFA
:100F30009C2406FB07FC4FEA1C4C0CFB0BF7B0EBA8
:100F4000C74072EB573203FB0CF734BFA2EBC7422A
:100F5000B2EBC74261EB57310CFB0EF7B0EBC700A9
:100F600072EB57720CFB08F734BFA2EBC702B2EB6F
:100F7000C70261EB577115EB4C254FEA816141EADD
:100F800092114FEA82624FEAD13742EA901206FB91
:100F900007FC44F100044FEA80604FEA1C4C0CFB54
:100FA0000BF7D21B03FB0CF761EB07010CFB0EF7F1
:100FB000B0EB074072EB17420CFB08F734BFA2EB13
:100FC0000742B2EB074261EB174115EB1C154FEAE4
:100FD000813141EA92414FEA823242EA90424FEA3D
:100FE00080304FEA0C7644F1000448EA03434EEAAD
:100FF0000B484FF0000EB2EB080C71EB030724BF57
:10100000624639464EEB0E0E4FF0000B001852416F
:1010100049414BEB0B0BB2EB080C71EB03077BF177
:10102000000B24BF624639464EEB0E0E4FF0000B0C
:101030000018524149414BEB0B0BB2EB080C71EB22
:1010400003077BF1000B24BF624639464EEB0E0EC0
:1010500051EA020718BF46F0010616EB0E7655F16D
:10106000000254F1000103D5BDE88901BDE8008804
:10107000BDE88901BDE80048B619524141EB0101C4
:10108000A3F10103704780807F7E7D7C7B7A797835
:10109000777676757473727171706F6E6E6D6C6C3D
:1010A0006B6A6A69686867666665646463636261DF
:1010B0006160605F5F5E5E5D5D5C5C5B5B5A5A5960
:1010C00059585857575656555555545453535252CC
:1010D0005251515050504F4F4F4E4E4D4D4D4C4C24
:1010E0004C4B4B4B4A4A4A4949494848484747476D
:1010F00047464646454545444444444343434342AA
:10110000424242414141002B9C4630D477002BD0D3
:101110001CB54FEA370703B44FF010004FF0100131
:10112000BAF1000F06D0BCF1000FDCBF40F00800A0
:1011300040F008014FF000000FBCBDE810400BF17B
:10114000010BBBF1010F08BF5FEA170722BF12F1C5
:10115000010211F101014FF0004143F1000300F0E1
:10116000004043EA00007047F9D35708D0E746EA49
:10117000064613F1400F4FEA16461FDD13F1200F0C
:10118000DFBF16430A46002120335B42BED0C3F1C5
:10119000200746EA064602FA07F74FEA164646EAED
:1011A0000706C3F1200722FA03F201FA07F721FA32
:1011B00003F14FF0000342EA0702A7E746EA0206FE
:1011C00046EA06464FEA164646EA0106BCBF46EA2C
:1011D0000646360C4FF000034FF000024FF00001BE
:1011E00094E72DE9804C9A46934670B491E8380014
:1011F00007C831EA400C48BF34EA430C03D5FFF777
:10120000E6FDFFF780FFF0BCBDE8008C2DE9804CC7
:101210009A46934670B491E8380007C810F0804FA2
:1012200008BF13F0804F03D100F005F8FFF76BFF04
:10123000F0BCBDE8008C20F07F4780EA030023F07B
:101240007F4C07EB0C03A3F57C5300F00040A3F1A7
:10125000FE0392F0000F00F0B38095F0000F00F055
:1012600077802DE901494FEA11404FEA144621EAFF
:10127000004800FB06FC24EA064708FB06F607FBCD
:1012800008F800FB07F718EB06484CEB164C4FEA42
:10129000124B18EB07484FEA15464CEB174022EA71
:1012A0000B4E0BFB06FC25EA06470EFB06F607FB7A
:1012B0000EFE0BFB07F71EEB064E4CEB164C4FF0E9
:1012C00000061EEB074E4CEB174B18EB0B0840F1DA
:1012D000000018EB0E0B58EB000840F100008F1ACD
:1012E0004FF000013CBFC943661B14BFB5EB040CB3
:1012F00000213CBFC943F61B4FEA17444EEA8E0E4D
:1013000027EA04454FEA1C4704FB07622CEA074C16
:1013100005FB07F70CFB05F604FB0CFC16EB074678
:1013200042EB174216EB0C4642EB1C421BEB060647
:1013300058EB0202414146EA9E0601D5BDE801890B
:10134000B619524141EB0101A3F10103BDE8018946
:101350004FEA14454FEA114724EA054621EA074CB3
:1013600005FB07F406FB07F70CFB06F105FB0CFC7D
:1013700011EB074144EB17444FEA124711EB0C41C4
:1013800044EB1C4422EA074C05FB07F206FB07F777
:101390000CFB06F605FB0CFC16EB074642EB17426E
:1013A00016EB0C4642EB1C456A1854F1000148BF8D
:1013B0007047B619524141EB0101A3F10103704797
:1013C00095F0000F37D04FEA11424FEA144721EA57
:1013D000024624EA074C02FB07F106FB07F70CFB69
:1013E00006F402FB0CFC14EB074441EB17414FEAF7
:1013F000154714EB0C4441EB1C4125EA074C02FB5A
:1014000007F506FB07F70CFB06F602FB0CFC16EBD8
:10141000074645EB174516EB0C4645EB1C421219E7
:1014200051F1000148BF7047B619524141EB01012B
:10143000A3F1010370474FEA14454FEA114724EA2C
:10144000054621EA074C05FB07F106FB07F70CFBF5
:1014500006F24FF0000605FB0CFC12EB074241EBD5
:10146000174112EB0C4251EB1C4148BF70479218D8
:1014700041EB0101A3F101037047FEE702460020A2
:101480004FEA000152F82130491C18440C29F9D3C5
:10149000704700000349884202DC0349884200D9B2
:1014A0000846704700C0794400C079C42DE9F04176
:1014B0000F4C606BA16B401A06F04EF80D4E0546BE
:1014C000314605F04BFF0C4F394605F047FF60628F
:1014D00028460A4906F0A0F8314605F03FFF394694
:1014E00005F03CFFA062606BA063BDE8F0810000E6
:1014F000000000200000B4426F12833A0000B443A1
:10150000014800F06BBA000088030020014800F099
:1015100065BA0000CC03002030B590F8405001249B
:10152000AC40C56B6C60046863604368102B036853
:1015300003D099600068C26030BD9A600068C160E5
:1015400030BD704772B60A4C4FF400550022294650
:10155000204600F05AFC642000F050FB012229468E
:10156000204600F052FC642000F048FBEEE700004B
:101570000010014010B500240460446084600C60D9
:101580004C608C601460546094601C605C609C6073
:1015900010BD0000F0B515468DB00E4607461A4A3C
:1015A0001C4669465FF0000052F8203041F82030B8
:1015B000401C0D28F8D30846FFF760FF0C998142C4
:1015C00008D023462A4631463846FFF7D3FF01208C
:1015D0000DB0F0BD00983860019878600298B8604E
:1015E00003983060049870600598B0600698286091
:1015F000079868600898A860099820600A98606059
:101600000B98A0600020E3E700FC010890F8202080
:10161000012A07D0022A05D0416A41F480214162A3
:1016200001207047006842690A4342610020704708
:1016300010B590F820300268012B07D0022B05D09E
:10164000416A41F480214162012010BDD2F80002BC
:1016500040F00100C2F80002087D00F01F030120E5
:101660009840D2F81C328343C2F81C32CB69B3B91C
:10167000D2F80C328343C2F80C328C894B6864F385
:101680001F434C6902EBC404C4F840320C890B6858
:1016900064F31F434C6902EBC404C4F84432CB69C1
:1016A000012B16D1D2F80C320343C2F80C320C884D
:1016B0004B6864F31F434C6902EBC404C4F8403226
:1016C0000C89CB6864F31F434C6902EBC404C4F873
:1016D00044328B69002BD2F804320FD053EA000356
:1016E000C2F804320B69002BD2F8143208D003433D
:1016F000C2F81432096A012904D008E08343EFE7F5
:101700008343F5E7D2F81C120143C2F81C12D2F849
:10171000000220F00100C2F80002002010BD70B5E8
:10172000040003D094F8200010B104E0012070BD43
:10173000204600F081F82068016841F00101016055
:1017400000F068FB0546052604E000F063FB401B43
:101750000A2811D820684068C007F6D020680168C0
:1017600021F00201016000F055FB05460BE000F09E
:1017700051FB401B0A2806D9606A40F400306062C1
:1017800084F82060D2E7206840688007EFD4207E8C
:101790000128206801683DD021F080010160607E51
:1017A00001282068016838D021F040010160A07E46
:1017B00001282068016833D021F020010160E07E1B
:1017C0000128206801682ED041F010010160207FBF
:1017D00001282068016829D021F008010160607F9C
:1017E00001282068016824D021F004010160D4E9B7
:1017F00002010843D4E90412114308436168491EF9
:1018000008432168C86100206062012084F820003C
:10181000002070BD41F08001C0E741F04001C5E704
:1018200041F02001CAE721F01001CFE741F00801A3
:10183000D4E741F00401D9E710B586B0002100914A
:1018400001910291039100681349884222D1134803
:10185000C16941F00071C161C16901F00071049179
:10186000816941F00401816180690D4C00F0040040
:1018700004904FF4006000906946204600F0D0F9D3
:10188000A014009002200190032003906946204696
:1018900000F0C6F906B010BD006400400010024020
:1018A0000008014070B5044690F82000012804D0DB
:1018B000606A40F40020606218E0022084F8200092
:1018C0002068016821F00101016000F0A3FA0546DB
:1018D0000EE000BF00F09EFA401B0A2808D9606A9B
:1018E00040F400306062052084F82000012070BDC3
:1018F00020684068C007EDD1606270BD10B590F8F7
:1019000021100022022905D00421816380F82020C3
:10191000012010BD01680B6823F00E030B60016805
:101920000B6823F001030B6090F84030C46B012179
:1019300001FA03F3636080F8211080F8202010463C
:1019400010BD000010B590F821100024022903D02A
:101950000421816301243DE001680A6822F00E023F
:101960000A6001680A6822F001020A601A4A0168E6
:10197000914201D1012121E0174A1432914201D153
:1019800010211BE0144A2832914201D1891515E03B
:10199000114A3C32914201D189140FE00E4A503273
:1019A000914202D14FF4803108E00B4A64329142F7
:1019B00002D14FF4801101E04FF08071064A083ADD
:1019C0005160012180F82110002180F82010416B26
:1019D00001B18847204610BD080002402DE9F05FA4
:1019E000C16B0C6801680B68D0F840C0042202FA91
:1019F0000CF2494DDFF824A1494E4A4FDFF828B1D7
:101A0000DFF828E122422CD05A072AD50A6892062C
:101A100003D40A6822F004020A600168A94201D1D5
:101A2000042219E0514501D1402215E0B14202D112
:101A30004FF4806210E0B94202D14FF480420BE0D3
:101A4000594502D14FF4802206E0714502D14FF48E
:101A5000800201E04FF080622F4908394A60C16A74
:101A60003BE04FF0020808FA0CF818EA040F4FF0B8
:101A700000094FF0010235D05FEA837832D50B6858
:101A80009B0605D40B6823F00A030B6080F8212025
:101A90000168A94201D1022219E0514501D1202259
:101AA00015E0B14202D14FF4007210E0B94202D108
:101AB0004FF400520BE0594502D14FF4003206E0DA
:101AC000714502D14FF4001201E04FF0007212494B
:101AD00008394A6080F82090816A00291AD0BDE850
:101AE000F05F0847082505FA0CF5254212D01B07C0
:101AF00010D50B6823F00E030B6090F84010C36BF9
:101B000002FA01F15960826380F8212080F8209068
:101B1000016BE2E7BDE8F09F080002401C000240B4
:101B20003000024044000240580002406C00024075
:101B300030B528B308C8134914221944B1FBF2F197
:101B40008900C16310498163022141771A6843F615
:101B5000F0718A43D0E900142143D0E902452C43B7
:101B6000214304692143446921438469214311438A
:101B7000196000214163012242770177084630BD98
:101B8000012030BDF8FFFDBF0000024070B50446E3
:101B900090F82000002501280CD0012084F82000B6
:101BA00094F821600020012E06D084F82000022540
:101BB000284670BD022070BD022684F82160A06313
:101BC0002068066826F0010606602046FFF7A4FCA0
:101BD000E06A00282068016802D041F00E0106E0AA
:101BE00021F0040101602068016841F00A010160F0
:101BF0002068016841F001010160D9E770B5044631
:101C000000F008F90546601C02D00448007804443E
:101C100000F000F9401BA042FAD370BD5000002034
:101C20002DE9F84FDFF8B8910024A9F1040B234601
:101C30000F2709F1040AABF1040EC9E00125A54004
:101C40002A40AA427DD1674ED1F804C0ACEB060809
:101C5000B44532D014DCBCF1030F3AD009DCBCF13E
:101C6000000F2AD0BCF1010F1CD0BCF1020F31D102
:101C70001DE0BCF1110F17D0BCF1120F2AD119E0F1
:101C8000B8F5881F19D006DCB8F5803F15D0B8F537
:101C9000801F1FD111E0B8F5001F0ED0B8F5041F4A
:101CA00018D10AE0CB6815E0CB681B1D12E0CB68A9
:101CB00008330FE0CB680C330CE08B682BB1012BA1
:101CC0004FF0080303D0456104E0042302E00561FE
:101CD00000E00023FF2A01D8064601E000F10406D7
:101CE0004FEA840501D9A5F12005D6F8008007FA4E
:101CF00005FC28EA0C0803FA05F548EA0508C6F8C9
:101D000000804D68ED0062D5374DAE6946F00106A2
:101D1000AE61AD6924F0030605F001050095334D71
:101D200006EB050CDCF80850A607360F07FA06F894
:101D300025EA0805DFF8B880404503D14FF00008D8
:101D400017E044E0DFF8AC80404502D14FF00108D5
:101D50000FE0DFF8A480404502D14FF0020808E010
:101D6000DFF89880404502D14FF0030801E04FF0C2
:101D7000040808FA06F848EA0508CCF808804D6817
:101D8000D9F80060ED024D4601D5164300E09643B8
:101D90002E604D68DAF80060AD02554601D5164355
:101DA00000E096432E604D68DBF80060AD035D46B1
:101DB00001D5164300E096432E604D68DEF80060C2
:101DC000ED03754601D5164300E096432E60641C72
:101DD0000D682A46E5407FF431AFBDE8F88F00007A
:101DE00008040140000011100010024000000140F2
:101DF00000080140000C01400010014000140140A7
:101E00008068084000D0012070470AB10161704726
:101E10000904FBE70148806870470000500000207B
:101E200070B5040025D094F83D00002520B984F851
:101E30003C50204600F07EFA242084F83D002068C3
:101E4000016821F0010101602068016841F400414E
:101E500001602068016821F40041016000F0CCFBC2
:101E60004D4A6168914201D84C4900E04C49884292
:101E700001D2012070BD4B492368B0FBF1F15E68CF
:101E800026F03F060E435E606368934206D94FF426
:101E9000967359434FF47A73B1FBF3F12368491CED
:101EA0001E6A26F03F06314319626168914210D8DC
:101EB0004900401EB0FBF1F2521CC2F30B02042A8F
:101EC00001D2042022E0B0FBF1F0401CC0F30B0073
:101ED0001CE0A268F2B301EBC10303EB0116431E41
:101EE000B3FBF6F35B1C43F480431B0549D092B36C
:101EF00001EBC10202EB0111401EB0FBF1F0401CEE
:101F0000C0F30B0040F4804040F400402168CA69EF
:101F10004CF6FF739A431043C861D4E9071001439C
:101F20002068026822F0C00211430160D4E9030175
:101F300001432068826848F2FF339A43114381606D
:101F4000D4E9050108432168CA6822F0FF02104362
:101F5000C86001E00EE016E02068016841F0010170
:101F600001602564202084F83D00256384F83E50FC
:101F7000002070BD01EB4106431EB3FBF6F35B1C72
:101F8000B3E70120C2E701EB4101401EB0FBF1F0D5
:101F9000401CC0F30B00B7E7A086010080841E0040
:101FA00000093D0040420F002DE9FF4F83B000259E
:101FB000DDE910799A4693460446DDF8488000959D
:101FC000FFF728FF064694F83D0020287CD119230E
:101FD000012288492046009601F08CFA0028F5D1AC
:101FE00094F83C0001286FD0012084F83C00206860
:101FF0000168C90703D1016841F00101016020684F
:10200000016821F400610160222084F83D00402035
:1020100084F83E0025646762A4F82A90608D2085CC
:102020007548E062CDE9008653465A462046049939
:1020300001F062F900287CD1208DDFF8C0912027C3
:1020400068B1012814D00228206801681ED041F42C
:10205000806101602068416980690090BCE020686F
:10206000416981690091016841F400710160B3E048
:102070002068016821F48061016072B620684169BE
:1020800081690091016841F400710AE041F4006146
:10209000016072B62068416981690091016821F48C
:1020A0008061016062B697E0032865D801280CD0F2
:1020B000022843464FF000024946204600960BD0C6
:1020C00001F018FAA8BB0CE091E0324641462046E8
:1020D00001F0B6FA68BB72E001F00CFA48BB72B6C8
:1020E00033E02068016821F48061016072B62068E5
:1020F0000069616A0870606A401C6062208D401E41
:102100002085608D401E60853D4846F2A81100681C
:10211000B0FBF1F0C0EBC00000EB80000090401E6F
:10212000009007D020684069C04340070DD5009853
:10213000F5E727E044F8305F6773A573206940F046
:102140002000206162B625731CE02068016841F41C
:102150000071016020680069616A0870606A401C53
:102160006062218D491E2185618D491E618562B69F
:1021700021680969017026E032464146204601F097
:102180005FFA18B1012007B0BDE8F08F2068006940
:10219000616A0870606A401C6062208D401E81B2D6
:1021A0002185608D401E608520684269D2435207B8
:1021B00012D4032903D1016821F4806101602068F1
:1021C0000069616A0870606A401C6062208D401E70
:1021D0002085608D401E6085208D00287FF464AFCF
:1021E00084F83D7084F83E5084F83C50CBE70220E0
:1021F000C9E70000020010000000FFFF040001001A
:102200005C0000202DE9FF4F83B09A46DDE911976D
:1022100093460446DDF84080FFF7FCFD054694F840
:102220003D0020287FD119230122404920460095F6
:1022300001F060F9002876D194F83C00012872D0B2
:10224000012084F83C0020680168C90703D10168B7
:1022500041F0010101602068016821F40061016022
:10226000212084F83D00402084F83E0000262664AA
:10227000C4F82480A4F82A90608D20852C48E06260
:10228000CDE9007553465A462046049901F0B2F84C
:1022900070B930E02A463946204601F009FA58B1B3
:1022A000206C042804D12068016841F400710160A9
:1022B000012007B0BDE8F08F606A216800780861EE
:1022C000606A401C6062218D491E89B22185628D41
:1022D000521E628522685369DB435B070BD469B1E8
:1022E00000781061606A401C6062208D401E20856D
:1022F000608D401E6085208D0028CBD12A4639464E
:10230000204601F0CBF80028CAD154F83D0B0168F3
:1023100041F400710160202004F81E09E677667719
:102320000020C6E7FFE70220C3E70000020010001C
:102330000000FFFF10B586B00021009101910291CD
:10234000039100680F4988421AD10F4CA06940F0F0
:102350000800A061A069694600F008000490C02050
:10236000009012200190032003900848FFF758FCCA
:10237000E06940F40010E061E06900F400100490AE
:1023800006B010BD0054004000100240000C014097
:102390000248816802781144816070475000002033
:1023A000074810B5016841F010010160032000F0FA
:1023B0007BF80F2000F006F800F024F8002010BD94
:1023C0000020024070B50D4D04464FF47A71287814
:1023D000B1FBF0F00A490968B1FBF0F000F0E2FA55
:1023E00048B9102C07D200222146501E00F03CF8BC
:1023F00000206C6070BD012070BD00005000002006
:102400005C0000200F4808B5816941F0010181613D
:10241000816901F001010091C16941F08051C16100
:10242000C069002200F0805000900F21901E00F043
:102430001BF80548416821F0E06141F000714160FE
:1024400008BD00000010024000000140002809DB28
:1024500000F01F02012191404009800000F1E020BE
:10246000C0F8001170470000F0B40E4B1B680C461A
:10247000C3F30223C3F10705042D00D90425191D58
:10248000072901D2002300E0DB1E012606FA05F130
:10249000491E214099409E40761E16403143F0BCB3
:1024A00002F05EB90CED00E0064900F00702086892
:1024B0004FF6FF03184040EA0220034A1043086029
:1024C000704700000CED00E00000FA052DE9F04730
:1024D0000F46050061D0434E306800F00700B84257
:1024E00009D2306820F0070038433060306800F0CF
:1024F0000700B84251D128683B4C810712D54007EC
:1025000003D5606840F4E06060602878000703D578
:10251000606840F4605060606068A96820F0F00076
:10252000084360602878C00728D06868012810D068
:102530002168022810D0890700292EDA616821F06D
:10254000030101436160FFF765FC804641F2883971
:102550000DE021688903EFE78901EDE7FFF75AFCF9
:10256000A0EB0801494502D90320BDE8F087606867
:10257000696800F00C00B0EB810FEFD1306800F01B
:102580000700B8420BD9306820F0070038433060AC
:10259000306800F00700B84201D00120E5E7287854
:1025A000400705D56068E96820F4E0600843606092
:1025B0002878000706D56068296920F4605040EA51
:1025C000C100606000F038F86168084AC1F3031187
:1025D000515CC8400649086006480068FFF7F2FEF3
:1025E0000020C2E70020024000100240227C0008C8
:1025F0005C00002054000020044805490068496838
:10260000044AC1F30221515CC84070475C000020BD
:1026100000100240327C00080448054900684968FF
:10262000044AC1F3C221515CC84070475C000020DD
:1026300000100240327C00080E4A51680E4801F03A
:102640000C03042B11D0082B0FD10C48C1F383438A
:10265000C903C05C0AD55168084AC1F34041921EC3
:10266000515C054A5043B0FBF1F0704704494843C0
:10267000704700000010024000127A00127C00082F
:1026800000093D002DE9F84F040070D02078C04DBE
:10269000C00749D06868C0F38100012807D0686886
:1026A000C0F38100022809D16868C00306D52868F4
:1026B000800339D560680028E7D035E06068B0F560
:1026C000803F0BD010B1B0F5A02F11D0286820F4B6
:1026D00080302860286820F4802002E0286840F4D8
:1026E00080302860606890B1FFF794FB06460AE0EE
:1026F000286840F480202860F0E700BFFFF78AFBDD
:10270000801B642873D828688003F7D50CE0FFF796
:1027100081FB064605E000BFFFF77CFB801B6428B9
:10272000F0D828688003F7D420789A4E80074FF0BD
:1027300001094FF0000839D5686810F00C0F07D078
:102740006868C0F38100022809D16868C00306D414
:102750002868800714D52069012808D110E0206975
:10276000B0B1C6F80090FFF755FB074605E00AE157
:10277000FFF750FBC01B0228C4D828688007F7D594
:102780002868616920F0F80040EAC10028600DE087
:10279000C6F80080FFF73EFB074604E0FFF73AFB70
:1027A000C01B022823D828688007F7D420780007A8
:1027B0002CD57948A169D9B1C0F80090FFF72AFB60
:1027C000074604E0FFF726FBC01B02280FD8686A03
:1027D0008007F7D571484FF4FA510068B0FBF1F06B
:1027E000009000BF0098411E0091FAD20EE080E0F8
:1027F000C0F80080FFF70EFB074604E0FFF70AFB76
:10280000C01B022875D8686A8007F7D42078400773
:1028100060D5E8690027C00008D4E86940F080501E
:10282000E861E869012700F0805000905C48016889
:10283000C90513D40168834641F480710160FFF734
:10284000E9FA824606E000BFFFF7E4FAA0EB0A00CF
:1028500064284ED8DBF80000C005F5D5E0680128F3
:102860000AD008B1052813D0286A20F00100286298
:10287000286A20F0040002E0286A40F00100286283
:10288000E06841F2883B98B1FFF7C4FA82460BE05A
:10289000286A40F004002862EEE700BFFFF7BAFAAA
:1028A000A0EB0A0159455AD8286A8007F6D50CE0F2
:1028B000FFF7B0FA824605E0FFF7ACFAA0EB0A0199
:1028C00059454CD8286A8007F6D41FB1E86920F032
:1028D0008050E861E06988B36968C1F38101022929
:1028E00044D00228C6F8608004D0FFF793FA04466B
:1028F00038E034E0FFF78EFA074604E0FFF78AFA83
:10290000C01B02282BD828688001F7D4206AB0F5B4
:10291000803F05D16868A16820F4003008436860F2
:10292000D4E908010843696821F474110843686018
:10293000C6F86090FFF76EFA044606E025E000BF97
:10294000FFF768FA001B022809D828688001F7D52C
:102950001BE000BFFFF75EFA001B022802D903202C
:10296000BDE8F88F28688001F4D40EE00128F7D084
:102970006868226A00F48031914204D1616A00F4EF
:102980007010884201D00120EAE70020E8E700004B
:102990000010024000004242800442425C000020DD
:1029A0000070004010B5401EB0F1807F01D30120BF
:1029B00010BD4FF0E02460610F21601701F0D0FEE0
:1029C0000020A06107202061002010BD10B590F804
:1029D0003C20012A22D0012280F83C20CA688C6861
:1029E00022F4407222434C6822F4806222430C6835
:1029F00022F4006222430C6922F4805222434C6983
:102A000022F400522243C969002322F480420A437F
:102A100001684A6480F83C30002010BD022010BDDF
:102A200070B590F83C20012A26D0012480F83C4063
:102A3000022280F83D2003685A689D6822F07006E3
:102A40000A6832435A600D4B02689A4208D0B2F1CC
:102A5000804F05D00A4B9A4202D00A4B9A4204D1C9
:102A6000496825F080031943916080F83D400021BA
:102A700080F83C10084670BD022070BD002C01405B
:102A8000000400400008004010B5040003D094F892
:102A90003D0010B107E0012010BD002084F83C008B
:102AA000204600F01FF8022084F83D00211D206818
:102AB00001F088FB012084F8460084F83E0084F889
:102AC0003F0084F8400084F8410084F8420084F814
:102AD000430084F8440084F8450084F83D00002059
:102AE00010BD000008B500680649884208D10648B4
:102AF000816941F400618161806900F400600090A7
:102B000008BD0000002C01400010024070B50446D2
:102B100090F83C000025012817D0012684F83C607D
:102B2000022084F83D002068826822F0770222F4B7
:102B30007F4282600868502838D00DDC20284FD0B2
:102B400005DC90B3102811D14AE0022070BD302876
:102B500046D040280AD13BE060282FD070280DD005
:102B6000B0F5805F03D0B0F5005F12D0012584F886
:102B70003D60002084F83C00284670BDCB68D1E958
:102B80000121206801F067FB2068816841F077012E
:102B900009E0CB68D1E90121206801F05CFB2068E5
:102BA000816841F480418160E1E719E0CA684968C1
:102BB000206801F005FC5021206806E0CA684968D9
:102BC000206801F00EFC6021206801F04EFBCEE78A
:102BD000CA684968206801F0F3FB40212068F4E7E7
:102BE000226801461046F0E700B585B0002100914B
:102BF00001910291039100680B49884212D10B4860
:102C0000816941F0040181618069694600F0040036
:102C100004904FF4807000900220019003900448CB
:102C2000FEF7FEFF05B000BD002C01400010024081
:102C30000008014070B5044690F83C0000260D469F
:102C400001280FD0012084F83C006AB1042A1DD06D
:102C5000082A2FD00C2A3FD00126002084F83C00FF
:102C6000304670BD022070BD206801F007FB20686F
:102C7000816941F0080181612068816921F00401C6
:102C80008161206881692A69114311E0206801F09F
:102C90001DFB2068816941F40061816120688169C0
:102CA00021F480618161206881692A6941EA0221F9
:102CB0008161D2E7206801F035FB2068C16941F0ED
:102CC0000801C1612068C16921F00401C161206867
:102CD000C1692A69114311E0206801F04FFB2068A7
:102CE000C16941F40061C1612068C16921F480615A
:102CF000C1612068C1692A6941EA0221C161ACE76A
:102D000010B5040003D094F83D0010B107E0012095
:102D100010BD002084F83C00204600F01EF8022080
:102D200084F83D00211D206801F04CFA012084F850
:102D3000460084F83E0084F83F0084F8400084F8A0
:102D4000410084F8420084F8430084F8440084F889
:102D5000450084F83D00002010BD704710B50446C2
:102D6000022249B104290ED0082913D094F8410059
:102D7000012816D0012010BD94F83E000128F9D199
:102D800084F83E200FE094F83F000128F2D184F847
:102D90003F2008E094F840000128EBD184F840205F
:102DA00001E084F841200122206801F047FA0F4930
:102DB0002068884203D1426C42F400424264206899
:102DC000884208D0B0F1804F05D00949884202D02E
:102DD0000849884204D1816801F00701062903D01F
:102DE000016841F001010160002010BD002C01408C
:102DF000000400400008004070477047F8B50168C3
:102E000004460868CA684B6910F00F0F4FF00005C0
:102E100059D003F0010602F49077374365D0C1071B
:102E200005D0D10503D5616C41F001016164410712
:102E300005D5D90703D0616C41F0020161648107B7
:102E400005D5D90703D0616C41F004016164010725
:102E500007D502F02001314303D0616C41F0080135
:102E60006164616C00293AD0800604D5900602D5D1
:102E7000204601F050FB20684069616CC0F380106F
:102E8000090700D460B3204601F010FB20684069B8
:102E9000400621D52068143050E8001F21F0400181
:102EA00040E80012002AF5D1E06BA8B16D494163FA
:102EB000E06BFEF747FD002811D0E06B416B01B0DD
:102EC000BDE8F040084783060FD593060DD5204690
:102ED000BDE8F84001F01FBB2046FFF78EFFF8BDAC
:102EE0002046FFF78AFF6564F8BD266B2023012E7C
:102EF0007CD1C6067AD5D60678D508684868009091
:102F000048694FF00206400640D5E16B086840680A
:102F10000004000CE8D0A28D8242E5D9E0858869E2
:102F200020282DD020680C3050E8001F21F480713B
:102F300040E80012002AF5D12068143050E8001F44
:102F400021F0010140E80012002AF5D12068143078
:102F500050E8001F21F0400140E80012002AF5D19E
:102F600084F84230256320680C3050E8001F21F0BF
:102F7000100140E80012002AF5D1E06BFEF7BEFC1C
:102F80006663A08DE18D401A81B22AE0A08DE18DAB
:102F9000401A81B2E08D0028A6D00029A4D0226872
:102FA0000C3252E8000F20F4907042E80007002F26
:102FB000F5D12068143050E8002F22F0010240E8DB
:102FC0000027002FF5D184F84230256320680C30AB
:102FD00050E8002F22F0100240E80023002BF5D12A
:102FE00066632046FFF708FFF8BDFFE705062BD50F
:102FF000150629D594F841002128F5D1A068B0F52F
:10300000805F01D12069B0B1206A411C2162216832
:1030100000784860E08C401E0004000CE084E3D19E
:103020002068C16821F08001C1602068C16841F05A
:103030004001C160D8E7206A0088C0F308004860FA
:10304000206A801C2062E5E74006CDD55006CBD52E
:10305000CA68204622F04002CA6084F8413000F07D
:1030600031F9C1E70744000870B5040004D094F8B2
:103070004100002510B106E0012070BD84F84050E9
:10308000204600F023F8242084F841002068C1681D
:1030900021F40051C160204601F09EFA20680169C8
:1030A00021F4904101612068416921F02A014161C8
:1030B0002068C16841F40051C1606564202084F833
:1030C000410084F842006563002070BDF0B585B012
:1030D00000240646009401940294039400682C494D
:1030E000884253D12B48C16941F40031C161C169A3
:1030F00001F400310491816941F00401816180692A
:10310000254D00F00400049004200090022001905E
:103110000320039069462846FEF782FD0820CDE98A
:103120000004694628460294FEF77AFD1C4D1B48B0
:103130008027C5E90004C5E9024720202C61C5E9C4
:1031400005402846EC61FEF7F3FC08B1FEF7FAF9FA
:10315000F5636E621148134D143001C5102091C5FE
:10316000400245F810496C61C5E906400D48FEF77C
:10317000DFFC08B1FEF7E6F9B56300220521262041
:103180006E62FFF771F92620FFF760F905B0F0BD18
:103190000044004000100240000801406C00024062
:1031A00088030020CC03002070472DE9F843044633
:1031B00090F84100984616460D46202802D002207D
:1031C000BDE8F88385B17EB100206064212084F8D9
:1031D0004100FEF71FFEA6848146E684A0682027F2
:1031E000B0F5805F02D003E00120E9E7206910B16B
:1031F0002E4600250EE000260CE08021204601F03E
:1032000047FAA8B9C6B116F8010B21684860E08CEE
:10321000401EE084E08C4B464FF00002CDF8008069
:103220000028EAD14FF04001204601F031FA40B1C8
:1032300084F841700320C3E735F8020BC0F308009F
:10324000E3E784F841700020BAE7000070B5044657
:1032500090F84100202801D0022070BD49B342B34C
:103260002162A284E28400206064212384F841303A
:10327000A56B114BAB62A56B104BEB62A56B104BB2
:103280002B63A36B5863256813462A1DA06BFEF7BA
:103290007DFC21686FF0400008602068143050E821
:1032A000001F41F0800140E80012002AF5D1002003
:1032B00070BD012070BD000061440008A3440008F7
:1032C0001744000870477047FEE701684A69D24317
:1032D00052050FD46FF480624A61002140F8301F1C
:1032E000202242738173026942F004020261017379
:1032F00001207047002070472DE9F84F0446006810
:1033000089460B9D01689846174641F4806101602B
:103310002068016841F48071016000954FF0011B45
:103320000022594620460A9B00F0E4F84FF4007A48
:1033300040B120680068C00501D5C4F840A0032052
:10334000BDE8F88F216809F0FE0008612B46284986
:1033500020460A9A00F016F9F0BB2068416980699E
:1033600000902A4620460A9900F0A2F940B1206C4C
:1033700004283AD12068016841F40071016034E00A
:10338000FEB2B8F1010F09D02168380A08612A4657
:1033900020460A9900F08CF90028E8D120680661DF
:1033A0002A4620460A9900F083F90028DFD12068D8
:1033B000016841F480710160009500225946204661
:1033C0000A9B00F097F80028B3D1216809F0FF00AC
:1033D00040F00100086100E007E02B460449204668
:1033E0000A9A00F0CFF80028AAD00120A8E7000030
:1033F000020001002DE9F843044600680D46DDE9AE
:10340000089701689846164641F4807101604B4662
:1034100000224FF001112046009700F06BF848B1F0
:1034200020680068C00502D54FF4007020640320B6
:10343000BDE8F883216805F0FE0008613B464A4676
:103440001549204600F09EF888B9206841698069D6
:1034500000903A464946204600F02AF948B1206CCF
:10346000042804D12068016841F400710160012042
:10347000DEE7F5B2B8F1010F09D02168300A086122
:103480003A464946204600F013F90028E7D1206863
:1034900005610020CCE700000200010070B516466F
:1034A0000D4604461EE02046FFF70FFF08B101203D
:1034B00070BD681C16D0FEF7ADFC801BA84200D87A
:1034C00085B920684069C04340070BD5002044F807
:1034D000300F20216173A073216941F02001216127
:1034E0002073E4E720684069C0434007DBD4002034
:1034F00070BD00002DE9F047984617460D4604467A
:10350000C1F30746DDF820902AE000BFB8F1FF3F85
:1035100026D0FEF77FFCA0EB0901414502D8B8F1A7
:10352000000F1DD12068012E16D0806925EA000009
:103530000004000C12D00020B84211D1002044F841
:10354000300F20216173A073216941F020012161B6
:1035500020730120BDE8F0874069E7E70120EBE731
:103560002068012E0AD0806925EA00000004000CC2
:1035700006D00020B842C9D00020EBE74069F3E74D
:103580000120F7E72DE9F047984616460D46044618
:103590004FF000094FF0200AC1F3074723E02068ED
:1035A0004069C043400515D42068016841F40071AA
:1035B000016021686FF480604861C4F8309084F83D
:1035C0003DA084F83E90216C41F00401216484F810
:1035D0003C9021E0701C06D0FEF71CFCA0EB08001C
:1035E000B04203D816B1012F1FD021E02068012F6F
:1035F00015D0806925EA00000004000C18D000BF37
:1036000044F8309F84F80DA084F80E90216941F0B1
:103610002001216184F80C900120BDE8F087406909
:1036200025EA00000004000CEAD12068406901E0AE
:103630002068806925EA00000004000CAFD1ECE7A7
:103640002DE9F041002590460E460446202728E04B
:103650004069C043C0060CD454F8301B6FF0100012
:10366000486144F810596777A577206A206225776A
:1036700014E0FEF7CFFBA0EB0800B04200D886B9FB
:1036800020684069C04340060BD544F8305F67733B
:10369000A573206940F02000206125730120BDE85A
:1036A000F08120684169C9434906D1D40020F6E77A
:1036B00070B516460D4604461EE02046FFF705FE8F
:1036C00008B1012070BD681C16D0FEF7A3FB801B5B
:1036D000A84200D885B920684069C04300060BD5D0
:1036E000002044F8300F20216173A073216941F05C
:1036F000200121612073E4E720684069C04300068F
:10370000DBD4002070BD2DE9FF4F044683B0006973
:1037100001900146104604F03FF9014660610698A9
:1037200003F07AFFE16803F05DFDD4F824A0814640
:103730005146069803F070FFE6698346314604F06F
:103740002BF9256A294604F027F9216803F04AFD80
:10375000069903F061FFA16903F044FD80465846D5
:10376000314604F087F807465846294604F082F8A7
:1037700083466068069903F04FFF514603F032FD1F
:1037800082464046A16803F02DFD064601464046AC
:1037900003F0E4FD05463146584603F0DFFD0646DA
:1037A0004946049804F0F8F800902846009903F080
:1037B00033FF494603F016FDE0608146304600992C
:1037C00003F02AFF019903F00DFD206128464146D0
:1037D00003F022FF414604F04DF8A0612846394627
:1037E00003F01AFF394604F045F8E06130464146DF
:1037F00003F012FF594604F03DF820623046394686
:1038000003F00AFF514604F035F8606207B04846FD
:10381000BDE8F08F2DE9F04186B08046012504A86F
:10382000CDE9000564242B467522D0210294404640
:10383000FEF7BAFB9DF81000682803D0012006B0FF
:10384000BDE8F081002703AE8DF80C700096CDE93D
:10385000015401236B22D0214046FEF7D3FC072000
:103860008DF80C000096CDE9015401231922D021D6
:103870004046FEF7C7FC8DF80C700096CDE9015468
:1038800001231C22D0214046FEF7BCFC8DF80C70B1
:103890000096CDE9015401231B22D0214046FEF7BA
:1038A000B1FC02208DF80C000096CDE901540123F3
:1038B0003722D0214046FEF7A5FC70208DF80C0081
:1038C0000096CDE90154012300221E214046FEF757
:1038D00099FC20208DF80C000096CDE901540123BD
:1038E0001A461E214046FEF78DFC8DF80C7000969E
:1038F000CDE90154012302221E214046FEF782FC3D
:1039000000209CE72DE9F34FF24DDFF8CCB38FB0E8
:1039100028780C464FF064094FF00E0A38B30027A0
:103920003E460DF11008CDE9008A01234322D02143
:10393000CDF808900F98FEF737FBBDF81C0040BA91
:1039400000B203F009FE594603F008FD394603F0C2
:1039500049FC07460120FEF751F9761C642EE2DB94
:10396000DE49384603F0FAFCA8600020287004AA5B
:10397000CDE9002AC8460123CDF808903B22D0218A
:103980000F98FEF711FBBDF8100040BA00B220807E
:10399000BDF8121049BA0FB26780BDF8141049BAC9
:1039A0000EB2A68003F0D8FD6FF00D09494604F071
:1039B0009CF8A060384603F0CFFD494604F095F826
:1039C000E060304603F0C8FD494604F08EF82061FF
:1039D000BDF8160040BA00B203F0BEFDC04903F0C6
:1039E000BDFCC04903F0FEFBA062BDF8180040BA60
:1039F00000B2A082BDF81A1049BA0FB2E782BDF832
:103A00001C1049BA0EB2268303F0A6FD594603F0F6
:103A1000A5FCE061384603F09FFD594603F09EFC8B
:103A20002062304603F098FD594603F097FCA94602
:103A3000A96803F0B1FF606206210CAACDE900215C
:103A40000123CDF8088003221E210F98FEF7ACFA5F
:103A5000BDF8300040BAA4F84400BDF8320040BAC6
:103A6000A4F84800BDF8340040BAA4F84600D4E9F0
:103A7000030100F04FFF0A902069014603F0CCFDDE
:103A80000546E068014603F0C7FD294603F0AAFB9E
:103A900002F06AF90146A06880F0004000F03AFFA9
:103AA0000E90B4F9440003F057FD8F4D294603F002
:103AB00055FC8046B4F9460003F04EFD294603F05C
:103AC0004DFC0746B4F9480003F046FD294603F0D3
:103AD00045FC05460E9802F083F8294603F09CFD4C
:103AE00006460E9801F088F9414603F095FD3146EF
:103AF00003F078FB06460E9801F07EF982460A989C
:103B000002F06EF8294603F087FD514603F084FD6C
:103B100005460A9801F070F9394603F07DFD074625
:103B20000E9802F05DF882460A9802F059F8414674
:103B300003F072FD514603F06FFD394603F052FB6E
:103B4000294603F029FF314600F0E4FE03F01EFB96
:103B5000DFF898B1664B5A4603F030F903F054F899
:103B6000DFF890A10646504503D9634903F03AFBBC
:103B70000646DFF88881464504DD5F49304603F09C
:103B80000BFF0646FEF746F9D9F80C104D46401AD1
:103B900003F0FAFC5A4903F0E1FB07465948874213
:103BA00000DD0746FEF736F9E860606A20F0004164
:103BB000B1F17C5F01DC686806E0394603F02CFD5A
:103BC000696803F00FFB6860404503DD4A4903F074
:103BD000E3FE6860504503D9474903F003FB686082
:103BE0000A9803F0D3FADFF80891DA465A464B46B2
:103BF00003F0E4F88B46804603F006F801463548AA
:103C00003B461030E269FFF77EFDE0620E9803F05C
:103C1000BDFA52464B4603F0D1F88146099102F0B5
:103C2000F3FF01462B483B463830226AFFF76BFD15
:103C3000206328483B4631466030626AFFF763FDE7
:103C40005946DFF8C4B0404600225B4603F0B6F8A0
:103C500080468A463946E06903F0DEFCA16B03F03A
:103C6000C1FA2A4903F0D8FC03F090FA42465346C1
:103C700002F0FCFF02F0C8FFA063484600225B464A
:103C8000099903F09BF8804689463946206A03F07B
:103C9000C3FCE16B03F0A6FA1C4903F0BDFC03F082
:103CA00075FA42464B4602F0E1FF02F0ADFFE063D9
:103CB0001748314603F0B0FC07461648696803F020
:103CC000ABFC394603F08EFA2064A665606311B040
:103CD000BDE8F08FE0000020000003430000C84270
:103CE0000000AA43B81E124200408844F8C1631A7B
:103CF000DCA54C40000034C30000B4430000344352
:103D000000007A44CDCC4C3EE27AA43F8FC2753F8E
:103D1000CDCC4C3D3333733F10B519488AB01749A9
:103D2000016009210024C0E901144FF48031C0E989
:103D300003414461047644768476C47604774477FC
:103D4000FDF7EDFC08B1FDF7FDFB012001940294A5
:103D5000CDE90640039405940494089000946946C4
:103D600007480994FDF764FC002211461420FEF771
:103D70007BFB1420FEF76AFB0AB010BD0064004014
:103D80009C010020F0B585B000242E4800940194D9
:103D900002940394816941F010018161816901F00D
:103DA00010010491816941F020018161816901F074
:103DB00020010491816941F004018161816901F070
:103DC00004010491816941F00801816180691E4EFE
:103DD00000F008004FF400550490002229463046B8
:103DE000FEF713F8194F002229113846FEF70DF897
:103DF000012291023846FEF708F80220CDE9024080
:103E000000950125694601953046FDF709FF4FF4FD
:103E1000C060CDE900050320CDE90240694638467F
:103E2000FDF7FEFEE8038DE8310069463846FDF7F0
:103E3000F7FE18208DE8310069460548FDF7F0FED1
:103E400005B0F0BD00100240001001400008014024
:103E5000000C01400C4810B50A4901600B49416053
:103E600000214FF480428160C0E903124161816109
:103E7000C1610162FDF7D4FF002801D0FDF762FBAC
:103E800010BD000000540040C4010020801A06004C
:103E900010B596B000240F941094119412941394BA
:103EA0001C2108A81494FCF723FB20216846FCF78A
:103EB0001FFB24482249016040F20771C0E9011448
:103EC00040F2E731C0E9031444618461FEF7DCFD90
:103ED00070BB4FF480500F900FA91A48FEF716FEE2
:103EE00030BB1848FEF70CFF10BB139413A91548FC
:103EF0001494FEF795FDD8B96020CDE908040A9422
:103F00000B940C940D94002208A90E480E94FEF711
:103F100091FE68B900944FF40050CDE9044002943A
:103F200001940394694607480794FEF74FFD08B1D2
:103F3000FDF708FB0348FEF757FE16B010BD000062
:103F4000002C01401802002010B50D4C0B480C212C
:103F500020600C4860600020A060E060C4E90401BB
:103F6000A061E0612046FFF77FF808B1FDF7EAFAAB
:103F70002068416941F08001416110BD004400406A
:103F80006002002040420F00FEE700F0F1FD01203A
:103F900001F0E2F8F9E7FEE72DE9F0411E460B4695
:103FA00004461146184603F0F7FC0546314603F077
:103FB00033FB616903F016F916496061884202DC3F
:103FC0001549884200D961612846E16803F0E4FCA4
:103FD000314603F0C3F91149E56000F0CBFF104909
:103FE00000F0DCFF01462561A06803F015FB0746E1
:103FF0006169606803F010FB06462946206803F0FB
:104000000BFB314603F0EEF83946BDE8F04103F012
:10401000E9B800000000FA430000FAC300007AC3C8
:1040200000007A43002141610161C16070470000D6
:1040300001250F4C01F05CFD2070A079A0B1217822
:10404000A07800F0BFFF6070607830B1606B94F9C9
:104050000110084460632078A07000F0D7FF20634F
:10406000012001F079F8E5E72078A070A571EBE771
:10407000000000200C4D0D4C0B49A1F1E400FFF7AE
:1040800041FC286B6061686BA061286AE061686A26
:104090002062236AE269A169606901F04BFD012099
:1040A00001F05AF8E8E70000A80200200000002014
:1040B0002DE9F0410A461B4907464869C9691A4C6F
:1040C00020F00040A04203DD184C4FF07E560DE07A
:1040D0001749884202DD174C174E07E017498842FE
:1040E00003DD174C4FF07D5600E0164E1146384662
:1040F00003F0C0FB0546214603F05AFB00D22546DB
:1041000084F000400446294603F052FB00D22546C5
:104110002946304603F080FA3946BDE8F04103F005
:1041200061B80000000000200000F0410000F042F3
:10413000000070410000B4426666663F0000A04087
:10414000000070429A99193F012001F005F8FBE741
:1041500010B5FEF71DF902F08BFB012803D0BDE876
:10416000104002F0B9B810BD30B58FB028216846B4
:10417000FCF7BEF914210AA8FCF7BAF901210804DA
:10418000CDE900100024029402250491CDE90750E6
:104190004FF4E01009906846FEF774FA60B90F20FA
:1041A000CDE90A056802CDE90C4002210AA80E9467
:1041B000FEF78CF9002801D0FDF7C4F90FB030BD2F
:1041C00070470000F0B50268194B1A4C1A4D4FF0B9
:1041D0008047984205D0B84203D0A04201D0A842FF
:1041E00003D122F070064A683243984205D0B842A3
:1041F00003D0A04201D0A84203D122F44074CA687F
:1042000022434C6922F08002224302608A68C26223
:104210000A688262984201D1096901630121416102
:104220000169C90703D0016921F001010161F0BDF5
:10423000002C0140000400400008004010B501F0CF
:104240001F030121046A99408C430462016A9A4069
:104250001143016210BD10B5846842EA032224F4C0
:104260007F440A432243826010BD826822F07002BC
:104270000A4342F0070181607047000030B5036ACD
:10428000026A22F0010202624268846924F0730526
:104290000C682C4323F002058B682B430A4DA8427F
:1042A0000BD123F00805CB6822F440722B434D69F3
:1042B00023F0040315438A692A43426084614968F4
:1042C0004163036230BD0000002C014030B5026A3A
:1042D000036A23F010030362436884690D6824F4C1
:1042E000E64444EA05248D6822F0200242EA0512E1
:1042F0000B4DA8420ED1CD6822F0800242EA051291
:104300004D6923F4406343EA85038D6922F040023E
:1043100043EA85034360846149688163026230BD7A
:10432000002C014030B5036A026A22F480720262F6
:104330004268C46923F4007324F073050C682C43AD
:104340008D6843EA05230C4DA8420ED1CD6823F4B5
:10435000006343EA05234D6922F4405242EA051204
:104360008D6923F4806342EA05124260C4614968A2
:10437000C163036230BD0000002C014030B5046A07
:10438000026A22F4805202624268C3690D6823F413
:10439000E64343EA05238D6824F4005444EA0534D7
:1043A000064DA84204D14D6922F4804242EA8512AA
:1043B0004260C36149680164046230BD002C014061
:1043C00010B5036A046A24F001040462846924F0CD
:1043D000F00444EA021423F00A020A4384610262F0
:1043E00010BD10B5036A046A24F0100404628469E5
:1043F00023F0A00324F4704444EA023243EA01119A
:104400008261016210BD10B5406A0021C185C1847E
:10441000FEF7F3FC10BD70B5446A2068406994F85B
:104420004110C0F3C0100025212904D118B1E58442
:10443000204600F062F82068406994F84210C0F30A
:104440008010222904D118B1E585204600F02EF80D
:10445000606C40F0100060642046FEF7CEFC70BD3A
:1044600010B50146406A09680968890616D400211A
:10447000C1840168143151E8002F22F0800241E824
:104480000023002BF5D101680C3151E8002F42F0D8
:10449000400241E80023002BF5D110BDFEF712FFCA
:1044A00010BD10B5406AFEF70EFF10BD01680C315B
:1044B00051E8002F22F4907241E80023002BF5D13F
:1044C0000168143151E8002F22F0010241E8002375
:1044D000002BF5D1016B012909D101680C3151E89C
:1044E000002F22F0100241E80023002BF5D12021FB
:1044F00080F8421000210163704701680C3151E8D7
:10450000002F22F0C00241E80023002BF5D120212A
:1045100080F84110704708B590F84210222901D068
:10452000022008BD82684FF480539A4201D101698C
:1045300021B1816A9A421BD04AB10AE00268816ABD
:104540005268C2F308020A80816A891C08E0026985
:1045500072B10268526802F07F020A70816A491CD7
:104560008162C18D491E0904090CC18503D01BE07D
:1045700002685268F1E70168CA6822F02002CA6046
:104580000168CA6822F48072CA6001684A6922F030
:1045900001024A61202180F8421000214163026B30
:1045A000012A03D0FEF700FE002008BD0163016868
:1045B0000C3151E8002F22F0100241E80023002BBB
:1045C000F5D101680A68D20602D50A6849680091E7
:1045D000818DFEF711FCE7E770B5044600680169BC
:1045E000E26821F44051114301612169A068084348
:1045F000616908432168CA6841F20C639A43024327
:10460000CA6020684169A26921F440711143416187
:104610001E492068884202D1FDF7FEFF01E0FDF748
:10462000EBFF00EBC00101EB001260686421800029
:10463000B2FBF0F3B3FBF1F36FF018067343B2FB78
:10464000F0F5B2FBF0F605EB8305322303EB05151D
:10465000B5FBF1F5B6FBF1F605F0F00505EB061537
:10466000B2FBF0F6B2FBF0F0B0FBF1F06FF0180225
:10467000504306EB800003EB0010B0FBF1F0216823
:1046800000F00F002844886070BD00000038014031
:104690002DE9F843984617460D460446089E24E047
:1046A000701C22D0FDF7B6FBA0EB0800B0421AD870
:1046B000CEB12068C168490717D5802D15D0402D8F
:1046C00013D00168C94309070FD401680025406869
:1046D00000902046FFF7EAFE0820606484F840500E
:1046E0000120BDE8F8830320FBE72068006835EA75
:1046F000000004D00020B842D2D00020F1E7012011
:10470000F9E700000148FEF779BB000060020020D5
:10471000FEE7490050EAC12018BF04204A0D18BF27
:1047200040F0010040F2FF72B2EB515F08BF40F071
:104730000200012808BF052070474100080218BF89
:1047400004200A0E18BF40F001004FF07F4232EA09
:10475000010108BF40F00200012808BF0520704792
:104760000907090E002804DB00F1E02080F800149E
:10477000704700F00F0000F1E02080F8141D704732
:10478000012103F0B2B902F02DBD0021084602F06C
:10479000E5BD6FF05E01080703F0A7B92DE9F04D04
:1047A0000D4614464FF07F41B1EB440F9EBF4FF0D2
:1047B000FF312960BDE8F08D4FF0004040EA042150
:1047C000C4F3C750783810F01F024A4B4FEA601C00
:1047D000C2F120067B44C4F3C750A0F178004FEA31
:1047E000601003EB800053F82C3008BFD0E901C6FD
:1047F00012D0D0F804C093402CFA06F73B438768E8
:104800000CFA02FC27FA06F8C06807FA02F2F04038
:104810004CEA080C42EA0006A3FB0132ACFB01C0E3
:10482000A6FB016101EB0C068E4234BF4FF0010C78
:104830004FF0000CC1186144BCF1000F02D081425E
:1048400002D903E0814201D2012000E0002010449F
:1048500000F120024FEA92188006CA0C40EA42306A
:104860004F03C5F8008002F077FE8246384602F01A
:104870008BFE6FF0120103F038F90746304602F064
:1048800083FE6FF0250103F030F983463946504628
:1048900002F0A8FC594602F0A5FC00F500666FF393
:1048A0000B065146304603F077F8394603F074F8AA
:1048B000594602F0DFFF104902F0AEFE07460F49ED
:1048C000304602F0A9FE394602F08CFC07460C493E
:1048D000304602F0A1FE394602F084FC14F0004F8D
:1048E00008BFBDE8F08DC8F1805180F0004029601C
:1048F000BDE8F08D64340000DB0FC92F22AAFD292A
:104900000000C92F30380A2801D20120704700204A
:10491000704700002DE9F0474FF0684202EB40037A
:104920000C460546B3F1654F3CBF02EB4102B2F1C4
:10493000654F7CD2C0F3C753C1F3C7529A1A1B2AE2
:1049400006DD10F0004F14BF76487748BDE8F087C9
:1049500012F11A0F17DA11F0004F06D010F0004FC5
:104960000CBF72487248BDE8F0872146284602F025
:10497000F5FC0446FFF7E1FE042808BFFFF709FF36
:104980002046BDE8F0874200B2EB410F25D910F078
:10499000004F19BF674F684E684F694E224685F039
:1049A000004415460A4680F0004110460A1A52009B
:1049B000B2F1807F40D248406249DFF88CA110F00C
:1049C000004F18D04FF03F48384602F0E5FF074649
:1049D0005146304602F0E0FF17E011F0004F04BFEF
:1049E00000263746E2D010F0004F19BF574F584EFF
:1049F000584F594EDAE74FF07C58384602F0F2FB38
:104A000007465146304602F0EDFB06464146284631
:104A100002F002FE214602F0E5FB824621464046B6
:104A200002F0FAFD294602F025FF514600E037E08A
:104A300002F094FC044604E02146284602F08EFC75
:104A40000446014602F0E8FD8046444902F0E4FDD8
:104A5000434902F0C7FB414602F0DEFD414902F046
:104A6000C1FB414602F0D8FD3F4902F0BBFB414685
:104A700002F0D2FD3D4902F0B5FB05464146204615
:104A800002F0CAFD294602F0C7FD314602F0AAFB3A
:104A9000214602F0A7FB3946BDE8F04702F0A2BB71
:104AA0004FF07F42B2EB400F28BFB2EB410F03D271
:104AB000BDE8F047FFF767BE40EA01035B0008BFAF
:104AC00044F0FF410AD0B2EB400F08BFB2EB410FF8
:104AD00006D125F0804024F0804105460C4629E7A8
:104AE000B2EB400F12BF5FEA410245F0FF4004F015
:104AF00000413FF41FAF4A0092EA40033FF51AAF6E
:104B0000002AACBF4FF09F464FF03E56314602F0B0
:104B100083FD05463146204602F07EFD04462846C8
:104B2000214607E7DB0FC9BFDB0FC93FDB0F494059
:104B3000DB0F49C00000C9BF22AAFDB90000C93F70
:104B400022AAFD390060ED3EC30ACE37000049C0FD
:104B500022AA7DBA0000494022AA7D3A2DAD65BD4A
:104B60008FB8D53D0FB511BE61C84C3EA8AAAABEEC
:104B70002DE9F84F874CD4F814B0D4F81CA0FCF7FA
:104B800095FC85482BF000450027854273DA002606
:104B90008249606A02F040FD02F0A2FC0090B4F984
:104BA0000C0002F0D9FCDFF8F88120F00041DFF8BA
:104BB000F491414518DDB4F90C0002F0CDFC7A4EB9
:104BC000314602F0CBFB314602F026FD0646009846
:104BD00002F0C2FC02464B4631467448FFF7DCF94E
:104BE000E771064627723AE07148854237DA207A43
:104BF00058B9606BE06301202072E0716B4818388F
:104C0000FFF710FA6948FFF70DFAE07938B3606BE7
:104C100002F0A2FC0646E06B02F09EFC01466348EF
:104C20004F464B4632461838FFF7B6F9614900F057
:104C3000A1F9DFF88491494600F0B0F906460098E2
:104C400002F08AFC02463B4631465848FFF7A4F979
:104C5000584900F08FF9494600F0A0F90646574838
:104C600000905848564F4FF07F59854204DD564812
:104C7000009056480CE086E05548854203DD5548D3
:104C80000090554804E0454503DA544800905448E4
:104C9000074654492AF00040884209DD52490098ED
:104CA00002F0BAFC00904946384602F0B5FC0746CF
:104CB0004FF00009B4F90C0002F04EFC20F0004166
:104CC00041450ADDB4F90C0002F046FC364902F019
:104CD00045FB464902F0A0FC81464946584602F091
:104CE0005BFE80465146384602F096FC0746414638
:104CF000009802F091FC394602F074FA4FF07E57AA
:104D00000146DFF8EC80384602F086FC81463146E9
:104D1000404602F081FC494602F03EFE8146B4F96D
:104D20000A0002F019FC204E20F00040B0421BDCCB
:104D3000DFF8C0801849284602F010FB394602F01F
:104D400099FD0546B4F90A0002F006FC314602F06E
:104D500005FB414602F060FC294602F05DFC01467D
:104D6000484602F03FFA81464846FCF793FB01466D
:104D7000E06AFFF79DF9E062FCF78CFBE062BDE8BA
:104D8000F84F01F007B8002001F004F8E762BDE831
:104D9000F88F000000000020000048420000B442EC
:104DA0000000A0406F12833A0000C8422403002094
:104DB000000070410000F0C10000F0410000C0415F
:104DC000CDCC4C3F0000A04100001042B81E853FF2
:104DD000000020416766E641AF47613F9A999941DB
:104DE00090C2753F000016433333333F000070C15B
:104DF0009A99993E000048432DE9F843044602463B
:104E00004F486946B0EB420F09D94FF0E640B0EB8E
:104E1000420F94BF00204FF0FF30009030E0494B2C
:104E200022F00040834271D94749204602F0F4FB4A
:104E300002F0F0FC804602F053FB00F0030000900B
:104E40004249404602F0E8FB05464149404602F02F
:104E5000E3FB06463F49404602F0DEFB07463E497B
:104E6000404602F0D9FB214602F004FD394602F02B
:104E700093FD314602F090FD294602F08DFD044677
:104E80002546009C002C45DB294614F0010F0846FE
:104E90001CD002F0C1FB0646304902F0BDFB304990
:104EA00002F0E8FC314602F0B7FB2E4902F09AF915
:104EB000314602F0B1FB294602F0AEFB294602F072
:104EC00091F914F0020F1CD0BDE8F88302F0A4FBA6
:104ED0000546254902F0A0FB244902F083F9294642
:104EE00002F09AFB224902F07DF9294602F094FB78
:104EF0004FF07E5102F076F914F0020F08BFBDE8C2
:104F0000F88380F00040BDE8F883FFE71046FFF724
:104F100045FCB4E76800B0F17F4F3CBF4FF07E50D6
:104F2000BDE8F88307D14FF00100FBF710FBBDE8A7
:104F3000F843FFF72ABC2846BDE8F843FFF720BC3A
:104F4000B61F927E490E494683F9223F1A61342CDE
:104F50000020A23300A0FD390000C93F336D4C3959
:104F6000DA82083CA0AA2ABEB93AB2BACA9F2A3D40
:104F7000DDFFFFBE70B50C46054602F0C4F900F037
:104F80007040B0F1005F07D024F00040C0F1FF4056
:104F9000C00F04BF204670BD284670BD70B50C46DA
:104FA000054602F0B0F900F07040B0F1004F07D0B4
:104FB00024F00040C0F1FF40C00F04BF204670BD88
:104FC000284670BD30B587B00D46044618220E49FC
:104FD0006846FBF753FA00224FEA0D0313F812005C
:104FE000A0420CD103EB42004078A84207D1062A28
:104FF00002DA012007B030BD4FF0FF30FAE7521C53
:105000000C2AEBDB0020F5E7F87B0008064810B51A
:10501000406B02F0A1FA054902F0A0F9BDE810408A
:10502000034902F0F9BA0000000000200000B44279
:105030000000B44308B5FDF7B3F9FFF795F8FEF7A4
:10504000A1FE3C48416941F00101416140690022F3
:1050500000F00100009005211020FDF705FA102056
:10506000FDF7F4F9002205211120FDF7FDF91120CB
:10507000FDF7ECF9FEF750FEFEF70AFFFEF7EAFE39
:10508000FEF762FF2C48FEF7C5FB6420FCF7B6FD77
:10509000294800215430FDF761FE284BA3F1180286
:1050A000A2F11801A1F11800FCF774FA40B1234BEA
:1050B000A3F11802A2F11801A1F11800FCF75AFAA5
:1050C0001D482838FCF7EEFB08B1FCF73BFA1A48FC
:1050D00002212838FCF79AFA002205211420FDF756
:1050E000C3F91420FDF7B2F913489C30FDF7BCFF5B
:1050F00000F040F8124A0021124800F069F8124C02
:105100000F4A002120642432104800F061F80C4A54
:105110006064483200210E4800F05AF8084AA06442
:105120006C3200210B4800F053F8E06400F034F8D2
:10513000FEE7000000100240C401002054030020DC
:10514000687B000849410008000000207540000805
:105150008B3F00083140000810B5EFF3058111B115
:105160006FF0050403E0002408B100F07BFF204647
:1051700010BD0000EFF3058010B16FF0050070471F
:105180000448016811B14FF0FF3070470121016000
:1051900000207047B000002010B5EFF3058010B17B
:1051A0006FF0050010BD08480168012902D04FF0DA
:1051B000FF3010BD054A002182F8141D0221016054
:1051C00000F0B8FF002010BDB00000200BE000E0B0
:1051D0002DE9FF414FEA01034FF00005EFF3058190
:1051E000039549BB40B38027182100244AB31668B1
:1051F00006B1344696691EB13146761E382E02D26B
:105200001679F60703D0002004B0BDE8F081566996
:1052100006B1B708D2F808C0BCF1000F0DD0D568B0
:105220005C2D18D312693AB136B18DE806103A46B2
:10523000214601F0F2FA03900DE0D6685EB91269DA
:105240004AB903AACDE90012BAB2214601F0B8FA70
:10525000012800D003950398D6E700002DE9F0411E
:10526000134C0F460546E6682068001D00F0C6FD99
:10527000681C07D137B12168BDE8F0410D48091D10
:1052800000F00CBE20683544B5424560216805D267
:10529000A06BBDE8F041091D00F0E8BD606B091D81
:1052A00000F0E4FDA06A854200D2A562BDE8F0816D
:1052B00060000020000900202DE9F041054600F0C3
:1052C000F9FD2D4CA068401CA06020682B4F10B148
:1052D000606930B32BE02560A068012827D1002643
:1052E00006EB860007EB800000F0B2FD761C382E3E
:1052F000F6D3234800F0ACFD2148143000F0A8FD9F
:105300001F48283000F0A4FD1D483C3000F0A0FDEF
:105310001B48503000F09CFD194860631430A063B6
:1053200005E02068E96AC06A884200D82560606AA2
:10533000401C60626864E86A2169884200D9206183
:1053400000EB800007EB8000291D00F0A7FD00F0B6
:10535000D1FD606900280CD02068E96AC06A8842E3
:1053600007D208494FF080500860BFF34F8FBFF35A
:105370006F8FBDE8F0810000600000205004002025
:10538000B008002004ED00E038B500F093FD104CAB
:105390002068C8B90F4800F05BFD0E48143000F0DB
:1053A00057FD0C48E060143020610A4B0020F03BB0
:1053B000009003F1500210210A2000F0A3FF2060AA
:1053C00010B105A100F018FEBDE8384000F092BD14
:1053D0009C000020040A0020546D7251000000005F
:1053E00030B4026C0B46002A0BD0C1681144C16076
:1053F0008468A14201D30168C16030BC1846FAF745
:10540000F8BF30BC70472DE9F041856B1746044664
:105410000026026C82B1C7B1E068FAF7EAFFE168E2
:10542000206C091AE1602268914202D2A168081A30
:10543000E060022F16D017E02068A8B9A06801F03C
:105440008FFA06460020A0600EE06068FAF7D1FFF0
:10545000216C606808446060A168884204D32068B9
:10546000606001E005B16D1E6D1CA5633046BDE8AE
:10547000F08110B5044690F8590058B101280CD0BD
:1054800002280FD0502080F31188BFF34F8FBFF355
:105490006F8FFEE7206B00F041FD2046BDE8104015
:1054A00000F03CBD10BD000010484FF440614207C1
:1054B00006D0C01D0D4920F00700411AC1F540611A
:1054C0000B4A00230144C2E900030839183A21F0CD
:1054D000070111604B600B600B1AC0E90013936069
:1054E0004FF000405360506170470000E41000200E
:1054F000CC000020144E154CA6F29C474FF080586B
:10550000DFF84C9012E000BF00F0D4FCF068C568F2
:10551000281D00F073FCA068401EA0606068401E5B
:10552000606000F0E7FC2846FFF7A3FF60680028F2
:10553000EAD138680128F9D9C9F80080BFF34F8F44
:10554000BFF36F8FF2E70000EC080020600000203E
:1055500004ED00E070B51D46049C51B1C4F8002074
:10556000C4E90F010121204600F000FF84F84C50EF
:1055700070BD2460F4E700002DE9F05F8846DDE9A6
:105580000B941546834691009A460A9EA522206BED
:10559000FAF7A6FF6FF00301206B01EB85010844C9
:1055A00020F00707780707D0502080F31188BFF359
:1055B0004F8FBFF36F8FFEE70025B8F1000F0FD0BC
:1055C0005FF00000221818F8001082F8341018F864
:1055D000001011B1401C1028F4D384F8435001E0AE
:1055E00084F83450382E00D33726E662C4E91365B8
:1055F000201D00F038FC04F1180000F034FC246198
:10560000C6F138006462A061656584F8585052465E
:105610005946384600F05AFA2060B9F1000F01D01F
:10562000C9F80040BDE8F09F30B5114900E01146CF
:105630000A688242FBD34B685C18844203D14068FD
:1056400018444860084643681C18944209D1084C25
:10565000183C2468A24209D052681A4442600A6881
:1056600012680260814200D0086030BD0460F9E732
:10567000CC00002070B5002441600B4D00619142C8
:1056800006D8D11A8269914206D2011D286907E025
:105690009A4203D2994201D3012403E0011DE86834
:1056A00000F0E4FB204670BD9C00002010B50446CD
:1056B00000F000FCA06B28B15FF0000400F01AFCC1
:1056C000204610BD0124F9E730B589B03C4D6EE0AD
:1056D0000498002806DADDE90601059A9047049847
:1056E000002864DB069C606910B1201D00F086FB79
:1056F00003A800F0D7F8024604980A2857D2DFE83A
:1057000000F00505052D334A05052D3394F82800D2
:1057100040F0010084F828000599A069059B014428
:105720002046FFF7A7FF68B3216A2046884794F810
:10573000280040073BD5002000900598A169002370
:1057400042181946204601F015FAD8B9502080F3C6
:105750001188BFF34F8FBFF36F8FFEE714F8280F48
:1057600020F00100207022E094F8280040F00100B1
:1057700084F828000598A06128B1811813462046B6
:10578000FFF778FF13E0502080F31188BFF34F8FAD
:10579000BFF36F8FFEE794F82800810703D42046FB
:1057A00000F0BCFB03E020F0010084F82800002298
:1057B00004A9286800F02EFF002889D109B030BD67
:1057C0009C0000202DE9FC410F46054600F0F6FC48
:1057D00001A800F067F80446019818B101F038F903
:1057E000BDE8FC81254EAFB130690068D0B3002719
:1057F000291B3A46306800F013FC01F029F9002813
:10580000EED11F494FF080500860BFF34F8FBFF3B8
:105810006F8FE5E7A542EBD801F01AF9F06827464B
:10582000C068C468201D00F0E9FA94F82800410718
:1058300019D5A0692B4641193A462046FFF71AFFB1
:10584000A8B100200346014600902A46204601F0F8
:1058500091F960B9502080F31188BFF34F8FBFF3E7
:105860006F8FFEE707E020F0010084F82800216A2E
:1058700020468847B4E70127BAE700009C000020D3
:1058800004ED00E00648416B096829B1416BC96825
:10589000C9684968816270474FF0FF31FAE700003C
:1058A0006000002070B5054600F0F0FF064E04468B
:1058B000B068844203D200F009F8012000E0002023
:1058C00028602046B46070BD9C000020F8B5194DDA
:1058D00020E0C068C4680668201D00F08FFA216AC5
:1058E0002046884794F82800400713D5A069304423
:1058F000B04206D924616060211DE86800F0B6FA64
:1059000008E000200346014600903246204601F0A0
:1059100031F938B1E86801680029DAD12969C5E9A7
:105920000310F8BD502080F31188BFF34F8FBFF3F1
:105930006F8FFEE79C00002008484068401C4FF035
:10594000500080F3118804D0BFF34F8FBFF36F8FE7
:10595000FEE7BFF34F8FBFF36F8FFEE7D400002049
:10596000074CE068016841B1C0680021D0F8000030
:10597000FFF728FFFFF7A8FEF3E701210020F7E774
:105980009C0000202DE9F041044600F093FA94F9C0
:10599000455004F1240609E0606A48B1304601F040
:1059A0001FF808B100F08CFB6D1E6DB2002DF3DC0A
:1059B0004FF0FF3684F8456000F09CFA00F07AFA68
:1059C00094F9445004F1100709E0206948B13846C1
:1059D00001F006F808B100F073FB6D1E6DB2002DEA
:1059E000F3DC84F84460BDE8F04100F083BA0000C5
:1059F0002DE9F0410546002700F0E0FB324E30680B
:105A000008B9FFF751FD706905424ED1C5B308359D
:105A100068070ED005F00700C0F1080005446807CC
:105A200007D0502080F31188BFF34F8FBFF36F8FE3
:105A3000FEE72DB37068854237D8234818300146F9
:105A40000C6801E020460C466168A94202D2216838
:105A50000029F7D131688C4227D00768216801609E
:105A600060680837411B10290FD96019420708D018
:105A7000502080F31188BFF34F8FBFF36F8FFEE785
:105A800013E041606560FFF7CFFD61687068401A00
:105A90007060B268904200D2B0607069014300202B
:105AA000C4E90001F068401CF06000F0D1FF780705
:105AB00007D0502080F31188BFF34F8FBFF36F8F53
:105AC000FEE73846BDE8F081B400002010B5031FA2
:105AD0004FF080741C601B1F21F001011960191F19
