:020000040800F2
:10000000C820002021020008FB190008ED17000895
:10001000ED1900086B040008411E000800000000F4
:10002000000000000000000000000000890100083E
:10003000D904000800000000CD010008791B000869
:100040003B0200083B0200083B0200083B0200089C
:100050003B0200083B0200083B0200083B0200088C
:100060003B0200083B0200083B0200083B0200087C
:100070003B0200083B0200083B0200083B0200086C
:100080003B0200083B0200083B0200083B0200085C
:10009000351E00083B0200083B0200083B02000836
:1000A0003B0200083B0200083B0200083B0200083C
:1000B0003B0200083B0200083B0200083B0200082C
:1000C0003B0200083B0200083B0200083B0200081C
:1000D0003B0200083B0200083B0200083B0200080C
:1000E0003B0200083B0200083B02000800F002F857
:1000F00000F03AF80AA090E8000C82448344AAF188
:100100000107DA4501D100F02FF8AFF2090EBAE885
:100110000F0013F0010F18BFFB1A43F0010318473B
:100120006C4000008C400000103A24BF78C878C1B1
:10013000FAD8520724BF30C830C144BF04680C60ED
:10014000704700000023002400250026103A28BF35
:1001500078C1FBD8520728BF30C148BF0B60704739
:100160001FB51FBD10B510BD00F045F91146FFF7D2
:10017000F7FF01F0A3FF00F063F903B4FFF7F2FF0C
:1001800003BC00F06BF90000224B19680868B0E866
:10019000F00F80F30988BFF36F8F4FF0000080F3FA
:1001A00011884EF00D0E70470000000006480068F0
:1001B000006880F3088862B661B6BFF34F8FBFF363
:1001C0006F8F00DF00BF00BF08ED00E0EFF3098094
:1001D000BFF36F8F0F4B1A6820E9F00F106008B55E
:1001E0004FF0500080F31188BFF34F8FBFF36F8F34
:1001F00002F0C2FE4FF0000080F31188BDE8084015
:1002000019680868B0E8F00F80F30988BFF36F8FB2
:10021000704700BF58000020EFF3058070470000D2
:100220000948804709480047FEE7FEE7FEE7FEE78A
:10023000FEE7FEE7FEE7FEE7FEE7FEE704480549C6
:10024000054A064B70470000EF1B0008ED00000850
:10025000C81A0020C8200020C81C0020C81C00208C
:10026000032A40F2308010F0030C00F0158011F8E2
:10027000013BBCF1020F624498BF11F801CB00F8BA
:10028000013B38BF11F8013BA2F1040298BF00F80E
:1002900001CB38BF00F8013B11F0030300F02580CB
:1002A000083AC0F0088051F8043B083A51F804CBF2
:1002B000A0E80810F5E7121D5CBF51F8043B40F8B8
:1002C000043BAFF30080D20724BF11F8013B11F8C3
:1002D00001CB48BF11F8012B24BF00F8013B00F807
:1002E00001CB48BF00F8012B704710B5203AC0F091
:1002F0000B80B1E81850203AA0E81850B1E8185027
:10030000A0E81850BFF4F5AF5FEA027C24BFB1E863
:100310001850A0E8185044BF18C918C0BDE81040D4
:100320005FEA827C24BF51F8043B40F8043B08BFDD
:100330007047D20728BF31F8023B48BF11F8012BA4
:1003400028BF20F8023B48BF00F8012B704702F09D
:10035000FF0343EA032242EA024200F02CB84FF0C6
:10036000000200B5134694469646203922BFA0E805
:100370000C50A0E80C50B1F12001BFF4F7AF090711
:1003800028BFA0E80C5048BF0CC05DF804EB890002
:1003900028BF40F8042B08BF704748BF20F8022B45
:1003A00011F0804F18BF00F8012B7047704770475D
:1003B00070474FF000020429C0F0128010F0030CC7
:1003C0003FF4CFAFCCF1040CBCF1020F18BF00F822
:1003D000012BA8BF20F8022BA1EB0C01FFF7C1BF36
:1003E0005FEAC17C24BF00F8012B00F8012B48BF55
:1003F00000F8012B7047754600F02CF8AE4605005A
:100400006946534620F00700854618B020B5FFF72F
:1004100015FFBDE820404FF000064FF000074FF0F9
:1004200000084FF0000B21F00701AC46ACE8C00912
:10043000ACE8C009ACE8C009ACE8C0098D4670471B
:1004400010B50446AFF300802046BDE81040FFF72A
:1004500094BE000000487047681A00200149182027
:10046000ABBEFEE7260002007047FEE70349884264
:1004700002DC0349884200D90846704700C079442D
:1004800000C079C42DE9F0410F4CA069216B401ADE
:1004900003F02EFC0D4E0546314603F02BFB0C4FAE
:1004A000394603F027FBA06028460A4903F06CFC9C
:1004B000314603F01FFB394603F01CFBE060A069E6
:1004C0002063BDE8F0810000000000200000B4427D
:1004D0006F12033B0000B443704790F82020012ABC
:1004E00007D0022A05D0416A41F4802141620120EF
:1004F0007047006842690A4342610020704700006B
:1005000010B590F820300268012B07D0022B05D0DF
:10051000416A41F480214162012010BDD2F80002FD
:1005200040F00100C2F80002087D00F01F03012026
:100530009840D2F81C328343C2F81C32CB69B3B95D
:10054000D2F80C328343C2F80C328C894B6864F3C6
:100550001F434C6902EBC404C4F840320C890B6899
:1005600064F31F434C6902EBC404C4F84432CB6902
:10057000012B16D1D2F80C320343C2F80C320C888E
:100580004B6864F31F434C6902EBC404C4F8403267
:100590000C89CB6864F31F434C6902EBC404C4F8B4
:1005A00044328B69002BD2F804320FD053EA000397
:1005B000C2F804320B69002BD2F8143208D003437E
:1005C000C2F81432096A012904D008E08343EFE736
:1005D0008343F5E7D2F81C120143C2F81C12D2F88B
:1005E000000220F00100C2F80002002010BD704798
:1005F00070B590F82040012C05D0022C03D0416A40
:1006000041F4802128E0046809B32469A40720D0BC
:100610004FF4D874056804EB01142D5915F0040546
:10062000956005682D591AD0ED08556005682C595C
:1006300004F00204D4604FF4DA74056804EB01148A
:100640002E5906F00F06082E0CD308250DE0E4689D
:10065000DCE7416A41F400114162012070BD6D0D7B
:100660001560E3E72D5905F00F05156105682D5953
:10067000C5F30725956105682C59240C54614FF486
:10068000DC72046802EB0112A4581C700468A458C0
:10069000240A5C700468A458240C9C700468A25856
:1006A000120EDA704FF4DE72046802EB0112A458E5
:1006B0001C710468A458240A5C710468A458240CB2
:1006C0009C710468A258120EDA71006829B10169A0
:1006D00041F020010161002070BDC16841F020019E
:1006E000C160F8E72DE9F05F05460068002446691F
:1006F000D0F804908768D0F80CB0D0F810A0D0F8EB
:100700001880F10748D0F90714D001218160B8079B
:1007100003D5284600F04FFA0CE0780702D54FF4D5
:10072000006407E0380702D54FF4805402E0284601
:1007300000F040FAF80516D529684FF480708860FB
:10074000B80503D5284600F038FA0CE0780502D544
:1007500044F4005407E0380502D544F4804402E034
:10076000284600F029FAF80316D529684FF480309E
:100770008860B80303D5284600F021FA0CE078031E
:1007800002D544F4004407E0380302D544F4803431
:1007900002E0284600F012FA300707D55FEACB6086
:1007A00004D52968102044F40074C86070074FF025
:1007B000080707D55FEA0B7004D52868C76028468C
:1007C00000F05CF9B00706D52868C068800702D041
:1007D000284600F055F9700607D55FEACA6004D5CF
:1007E0002968102044F480640861B00607D55FEAE8
:1007F0000A7004D528680761284600F0ABF9F006B6
:1008000006D528680069800702D0284600F0A3F9C1
:10081000B00308D55FEAC96005D529681020486093
:10082000284600F099F9F00307D55FEA097004D56E
:1008300028684760284600F0C3F9300446D55FEACF
:10084000497040D5F00504D55FEAC87001D044F086
:100850000104B00504D55FEA887001D544F00204B4
:10086000700504D55FEA487001D544F004043005F2
:1008700029D518F0700F26D008F07000402815D048
:1008800006DC102809D020280AD0302816D10AE02A
:1008900050280ED0602811D10EE044F008040DE07D
:1008A00044F010040AE044F0200407E044F040045F
:1008B00004E044F0800401E044F480742868816915
:1008C00021F070018161296804204860002C05D066
:1008D000686A204368622846FFF789FEBDE8F09FFA
:1008E00070B5040003D094F8200010B104E001209A
:1008F00070BD204600F082F82068016841F00101D7
:10090000016000F059FA0546052604E000F054FAAB
:10091000401B0A2811D820684068C007F6D020681C
:10092000016821F00201016000F046FA05460BE083
:1009300000F042FA401B0A2806D9606A40F40030F1
:10094000606284F82060D2E7206840688007EFD4B6
:10095000207E0128206801683DD021F080010160DF
:10096000607E01282068016838D021F040010160D4
:10097000A07E01282068016833D021F020010160A9
:10098000E07E0128206801682ED041F0100101604E
:10099000207F01282068016829D021F0080101602A
:1009A000607F01282068016824D021F004010160E3
:1009B000D4E902010843D4E90412114308436168F1
:1009C000491E08432168C86100206062012084F844
:1009D0002000002070BD41F08001C0E741F04001DF
:1009E000C5E741F02001CAE721F01001CFE741F04F
:1009F0000801D4E741F00401D9E7000010B586B042
:100A000000210091019102910391006818498842E8
:100A10002CD11848C16941F00071C161C16901F070
:100A200000710491816941F0040181618069124C77
:100A300000F0040004904FF4006000900120029048
:100A40006946204600F0BEF8A014009002200190F4
:100A5000032003906946204600F0B4F800220521E7
:100A6000142000F01BFA142000F00AFA06B010BDA2
:100A70000064004000100240000801407047000080
:100A800070B5314B314A0021FFF7B2FD08B172B6A3
:100A9000FEE72E482E4D4FF0FF3106682A48A6F596
:100AA0008066A0F11C04463E0AD000226FF063036A
:100AB000012E14D0022E25D0032E36D072B6FEE7BA
:100AC0004288407852BA12B200B10121514308B2B3
:100AD00003F00EF9294603F00DF8A06270BD01780D
:100AE000162901D0226205E04178408840BA01B958
:100AF00040422062206A642802DC206A9842EDDAD3
:100B0000226270BD0178202901D0626205E041783F
:100B1000408840BA01B940426062606A642802DCE1
:100B2000606A9842EDDA626270BD4288407852BADB
:100B300012B200B10121514308B203F0D9F829469D
:100B400002F0D8FFE06270BD1C0000207801002098
:100B50000000C842704770477047000070B50446F7
:100B600090F82000012804D0606A40F40020606200
:100B700018E0022084F820002068016821F00101BB
:100B8000016000F019F905460EE000BF00F014F90D
:100B9000401B0A2808D9606A40F4003060620520D2
:100BA00084F82000012070BD20684068C007EDD1A6
:100BB000606270BD704770477047704770477047FC
:100BC000704700002DE9F84FDFF8B8910024A9F133
:100BD000040B23460F2709F1040AABF1040EC9E008
:100BE0000125A5402A40AA427DD1674ED1F804C014
:100BF000ACEB0608B44532D014DCBCF1030F3AD09C
:100C000009DCBCF1000F2AD0BCF1010F1CD0BCF1F3
:100C1000020F31D11DE0BCF1110F17D0BCF1120F42
:100C20002AD119E0B8F5881F19D006DCB8F5803F45
:100C300015D0B8F5801F1FD111E0B8F5001F0ED0F8
:100C4000B8F5041F18D10AE0CB6815E0CB681B1D6E
:100C500012E0CB6808330FE0CB680C330CE08B68F4
:100C60002BB1012B4FF0080303D0456104E00423AE
:100C700002E0056100E00023FF2A01D8064601E0FA
:100C800000F104064FEA840501D9A5F12005D6F844
:100C9000008007FA05FC28EA0C0803FA05F548EA83
:100CA0000508C6F800804D68ED0062D5374DAE6985
:100CB00046F00106AE61AD6924F0030605F00105BA
:100CC0000095334D06EB050CDCF80850A607360FEF
:100CD00007FA06F825EA0805DFF8B880404503D191
:100CE0004FF0000817E044E0DFF8AC80404502D147
:100CF0004FF001080FE0DFF8A480404502D14FF02B
:100D0000020808E0DFF89880404502D14FF0030860
:100D100001E04FF0040808FA06F848EA0508CCF8A4
:100D200008804D68D9F80060ED024D4601D51643A4
:100D300000E096432E604D68DAF80060AD0255463B
:100D400001D5164300E096432E604D68DBF8006045
:100D5000AD035D4601D5164300E096432E604D6815
:100D6000DEF80060ED03754601D5164300E09643BA
:100D70002E60641C0D682A46E5407FF431AFBDE863
:100D8000F88F00000804014000001110001002401C
:100D90000000014000080140000C0140001001402B
:100DA000001401408068084000D0012070470AB15B
:100DB000016170470904FBE7014880687047000043
:100DC0004800002002488168027811448160704721
:100DD00048000020074810B5016841F0100101608B
:100DE000032000F07BF80F2000F006F800F024F854
:100DF000002010BD0020024070B50D4D04464FF498
:100E00007A712878B1FBF0F00A490968B1FBF0F07B
:100E100000F0C2FA48B9102C07D200222146501E19
:100E200000F03CF800206C6070BD012070BD000037
:100E300048000020540000200F4808B5816941F0A7
:100E400001018161816901F001010091C16941F0F5
:100E50008051C161C069002200F0805000900F21D4
:100E6000901E00F01BF80548416821F0E06141F058
:100E70000071416008BD0000001002400000014008
:100E8000002809DB00F01F02012191404009800089
:100E900000F1E020C0F8001170470000F0B40E4BE4
:100EA0001B680C46C3F30223C3F10705042D00D9C8
:100EB0000425191D072901D2002300E0DB1E0126AD
:100EC00006FA05F1491E214099409E40761E1640C3
:100ED0003143F0BC00F0B5BF0CED00E0064900F076
:100EE000070208684FF6FF03184040EA0220034A51
:100EF00010430860704700000CED00E00000FA05A8
:100F00002DE9F0470F46050061D0434E306800F0F0
:100F10000700B84209D2306820F00700384330603B
:100F2000306800F00700B84251D128683B4C810777
:100F300012D5400703D5606840F4E060606028780F
:100F4000000703D5606840F4605060606068A9687D
:100F500020F0F000084360602878C00728D0686857
:100F6000012810D02168022810D0890700292EDA24
:100F7000616821F0030101436160FFF71DFF8046B6
:100F800041F288390DE021688903EFE78901EDE737
:100F9000FFF712FFA0EB0801494502D90320BDE885
:100FA000F0876068696800F00C00B0EB810FEFD14A
:100FB000306800F00700B8420BD9306820F0070015
:100FC00038433060306800F00700B84201D001209B
:100FD000E5E72878400705D56068E96820F4E06017
:100FE000084360602878000706D56068296920F406
:100FF000605040EAC100606000F018F86168084A7B
:10100000C1F30311515CC8400649086006480068F6
:10101000FFF7F2FE0020C2E700200240001002406D
:101020003E410008540000204C0000200E4A516848
:101030000E4801F00C03042B11D0082B0FD10C48E3
:10104000C1F38343C903C05C0AD55168084AC1F3A0
:101050004041921E515C054A5043B0FBF1F070478D
:1010600004494843704700000010024000127A0013
:101070002E41000800093D002DE9F84F040070D012
:101080002078C04DC00749D06868C0F381000128AE
:1010900007D06868C0F38100022809D16868C003DE
:1010A00006D52868800339D560680028E7D035E088
:1010B0006068B0F5803F0BD010B1B0F5A02F11D013
:1010C000286820F480302860286820F4802002E01E
:1010D000286840F480302860606890B1FFF76CFEAB
:1010E00006460AE0286840F480202860F0E700BF48
:1010F000FFF762FE801B642873D828688003F7D549
:101100000CE0FFF759FE064605E000BFFFF754FE6E
:10111000801B6428F0D828688003F7D420789A4E82
:1011200080074FF001094FF0000839D5686810F0CA
:101130000C0F07D06868C0F38100022809D16868E5
:10114000C00306D42868800714D52069012808D177
:1011500010E02069B0B1C6F80090FFF72DFE0746F9
:1011600005E00AE1FFF728FEC01B0228C4D8286862
:101170008007F7D52868616920F0F80040EAC100CF
:1011800028600DE0C6F80080FFF716FE074604E071
:10119000FFF712FEC01B022823D828688007F7D467
:1011A000207800072CD57948A169D9B1C0F8009002
:1011B000FFF702FE074604E0FFF7FEFDC01B022812
:1011C0000FD8686A8007F7D571484FF4FA51006864
:1011D000B0FBF1F0009000BF0098411E0091FAD2E0
:1011E0000EE080E0C0F80080FFF7E6FD074604E06F
:1011F000FFF7E2FDC01B022875D8686A8007F7D4A4
:101200002078400760D5E8690027C00008D4E86965
:1012100040F08050E861E869012700F080500090BC
:101220005C480168C90513D40168834641F48071A4
:101230000160FFF7C1FD824606E000BFFFF7BCFD7D
:10124000A0EB0A0064284ED8DBF80000C005F5D5F5
:10125000E06801280AD008B1052813D0286A20F0D8
:1012600001002862286A20F0040002E0286A40F0A9
:1012700001002862E06841F2883B98B1FFF79CFDCD
:1012800082460BE0286A40F004002862EEE700BFC7
:10129000FFF792FDA0EB0A0159455AD8286A80074A
:1012A000F6D50CE0FFF788FD824605E0FFF784FDE8
:1012B000A0EB0A0159454CD8286A8007F6D41FB123
:1012C000E86920F08050E861E06988B36968C1F39B
:1012D0008101022944D00228C6F8608004D0FFF7BB
:1012E0006BFD044638E034E0FFF766FD074604E096
:1012F000FFF762FDC01B02282BD828688001F7D4B5
:10130000206AB0F5803F05D16868A16820F40030FC
:1013100008436860D4E908010843696821F474113E
:1013200008436860C6F86090FFF746FD044606E093
:1013300025E000BFFFF740FD001B022809D8286800
:101340008001F7D51BE000BFFFF736FD001B022828
:1013500002D90320BDE8F88F28688001F4D40EE09C
:101360000128F7D06868226A00F48031914204D1E4
:10137000616A00F47010884201D00120EAE7002081
:10138000E8E70000001002400000424280044242B0
:10139000540000200070004010B5401EB0F1807F66
:1013A00001D3012010BD4FF0E02460610F216017D0
:1013B00000F047FD0020A06107202061002010BD43
:1013C00010B590F83C20012A22D0012280F83C2060
:1013D000CA688C6822F4407222434C6822F480620E
:1013E00022430C6822F4006222430C6922F48052EA
:1013F00022434C6922F400522243C969002322F49B
:1014000080420A4301684A6480F83C30002010BDE5
:10141000022010BD70B590F83C20012A26D001248E
:1014200080F83C40022280F83D2003685A689D689D
:1014300022F070060A6832435A600D4B02689A42E5
:1014400008D0B2F1804F05D00A4B9A4202D00A4B25
:101450009A4204D1496825F080031943916080F8CD
:101460003D40002180F83C10084670BD022070BD50
:10147000002C0140000400400008004010B50400AA
:1014800003D094F83D0010B107E0012010BD00200A
:1014900084F83C00204600F01FF8022084F83D004C
:1014A000211D206800F0A4FB012084F8460084F888
:1014B0003E0084F83F0084F8400084F8410084F83E
:1014C000420084F8430084F8440084F8450084F81E
:1014D0003D00002010BD000008B5006806498842A4
:1014E00008D10648816941F400618161806900F496
:1014F0000060009008BD0000002C01400010024078
:1015000070B5044690F83C000025012817D001264C
:1015100084F83C60022084F83D002068826822F054
:10152000770222F47F4282600868502838D00DDCB0
:1015300020284FD005DC90B3102811D14AE00220BA
:1015400070BD302846D040280AD13BE060282FD01B
:1015500070280DD0B0F5805F03D0B0F5005F12D0D9
:10156000012584F83D60002084F83C00284670BDC9
:10157000CB68D1E90121206800F083FB20688168F5
:1015800041F0770109E0CB68D1E90121206800F042
:1015900078FB2068816841F480418160E1E719E0CF
:1015A000CA684968206800F021FC5021206806E0E4
:1015B000CA684968206800F02AFC6021206800F0B1
:1015C0006AFBCEE7CA684968206800F00FFC40213A
:1015D0002068F4E7226801461046F0E700B585B0C0
:1015E0000021009101910291039100680B4988420A
:1015F00012D10B48816941F004018161806969461B
:1016000000F0040004904FF48070009002200190DC
:1016100003900448FFF7D6FA05B000BD002C014046
:10162000001002400008014070B5044690F83C00EC
:1016300000260D4601280FD0012084F83C006AB135
:10164000042A1DD0082A2FD00C2A3FD001260020C2
:1016500084F83C00304670BD022070BD206800F068
:1016600023FB2068816941F008018161206881695C
:1016700021F004018161206881692A69114311E028
:10168000206800F039FB2068816941F400618161C4
:101690002068816921F480618161206881692A69FB
:1016A00041EA02218161D2E7206800F051FB206805
:1016B000C16941F00801C1612068C16921F00401DC
:1016C000C1612068C1692A69114311E0206800F0F6
:1016D0006BFB2068C16941F40061C1612068C16988
:1016E00021F48061C1612068C1692A6941EA02214F
:1016F000C161ACE710B5040003D094F83D0010B10F
:1017000007E0012010BD002084F83C00204600F0D6
:101710001EF8022084F83D00211D206800F068FAC0
:10172000012084F8460084F83E0084F83F0084F8E5
:10173000400084F8410084F8420084F8430084F8B3
:10174000440084F8450084F83D00002010BD704737
:1017500010B50446022249B104290ED0082913D03D
:1017600094F84100012816D0012010BD94F83E00E5
:101770000128F9D184F83E200FE094F83F000128B9
:10178000F2D184F83F2008E094F840000128EBD122
:1017900084F8402001E084F841200122206800F014
:1017A00063FA0F492068884203D1426C42F4004238
:1017B00042642068884208D0B0F1804F05D00949C2
:1017C000884202D00849884204D1816801F00701AB
:1017D000062903D0016841F001010160002010BD1D
:1017E000002C01400004004000080040FEE700001B
:1017F00010B519488AB01749016009210024C0E9D1
:1018000001144FF4A021C0E90341446104764476F9
:101810008476C47604774477FFF762F808B172B62D
:10182000FEE7012001940294CDE90640039405945B
:10183000049408900094694607480994FEF760FEF6
:10184000002211461420FFF729FB1420FFF718FB94
:101850000AB010BD00640040D8000020F0B585B08B
:1018600000242B480094019402940394816941F070
:1018700010018161816901F010010491816941F0D9
:1018800020018161816901F020010491816941F0A9
:1018900004018161816901F004010491816941F0D1
:1018A0000801816180691B4E00F008004FF400556B
:1018B0000490002229463046FFF779FA164F00229D
:1018C00029113846FFF773FA012291023846FFF7D3
:1018D0006EFA0220CDE90240009501256946019586
:1018E0003046FFF76FF94FF4C060CDE900050320E3
:1018F000CDE9024069463846FFF764F94FF4E070DD
:101900008DE8310069460548FFF75CF905B0F0BD88
:10191000001002400010014000080140000C01408E
:1019200010B596B000240F9410941194129413944F
:101930001C2108A81494FEF712FD20216846FEF72A
:101940000EFD29482749016040F60F61C0E90114E6
:1019500040F2E731C0E9031444618461FFF78EFD72
:1019600008B172B6FEE74FF480500F900FA91E48E1
:10197000FFF7C6FD08B172B6FEE71B48FFF7BAFED7
:1019800008B172B6FEE7139413A917481494FFF731
:1019900041FD08B172B6FEE76020CDE908040A9463
:1019A0000B940C940D94002208A90F480E94FFF795
:1019B0003BFE08B172B6FEE700944FF40050CDE94B
:1019C0000440029401940394694607480794FFF782
:1019D000F7FC08B172B6FEE70348FFF7FFFD16B04B
:1019E00010BD0000002C014000010020FEE700F0C7
:1019F00039FA012000F0CAFBF9E7FEE72DE9F041D2
:101A000016460A4604461F463146104602F0C4FAFE
:101A10000546394602F0B8F9616901F0B5FF16498B
:101A20006061884202DC1549884200D96161314613
:101A3000E06802F0B1FA394602F05CF81049E6605D
:101A400000F0DCFA0F4900F0EDFA01462561A068CC
:101A500002F09AF907466169606802F095F9064656
:101A60002946206802F090F9314601F08DFF394691
:101A7000BDE8F04101F088BF0000C8420000C8C2C4
:101A8000000048C20000484201250F4C01F04AF80E
:101A90002070A079A0B12178A07800F0D7FA60700A
:101AA000607830B1A06994F901100844A0612078F1
:101AB000A07000F0EFFA6061012000F067FBE5E73D
:101AC0002078A070A571EBE700000020012000F055
:101AD0005DFBFBE72DE9F04107461B480A46816A9A
:101AE000C06A21F000401949884203DD184D4FF0CB
:101AF0007E560EE01749884202DD174D174E08E06A
:101B00001749884203DD174D4FF07D5601E0164D11
:101B1000164E1146384602F034FA0446294602F0C1
:101B2000FFF900D22C4685F000400546214602F020
:101B3000F7F900D22C462146304602F025F9394605
:101B4000BDE8F04101F020BF000000200000F0419E
:101B50000000484300007041000016436666663F7F
:101B60000000A0400000C842000048429A99193F76
:101B7000012000F00BFBFBE710B5FFF723F901F0A4
:101B80004DFD012803D0BDE8104001F07BBA10BD27
:101B900030B58FB028216846FEF7E1FB14210AA872
:101BA000FEF7DDFB01210804CDE9001000240294BA
:101BB00002250491CDE907504FF4E01009906846E2
:101BC000FFF75AFA08B172B6FEE70F20CDE90A0511
:101BD0004FF48060CDE90C4002210AA80E94FFF773
:101BE0008FF9002801D072B6FEE70FB030BD704704
:101BF000F0B50268194B1A4C1A4D4FF080479842C5
:101C000005D0B84203D0A04201D0A84203D122F0AF
:101C100070064A683243984205D0B84203D0A042C9
:101C200001D0A84203D122F44074CA6822434C690F
:101C300022F08002224302608A68C2620A688262DD
:101C4000984201D109690163012141610169C90714
:101C500003D0016921F001010161F0BD002C0140B8
:101C6000000400400008004010B501F01F030121EE
:101C7000046A99408C430462016A9A4011430162EC
:101C800010BD10B5846842EA032224F47F440A435D
:101C90002243826010BD826822F070020A4342F043
:101CA000070181607047000030B5036A026A22F0C4
:101CB000010202624268846924F073050C682C43B7
:101CC00023F002058B682B430A4DA8420BD123F069
:101CD0000805CB6822F440722B434D6923F00403BE
:101CE00015438A692A4342608461496841630362FB
:101CF00030BD0000002C014030B5026A036A23F0B9
:101D000010030362436884690D6824F4E64444EADE
:101D100005248D6822F0200242EA05120B4DA842EC
:101D20000ED1CD6822F0800242EA05124D6923F4FB
:101D3000406343EA85038D6922F0400243EA85034C
:101D40004360846149688163026230BD002C0140B8
:101D500030B5036A026A22F4807202624268C46982
:101D600023F4007324F073050C682C438D6843EA58
:101D700005230C4DA8420ED1CD6823F4006343EA3D
:101D800005234D6922F4405242EA05128D6923F47D
:101D9000806342EA05124260C4614968C16303621C
:101DA00030BD0000002C014030B5046A026A22F404
:101DB000805202624268C3690D6823F4E64343EA35
:101DC00005238D6824F4005444EA0534064DA842E6
:101DD00004D14D6922F4804242EA85124260C36117
:101DE00049680164046230BD002C014010B5036AEB
:101DF000046A24F001040462846924F0F00444EAD3
:101E0000021423F00A020A438461026210BD10B575
:101E1000036A046A24F010040462846923F0A003B6
:101E200024F4704444EA023243EA011182610162FF
:101E300010BD00000148FEF755BC0000D80000208E
:101E4000FEE70907090E002804DB00F1E02080F816
:101E50000014704700F00F0000F1E02080F8141D1E
:101E6000704700002DE9F05F544CA56AD4F82C802F
:101E7000FEF708FB524885427ED2524885427BDA03
:101E80005149A06801F080FF01F0F6FEA669824684
:101E9000606A01F02DFF4D4920F00040DFF830B1BD
:101EA000DFF8309188421EDD606A01F021FF20F0EA
:101EB00000404F46B84216DA606A01F019FF394611
:101EC00001F018FE394601F05FFF0646504601F06A
:101ED0000FFF02465B4631463F48FFF78FFD06463F
:101EE0000020E07113E0E07910B901206663E07131
:101EF000304601F0FDFE0646606B01F0F9FE01463A
:101F000035485B4632461838FFF778FD06463549B6
:101F1000DFF8C8A0324F28F00040884202DDDFF829
:101F2000C8A0324F324925F00040884209DA3149D1
:101F3000504601F029FF82462F49384601F024FF20
:101F400007464146384601F01FFF074629465046DE
:101F500001F01AFF394601F017FD0146304602F044
:101F60001BF8FEF783FA0546206A01F0C1FE20F057
:101F700000404E46B04200E01DE00BDA25F000477D
:101F8000206A01F0B5FE314601F0B4FD394601F09A
:101F9000FBFE00E000200146284601F0F5FC01466A
:101FA0002069FFF797FD2061FEF760FA2061BDE828
:101FB000F05F00F0D7BD0020F9E70000000000202E
:101FC000000020C2000020420000B4420000A040F7
:101FD0006F12033B0000C842600100200000C041B6
:101FE000CDCC4C3F00001643666686419A99993FD6
:101FF000000020416666663F6666A63F70B50C46E7
:10200000054601F04CFD00F07040B0F1005F07D0D4
:1020100024F00040C0F1FF40C00F04BF204670BD57
:10202000284670BD70B50C46054601F038FD00F03D
:102030007040B0F1004F07D024F00040C0F1FF40E5
:10204000C00F04BF204670BD284670BD30B587B0B4
:102050000D46044618220E496846FEF746F900224E
:102060004FEA0D0313F81200A0420CD103EB42001B
:102070004078A84207D1062A02DA012007B030BD15
:102080004FF0FF30FAE7521C0C2AEBDB0020F5E79B
:1020900014410008064810B5806901F029FE054981
:1020A00001F028FDBDE81040034901F06DBE0000BD
:1020B000000000200000B4420000B443FEF78AFE96
:1020C000FFF766FDFFF7CAFBFFF792FBFFF728FC5F
:1020D00000212448FFF73CFB22484FF07F51483055
:1020E0000160214941600021816018304FF080413A
:1020F00001601E4941601E4981608838FEF72EFD4F
:1021000008B172B6FEE7174802212838FEF7E5F954
:10211000002205211420FEF7C1FE1420FEF7B0FEB8
:1021200000F042F8134A0021134800F06BF8134CFA
:10213000104A0021A0632432114800F063F80D4AD0
:10214000E063483200210F4800F05CF8094A20643F
:102150006C3200210C4800F055F8606400F036F84D
:10216000FEE70000000100200AD7233D0AD7A33C68
:10217000CDCCCC3D84400008711B0008000000203D
:10218000CD1A0008EF190008891A000810B5EFF3FE
:10219000058111B16FF0050403E0002408B100F0DF
:1021A00037FE204610BD0000EFF3058010B16FF040
:1021B000050070470448016811B14FF0FF307047C7
:1021C0000121016000207047A800002010B5EFF346
:1021D000058010B16FF0050010BD084801680129A5
:1021E00002D04FF0FF3010BD054A002182F8141DC7
:1021F0000221016000F074FE002010BDA800002044
:102200000BE000E02DE9FF414FEA01034FF000052C
:10221000EFF30581039549BB40B3802718210024C3
:102220004AB3166806B1344696691EB13146761E29
:10223000382E02D21679F60703D0002004B0BDE88C
:10224000F081566906B1B708D2F808C0BCF1000F9A
:102250000DD0D5685C2D18D312693AB136B18DE82E
:1022600006103A46214601F0AEF903900DE0D6681B
:102270005EB912694AB903AACDE90012BAB2214681
:1022800001F074F9012800D003950398D6E7000007
:102290002DE9F041134C0F460546E6682068001D05
:1022A00000F082FC681C07D137B12168BDE8F0411D
:1022B0000D48091D00F0C8BC20683544B542456092
:1022C000216805D2A06BBDE8F041091D00F0A4BC57
:1022D000606B091D00F0A0FCA06A854200D2A562D7
:1022E000BDE8F08158000020840600202DE9F0416F
:1022F000054600F0B5FC2D4CA068401CA06020688D
:102300002B4F10B1606930B32BE02560A068012825
:1023100027D1002606EB860007EB800000F06EFC5C
:10232000761C382EF6D3234800F068FC2148143080
:1023300000F064FC1F48283000F060FC1D483C3071
:1023400000F05CFC1B48503000F058FC19486063FA
:102350001430A06305E02068E96AC06A884200D8AA
:102360002560606A401C60626864E86A216988428E
:1023700000D9206100EB800007EB8000291D00F0F0
:1023800063FC00F08DFC606900280CD02068E96ACD
:10239000C06A884207D208494FF080500860BFF3F6
:1023A0004F8FBFF36F8FBDE8F08100005800002011
:1023B000D40100203406002004ED00E038B500F020
:1023C0004FFC104C2068C8B90F4800F017FC0E48AD
:1023D000143000F013FC0C48E060143020610A4B0C
:1023E0000020F03B009003F1500210210A2000F081
:1023F0005FFE206010B105A100F0D4FCBDE83840BC
:1024000000F04EBC9400002088070020546D7251EB
:102410000000000030B4026C0B46002A0BD0C168EB
:102420001144C1608468A14201D30168C16030BC1D
:102430001846FDF715BF30BC70472DE9F041856B9C
:10244000174604460026026C82B1C7B1E068FDF76A
:1024500007FFE168206C091AE1602268914202D20C
:10246000A168081AE060022F16D017E02068A8B90A
:10247000A06801F04BF906460020A0600EE06068FD
:10248000FDF7EEFE216C606808446060A168884238
:1024900004D32068606001E005B16D1E6D1CA5636A
:1024A0003046BDE8F08110B5044690F8590058B1A7
:1024B00001280CD002280FD0502080F31188BFF3E0
:1024C0004F8FBFF36F8FFEE7206B00F0FDFB2046C0
:1024D000BDE8104000F0F8BB10BD000010484FF4FC
:1024E0004061420706D0C01D0D4920F00700411A87
:1024F000C1F540610B4A00230144C2E900030839D9
:10250000183A21F0070111604B600B600B1AC0E90B
:10251000001393604FF0004053605061704700001B
:10252000680E0020C4000020144E154CA6F29C47F3
:102530004FF08058DFF84C9012E000BF00F090FBA5
:10254000F068C568281D00F02FFBA068401EA06041
:102550006068401E606000F0A3FB2846FFF7A3FF01
:1025600060680028EAD138680128F9D9C9F80080E4
:10257000BFF34F8FBFF36F8FF2E7000070060020AC
:102580005800002004ED00E070B51D46049C51B1D8
:10259000C4F80020C4E90F010121204600F0BCFD71
:1025A00084F84C5070BD2460F4E700002DE9F05F22
:1025B0008846DDE90B941546834691009A460A9EAB
:1025C000A522206BFDF7C3FE6FF00301206B01EB2A
:1025D0008501084420F00707780707D0502080F3D2
:1025E0001188BFF34F8FBFF36F8FFEE70025B8F15F
:1025F000000F0FD05FF00000221818F8001082F8CA
:10260000341018F8001011B1401C1028F4D384F8CD
:10261000435001E084F83450382E00D33726E66268
:10262000C4E91365201D00F0F4FA04F1180000F06D
:10263000F0FA2461C6F138006462A061656584F82F
:10264000585052465946384600F05AFA2060B9F1BF
:10265000000F01D0C9F80040BDE8F09F30B5114926
:1026600000E011460A688242FBD34B685C18844242
:1026700003D1406818444860084643681C189442D7
:1026800009D1084C183C2468A24209D052681A4467
:1026900042600A6812680260814200D0086030BD62
:1026A0000460F9E7C400002070B5002441600B4DC0
:1026B0000061914206D8D11A8269914206D2011D69
:1026C000286907E09A4203D2994201D3012403E02A
:1026D000011DE86800F0A0FA204670BD94000020BB
:1026E00010B5044600F0BCFAA06B28B15FF00004FE
:1026F00000F0D6FA204610BD0124F9E730B589B0C4
:102700003C4D6EE00498002806DADDE90601059AE2
:1027100090470498002864DB069C606910B1201D76
:1027200000F042FA03A800F0D7F8024604980A28FD
:1027300057D2DFE800F00505052D334A05052D3396
:1027400094F8280040F0010084F828000599A06959
:10275000059B01442046FFF7A7FF68B3216A204686
:10276000884794F8280040073BD500200090059842
:10277000A169002342181946204601F0D1F8D8B9C2
:10278000502080F31188BFF34F8FBFF36F8FFEE7A8
:1027900014F8280F20F00100207022E094F828009F
:1027A00040F0010084F828000598A06128B1811844
:1027B00013462046FFF778FF13E0502080F311887E
:1027C000BFF34F8FBFF36F8FFEE794F828008107A8
:1027D00003D4204600F078FA03E020F0010084F8EA
:1027E0002800002204A9286800F0EAFD002889D109
:1027F00009B030BD940000202DE9FC410F4605468C
:1028000000F0B2FB01A800F067F80446019818B187
:1028100000F0F4FFBDE8FC81254EAFB130690068DF
:10282000D0B30027291B3A46306800F0CFFA00F0F9
:10283000E5FF0028EED11F494FF080500860BFF33C
:102840004F8FBFF36F8FE5E7A542EBD800F0D6FFBF
:10285000F0682746C068C468201D00F0A5F994F808
:102860002800410719D5A0692B4641193A46204650
:10287000FFF71AFFA8B100200346014600902A4640
:10288000204601F04DF860B9502080F31188BFF365
:102890004F8FBFF36F8FFEE707E020F0010084F851
:1028A0002800216A20468847B4E70127BAE70000DC
:1028B0009400002004ED00E00648416B096829B14E
:1028C000416BC968C9684968816270474FF0FF3140
:1028D000FAE700005800002070B5054600F0ACFE95
:1028E000064E0446B068844203D200F009F8012085
:1028F00000E0002028602046B46070BD94000020F5
:10290000F8B5194D20E0C068C4680668201D00F0C5
:102910004BF9216A2046884794F82800400713D5D0
:10292000A0693044B04206D924616060211DE86886
:1029300000F072F908E0002003460146009032469C
:10294000204600F0EDFF38B1E86801680029DAD1CF
:102950002969C5E90310F8BD502080F31188BFF341
:102960004F8FBFF36F8FFEE7940000200848406848
:10297000401C4FF0500080F3118804D0BFF34F8FFC
:10298000BFF36F8FFEE7BFF34F8FBFF36F8FFEE78D
:10299000CC000020074CE068016841B1C06800210C
:1029A000D0F80000FFF728FFFFF7A8FEF3E70121AA
:1029B0000020F7E7940000202DE9F041044600F0E4
:1029C0004FF994F9455004F1240609E0606A48B1D2
:1029D000304600F0DBFE08B100F048FA6D1E6DB223
:1029E000002DF3DC4FF0FF3684F8456000F058F915
:1029F00000F036F994F9445004F1100709E0206919
:102A000048B1384600F0C2FE08B100F02FFA6D1E42
:102A10006DB2002DF3DC84F84460BDE8F04100F0B5
:102A20003FB900002DE9F0410546002700F09CFA6F
:102A3000324E306808B9FFF751FD706905424ED13A
:102A4000C5B3083568070ED005F00700C0F10800CF
:102A50000544680707D0502080F31188BFF34F8FDB
:102A6000BFF36F8FFEE72DB37068854237D82348D8
:102A7000183001460C6801E020460C466168A94206
:102A800002D221680029F7D131688C4227D007682B
:102A90002168016060680837411B10290FD960194F
:102AA000420708D0502080F31188BFF34F8FBFF347
:102AB0006F8FFEE713E041606560FFF7CFFD61684F
:102AC0007068401A7060B268904200D2B06070695D
:102AD00001430020C4E90001F068401CF06000F0F0
:102AE0008DFE780707D0502080F31188BFF34F8FF9
:102AF000BFF36F8FFEE73846BDE8F081AC000020E1
:102B000010B5031F4FF080741C601B1F21F00101E2
:102B10001960191F024B0B60143940380A6010BD50
:102B20006D29000870B50D4D40212846FEF73AF991
:102B30000B4CE07080212846FEF734F92071A9156E
:102B40002846FEF72FF96071E0782179800040EA8D
:102B5000410061790843C0B270BD0000000C014023
:102B60000000002070B5044620F000400B49FFF73C
:102B700059FA0546B4F5000F01DA012200E00022FF
:102B80004FF400710648FEF712F925F0004001F0FD
:102B90008FF804490968486370BD000000C079449B
:102BA0000008014000010020D0E9013201699A606B
:102BB000D0E901235A604A68824201D182684A60A2
:102BC000002202610868401E086008687047000023
:102BD000034B036003F15C000860802010607047C5
:102BE000B0070020044B036003F15C0008604FF461
:102BF00080701060704700000C0A002000F108018E
:102C00004FF0FF32C0E90112C16001610021016093
:102C1000704700210161704730B50B685A1C02D023
:102C200000F1080202E0026904E0224654682568C7
:102C30009D42FAD953684B6099608A60516008617F
:102C40000168491C016030BD42684A6093688B602E
:102C500093685960916008610168491C0160704780
:102C6000502080F31188BFF34F8FBFF36F8F0A4955
:102C70004868401C486001280CD10848006810F0E2
:102C8000FF0F07D0502080F31188BFF34F8FBFF3A1
:102C90006F8FFEE770470000CC00002004ED00E0DD
:102CA0000849486828B1401E486001D180F3118866
:102CB0007047502080F31188BFF34F8FBFF36F8FA1
:102CC000FEE70000CC00002070B500282AD0164D89
:102CD000A0F1080460686969084207D1502080F3B8
:102CE0001188BFF34F8FBFF36F8FFEE722683AB1B1
:102CF000502080F31188BFF34F8FBFF36F8FFEE733
:102D00008843606000F030F9606869680844686072
:102D10002046FFF7A3FC2869401C2861BDE87040ED
:102D200000F06CBD70BD0000AC0000204FF0E02052
:102D300000210161816105494FF47A720968B1FB94
:102D4000F2F1491E416107210161704754000020E2
:102D500010B5FDF761FA114910280ED300F1E020FB
:102D600090F8F0030A78904207D2502080F311883F
:102D7000BFF34F8FBFF36F8FFEE709480068896884
:102D800000F4E060884207D9502080F31188BFF337
:102D90004F8FBFF36F8FFEE710BD0000CC00002007
:102DA0000CED00E010B5084B002200BF53F8324094
:102DB0001CB1521C082AF9D310BD43F8321003EBA2
:102DC000C201486010BD00009401002070B5154696
:102DD0000E460446FFF744FF94F944100020491CB6
:102DE00001D184F8440094F94510491C01D184F8BC
:102DF0004500FFF755FFA06B28B92A46314604F17C
:102E0000240000F051F82046BDE87040FFF7D4BD23
:102E100010B5020014D00F48006B38B1502080F379
:102E20001188BFF34F8FBFF36F8FFEE700F09CF860
:102E300000211046FFF72CFA00F0E0FC002807D133
:102E400005494FF080500860BFF34F8FBFF36F8F7D
:102E500010BD00005800002004ED00E002490A6A9D
:102E60000260C96841607047580000200149012094
:102E7000C86170475800002010B50C4650B1094990
:102E800009681831FFF7C8FE2046BDE8104001214F
:102E9000FFF7FEB9502080F31188BFF34F8FBFF3C7
:102EA0006F8FFEE75800002070B514460D4668B1DC
:102EB0000A4909681831FFF7C7FE0CB14FF0FF351A
:102EC00021462846BDE87040FFF7E2B9502080F364
:102ED0001188BFF34F8FBFF36F8FFEE758000020BC
:102EE00030B587B00024039405AA04A903A804946C
:102EF000FFF76EFEDDE903010094CDE90110002328
:102F000015A11748059A00F05EFB164D0028E862EF
:102F10001FD000F0D5FC012809D0401C19D1502049
:102F200080F31188BFF34F8FBFF36F8FFEE7502000
:102F300080F31188BFF34F8FBFF36F8F4FF0FF30D7
:102F4000A86201206861EC6007B0BDE8304000F085
:102F500045B807B030BD000049444C4500000000B2
:102F600029250008580000200248016B491C016314
:102F70007047000058000020164810B5016B11B1D1
:102F80000121C16110BD0021C1610169124A01E046
:102F9000B9B1491E01EB810352F82330002BF7D061
:102FA00001EB810302EB830202F1080453685B68C2
:102FB0005360A34201D15B685360DA68026001612B
:102FC00010BD502080F31188BFF34F8FBFF36F8F78
:102FD000FEE7000058000020D40100201CB526495F
:102FE00008780190FF20087008788DF800009DF89F
:102FF00000009DF8002000F0F000904207D0502023
:1030000080F31188BFF34F8FBFF36F8FFEE79DF8FA
:1030100000001A4C00F0500020700720A06005E06E
:103020009DF8002052008DF80020401E9DF80020E1
:103030001206F5D4A060032807D0502080F3118831
:10304000BFF34F8FBFF36F8FFEE74FF44070A06068
:10305000019808700A48016841F470010160016834
:1030600041F070410160FFF761FE00206060FDF7F4
:103070009DF800201CBD000000E400E0CC00002012
:1030800020ED00E010B5502080F31188BFF34F8F82
:10309000BFF36F8F00F0D6FA18B104494FF080509B
:1030A0000860002080F3118810BD000004ED00E0EE
:1030B00038B5049D18B153B1CAB181B120E0502098
:1030C00080F31188BFF34F8FBFF36F8FFEE750205F
:1030D00080F31188BFF34F8FBFF36F8FFEE750204F
:1030E00080F31188BFF34F8FBFF36F8FFEE739B1C5
:1030F000502080F31188BFF34F8FBFF36F8FFEE72F
:1031000050241C46012384F846302B460094FFF7D8
:103110003BFA204638BD000070B50D46040025D0AE
:10312000FFF79EFDD4E90F20216802FB0011A1608A
:103130000021A163216861600A46D4E90F01401EA5
:1031400000FB0121E16021464FF0FF3001F8440F00
:10315000487004F110008DB1FFF750FD04F1240018
:10316000FFF74CFDFFF79CFD012070BD502080F360
:103170001188BFF34F8FBFF36F8FFEE721690029DE
:10318000F0D000F003FB0028ECD004494FF0805051
:103190000860BFF34F8FBFF36F8FE3E704ED00E0EC
:1031A0002DE9FF4782B01D468A464FF00008040013
:1031B00003D0BAF1000F08D011E0502080F311883D
:1031C000BFF34F8FBFF36F8FFEE7206C38B15020F5
:1031D00080F31188BFF34F8FBFF36F8FFEE7022D8F
:1031E0000AD1E06B012807D0502080F31188BFF38B
:1031F0004F8FBFF36F8FFEE700F010FA3F4F4FF095
:1032000000094FF0805648B9049838B1502080F337
:103210001188BFF34F8FBFF36F8FFEE7FFF720FDDD
:10322000A06BE16B884207D3022D05D00498D0B182
:10323000B8F1000F1AD01EE02A4651462046FFF78B
:10324000FCF8616A19B104F1240000F09FFA20B182
:103250003E60BFF34F8FBFF36F8FFFF721FD01205B
:1032600006B0BDE8F087FFF71BFD22E06846FFF7D8
:10327000F5FD4FF00108FFF713FDFFF775FEFFF7AF
:10328000EFFC94F94400401C01D184F8449094F977
:103290004500401C01D184F84590FFF701FD04A9C9
:1032A000684600F029F930B12046FFF785FB00F0B1
:1032B000A5FA0020D4E7FFF7D3FCA06BE16B8842AE
:1032C00013D1FFF7EDFC04F110000499FFF7D4FDD2
:1032D0002046FFF771FB00F091FA00289ED13E6076
:1032E000BFF34F8FBFF36F8F98E7FFF7D9FC2046EE
:1032F000FFF762FB00F082FA90E7000004ED00E0C7
:103300002DE9F0471F4690468946040003D0B9F1E5
:10331000000F08D011E0502080F31188BFF34F8FC9
:10332000BFF36F8FFEE7206C38B1502080F3118817
:10333000BFF34F8FBFF36F8FFEE7022F0AD1E06B11
:10334000012807D0502080F31188BFF34F8FBFF3BF
:103350006F8FFEE7FFF7FCFC5020EFF3118680F340
:103360001188BFF34F8FBFF36F8FA06BE16B884263
:1033700006D3022F04D0002086F31188BDE8F08721
:1033800094F94550A06B3A4649462046FFF755F858
:10339000681C04D06D1C84F845500120ECE7606A7D
:1033A0000028FAD004F1240000F0F0F90028F4D04D
:1033B000B8F1000FF1D00121C8F80010EDE70000CE
:1033C0002DE9F747002683B08A46040003D0BAF1FE
:1033D000000F08D011E0502080F31188BFF34F8F09
:1033E000BFF36F8FFEE7206C38B1502080F3118857
:1033F000BFF34F8FBFF36F8FFEE700F00FF9DFF8D9
:10340000F4804FF000094FF0805748B9059838B163
:10341000502080F31188BFF34F8FBFF36F8FFEE70B
:10342000FFF71EFCA56BC5B151462046FEF7F2FF23
:103430006D1EA563206950B104F1100000F0A6F9DB
:1034400028B1C8F80070BFF34F8FBFF36F8FFFF73D
:1034500027FC012006B0BDE8F087059808B11EB131
:1034600006E0FFF71DFC27E06846FFF7F7FC0126A2
:10347000FFF716FCFFF778FDFFF7F2FB94F9440025
:10348000401C01D184F8449094F94500401C01D1BE
:1034900084F84590FFF704FC05A9684600F02CF875
:1034A000002820460AD0FFF787FA00F0A7F9204647
:1034B000FFF716F90028B3D00020CBE7FFF710F98B
:1034C00090B104F124000599FFF7D6FC2046FFF7E0
:1034D00073FA00F093F90028A2D1C8F80070BFF386
:1034E0004F8FBFF36F8F9BE72046FFF765FA00F021
:1034F00085F995E704ED00E02DE9F0410C46050063
:1035000011D0C4B1FFF7ACFB174BDA686E682068C6
:10351000911B471C17D02F681B6A9F4219D09642F7
:1035200017D8012410E0502080F31188BFF34F8F8B
:10353000BFF36F8FFEE7502080F31188BFF34F8FEA
:10354000BFF36F8FFEE70024FFF7AAFB2046BDE81C
:10355000F081884205D9401A20602846FFF77EFC9A
:10356000F1E700202060DCE7580000202DE9FF5F34
:103570008346DDE90E87994616468A469000FFF796
:1035800051FA05001CD05C20FFF74CFA040014D05F
:103590000020256384F85900CDE90240CDE9008779
:1035A0004B46324651465846FFF700F82046FEF794
:1035B0009DFE012004B0BDE8F09F2846FFF784FB84
:1035C0004FF0FF30F6E7F0B585B0DDE90B640A9DFA
:1035D000A6B1DCB15C2700972663022684F8596007
:1035E000002604AFCDE90246CDE90057FEF7DEFF25
:1035F0002046FEF77BFE049805B0F0BD502080F316
:103600001188BFF34F8FBFF36F8FFEE7502080F319
:103610001188BFF34F8FBFF36F8FFEE705484169F5
:1036200019B1006B18B100207047012070470220CB
:1036300070470000580000200148C0687047000033
:10364000580000202DE9F0412E4C0027206B28B1B6
:10365000A069401CA0613846BDE8F081E668761C90
:10366000E66013D1606B006838B1502080F3118898
:10367000BFF34F8FBFF36F8FFEE7606BA16B61638A
:10368000A063206A401C2062FFF716F9A06ADFF8E9
:103690007880864209D3606B0068A0B1606BC06817
:1036A000C5686868864211D2A0622068C06A00EBD3
:1036B000800158F82100012800D90127E06900287D
:1036C000C9D00127C7E74FF0FF30EDE7281DFFF70E
:1036D0006BFAA86A18B105F11800FFF765FAE86AF5
:1036E0002169884200D9206100EB800108EB81004C
:1036F000291DFFF7A9FAE86A2168C96A8842CAD376
:103700000127C8E758000020D401002070B504004C
:103710004FF0000133D01B4D2868844207D0502061
:1037200080F31188BFF34F8FBFF36F8FFEE7206DDB
:1037300038B1401E2065E36CE26A9A421FD040B166
:103740001DE0502080F31188BFF34F8FBFF36F8FC0
:10375000FEE7201DFFF728FAE06CE062C0F13800B8
:10376000A061E06A2969884200D92861064900EB16
:10377000800001EB8000211DFFF766FA0121084659
:1037800070BD000058000020D401002070B5C06852
:10379000C46854B104F118000646FFF705FA144D49
:1037A000286B50B13146134815E0502080F3118842
:1037B000BFF34F8FBFF36F8FFEE7201DFFF7F4F9C4
:1037C000E06A2969884200D928610B4900EB800032
:1037D00001EB8000211DFFF737FAE06A2968C96A0A
:1037E000884202D90120E86170BD002070BD000050
:1037F000580000205C060020D40100202DE9F0478D
:103800002C4D00242746286B38B1FFF729FA286B86
:10381000401E2863286B40B146E0502080F3118899
:10382000BFF34F8FBFF36F8FFEE7A968224E0120D1
:10383000D1B3A6F5916980463068E0B1F068C468FC
:1038400004F11800FFF7B0F9201DFFF7ADF9E06AA9
:103850002969884200D9286100EB800109EB8100C9
:10386000211DFFF7F1F9E06A2968C96A8842E3D3AC
:10387000C5F81C80E0E70CB1FFF71EF8AC694CB14D
:103880004FEA0806FFF7DEFE00B1EE61641EF9D1D3
:103890000020A861E86938B10849012738070860A5
:1038A000BFF34F8FBFF36F8FFFF7FAF93846BDE8CC
:1038B000F0870000580000205C06002004ED00E0C6
:1038C00010B586B0FEF77AFD114C2068B8B1002023
:1038D0000390049005AA04A903A8FFF783F9DDE982
:1038E000032102208DE8070000230AA10B48059A56
:1038F000FFF769FE606010B106B0012010BD5020D6
:1039000080F31188BFF34F8FBFF36F8FFEE7000086
:1039100094000020546D72205376630095290008AE
:103920002DE9FF411E46134602000A9D4FF000009C
:1039300016D0144C2768002F0FD0CDE90013029247
:10394000062917DAFFF76AFE02284FF000030FD0AE
:10395000002269462068FFF723FC04B0BDE8F0812F
:10396000502080F31188BFF34F8FBFF36F8FFEE7B6
:103970002A46EEE70023324669463846FFF7C0FC88
:10398000EBE700009400002090EA010F48BF81F0AF
:10399000004100F10883421A3CBF801A89184FEA9F
:1039A000D0524FF07F4C1CEA410FA2EBD15318BF0D
:1039B0009CEA026F00F03B804FF0004C4CEA002084
:1039C0004CEA012121FA03FC10EB0C0C1ED202F18F
:1039D000FF325FEA1C2040EBC25038BF70471CF03A
:1039E0007F0F4FEA400C18BFBCF17F4F38BF7047C4
:1039F000C3F12003994008BF20F00100BCF17F4FC4
:103A000038BF7047A0F1C04000F085BA4FEA3C00D3
:103A1000000A40EBC25028BF1CF0FF0F4FEA400CD9
:103A2000E6D018BFBCF17F4F38BF7047EAE79CEA89
:103A3000026F05D010EA5C0F08BF00F0004070472D
:103A400010B500F022FA00BF64FBBE3E50EA010C44
:103A500000F113801CF5000F58BFBCF5000F01D416
:103A60008842704707D710F5000F58BF11F5000FB7
:103A700022D488427047894270471CF5000F04D554
:103A8000BCF5000FF7D5814270474FF0807C1CEBEE
:103A9000400F38BF1CEB410F0ED28142704710B56A
:103AA000FFF7D4FFEFF3008020F0104038BF40F064
:103AB000004080F3008810BDBDE8104010B500F054
:103AC000E4F900BF0000000900F007B84FF04040E3
:103AD00010F1004FEFF300807047401058BFC0F165
:103AE0004040491058BFC1F140418142EFF300808E
:103AF000704700004FF47F0C1CEAD0121EBF1CEA76
:103B0000D11392EA0C0F93EA0C0F00F0858090EA33
:103B1000010F48BF42F4807240F4000C41F40000F1
:103B20002CF07F4120F07F4000B58142A2EB0302E0
:103B30000FF2081CACEB504EC0F100009EF800E004
:103B40004FEA4E0E00FB0EFC38BF49004FEA2C1C1A
:103B500002F5FA020CFB0EF34FEACE1E4FEA112CCF
:103B60004FEAC1210EEB635E42EB22420EFB0CFCDE
:103B70004FEA1C5300FB03114FEA112C4FEA0131AD
:103B80000EFB0CFC4FEADC4C00FB0C11C14228BFC1
:103B900009184CEB03335DF804EB10EB410143EBE8
:103BA000C250B2F57C0F38BF704729D512F0F00F24
:103BB0001CBF00F1C04000F00040704700818283CC
:103BC0008485868788898B8C8D8E8F91929395962C
:103BD00097999A9C9D9FA0A2A3A5A7A8AAACAEB0B6
:103BE000B2B3B5B7B9BCBEC0C2C5C7C9CCCED1D4BB
:103BF000D7D9DCDFE2E6E9ECF0F3F7FAFE000000EB
:103C00004FEA400C0CF1807CBCF17E4F28BF70471E
:103C1000B0F1C04000F07FB990EA010F0CEAD11377
:103C200048BF42F48072624538BF634507D213F43F
:103C30007F0F16D080EA010000F00040704710B5F9
:103C400000F023F9097EFC3E00F005B880EA01008F
:103C500000F00040704780EA010000F0004000F0F2
:103C60005AB912F47F0F04BF0248704780EA01007E
:103C700000F051B90000C07F41000B0ED3F19E024D
:103C800008D950F400034FEA032323FA02F048BF97
:103C90004042704710B500F0F8F800BF4992248008
:103CA000002070476FF0004282EA20007047000059
:103CB000C10DD1F19E0206DB4FEA002343F0004321
:103CC00023FA02F07047004207D54FEA4001B1F1F4
:103CD000FE4F02D24FF00000704710B500F0D5F84B
:103CE00049922480002070476FEA2000704700004E
:103CF00010F0004148BF4042B0FA80F310FA03F2DE
:103D0000C3F19D030BD051EAC35101EB12205306BE
:103D100038BF704700F1010008BF20F00100704774
:103D200050EA010C00F113801CF5000F58BFBCF5E0
:103D3000000F01D48842704707D710F5000F58BF15
:103D400011F5000F15D488427047894270471CF561
:103D5000000F04D5BCF5000FF7D5814270474FF036
:103D6000807C1CEB400F38BF1CEB410F01D281421D
:103D7000704710B500F089F8922449004FF00050C8
:103D80004FF08051FFF7A9BE4FF47F0C1CEAD01210
:103D90001EBF1CEAD11392EA0C0F93EA0C0F00F03D
:103DA000478090EA010F48BF42F480724FF0004C08
:103DB0004CEA00204CEA012102EB0302A0FB0113B4
:103DC000A2F50002002918BF43F001035B0028BFE1
:103DD0004FEA330342EB22425FEA132C4CEBC25012
:103DE0002EBFBCEB436FB2F57C0F70474FEA036CFC
:103DF000BCF1004F08BF20F00100B2F57C0F38BFC6
:103E000070470BD582F0FF0212F5803FC8BF7047A4
:103E100000F1C040D8BF00F00040704700F5000C32
:103E20005FEA4C0C48BF7047B0F1C04000F073B877
:103E300090EA010F0CEAD11348BF42F48072624548
:103E400038BF634504D280EA010000F000407047AB
:103E500010B500F01AF800BF8900013E00F007B865
:103E600000F009B85FEA410C5FEA1C6C08D080EAF8
:103E7000010000F050B85FEA400C5FEA1C6CF6D11C
:103E80004FF00040A0F5800070470EF1020E2EF0BA
:103E9000030E5EF8044B244204D44FEA4102B2F10F
:103EA0007F4F11D84FEA4003B3F17F4F0CD80ED1AA
:103EB0004FEAD07CB2F17F4F0CEB4C0C0CF1020CB2
:103EC00008BF4CEBD17C04E04FF0080C01E04FEA56
:103ED000D17C0CEB4C0324FA03F404F00704B4F196
:103EE000040C06D20EEB840CBDE810404CF0010C23
:103EF0006047DFE80CF0070802024FF00040A0F531
:103F0000800010BD0846420018BFD2F1807288BF01
:103F100000F0004010BDFF2141EAD050C0057047BD
:103F200051EA000C00F113801CF5000F58BFBCF5DE
:103F3000000F01D48142704707D711F5000F58BF19
:103F400010F5000F15D481427047894270471CF567
:103F5000000F04D5BCF5000FF7D5884270474FF02D
:103F6000807C1CEB410F38BF1CEB400F01D2884214
:103F7000704780EA010081EA000180EA0100FFF752
:103F8000F8BE80F0004090EA010F7FF504AD81F0AB
:103F9000004100F008B8000090EA010F48BF81F02E
:103FA00000413FF5F8AC421A04D882F00042A0EB81
:103FB000020011444FEAD0524FF07F4C1CEA410FEF
:103FC000A2EBD15318BF9CEA026F4AD04FF0004CCD
:103FD0004CEA00204CEA012121FA03FCB0EB0C0C66
:103FE0000FD412F0FE0F36D05FEA4C001DD5001240
:103FF00040EBC25038BF70471CF03F0F18BF7047EE
:104000000BE0A2F101025FEA1C2040EBC25038BF76
:1040100070471CF07F0F18BF7047C3F12003994011
:1040200014BF401E20F00100704780084FEA1223A1
:1040300008BF7047B0FA80FCA2EB0C02CCF1280C50
:1040400060FA0CF093EA122F04BF00EBC2507047E5
:104050004FEAC3707047130A5FEADC1008BF70476D
:10406000F6E79CEA026F04D010EA5C0F08BF00205C
:10407000704710B5FFF709FF40DFF63E81F00040C2
:1040800070470000604100080000000000000000D0
:104090000000000000000000000200001800000006
:1040A0000000000000000000504100080000000077
:1040B00000000000000000000000000000020000FE
:1040C0003000000000000000000000007C410008FB
:1040D00000000000000000000000000000000000E0
:1040E00000020000180000000000000000000000B6
:1040F0006C4100080000000000000000000000000B
:10410000000000000002000030000000000000007D
:104110000000000005040406060202030301010575
:10412000050101030302020606040405010202035D
:104130000405060708090A0B0C0D0E0F10100000ED
:104140000000000000000102030406070809000047
:104150005461736B5265636569766543414E000037
:1041600064656661756C745461736B005461736B44
:104170005265616448616C6C000000005461736BAF
:104180004D436F6E74726F6C00000000AC4100080C
:1041900000000020D8000000280100088442000828
:1041A000D8000020F01F00004401000800000000BB
:1041B00000000000000000000000000000000000FF
:1041C00000000000000000000000000000000000EF
:1041D00000000000000000000000000000000000DF
:1041E00000000000000000000000000000000000CF
:1041F00000000000010000001000000000000000AE
:1042000000127A0000000000000000000000000022
:10421000000000000000000000000000000000009E
:10422000000000000000000000000000000000008E
:10423000000000000000000000000000000000007E
:10424000000000000000000000000000000000006E
:10425000000000000000000000000000000000005E
:10426000000000000000000000000000000000004E
:10427000000000000000000000000000AAAAAAAA96
:04428000000000003A
:04000005080000ED02
:00000001FF
