:020000040800F2
:100000004826002045020008DF3A0008473600086D
:10001000DD3A00082F1600084546000800000000E1
:10002000000000000000000000000000AD0100081A
:100030001717000800000000F1010008C142000885
:100040005F0200085F0200085F0200085F0200080C
:100050005F0200085F0200082D190008331900082C
:10006000391900085F0200085F0200085F020008FB
:100070005F0200085F0200085F0200085F020008DC
:100080005F0200085F0200085F0200085F020008CC
:100090005F0200085F0200085F0200085F020008BC
:1000A0005F0200085F0200085F0200085F020008AC
:1000B000394300085F0200085F0200085F02000881
:1000C0005F0200085F0200085F0200085F0200088C
:1000D0005F0200085F020008394600085F0200085E
:1000E0005F0200085F0200085F02000800F002F8EB
:1000F00000F04DF80AA090E8000C82448344AAF175
:100100000107DA4501D100F042F8AFF2090EBAE872
:100110000F0013F0010F18BFFB1A43F0010318473B
:100120005C9000007C900000103A24BF78C878C131
:10013000FAD8520724BF30C830C144BF04680C60ED
:10014000704700000023002400250026103A28BF35
:1001500078C1FBD8520728BF30C148BF0B60704739
:10016000662906F01A83002070471FB500F0C8FC0E
:1001700004000020002106F0A5F9401C606000206A
:10018000002106F089F9E0601FBD10B510BD00F038
:1001900003FE1146FFF7E9FF04F080FA00F02FFE9E
:1001A00003B4FFF7F2FF03BC00F072FE224B1968A4
:1001B0000868B0E8F00F80F30988BFF36F8F4FF045
:1001C000000080F311884EF00D0E70470000000013
:1001D00006480068006880F3088862B661B6BFF31D
:1001E0004F8FBFF36F8F00DF00BF00BF08ED00E04F
:1001F000EFF30980BFF36F8F0F4B1A6820E9F00F00
:10020000106008B54FF0500080F31188BFF34F8F96
:10021000BFF36F8F05F0C4FA4FF0000080F3118830
:10022000BDE8084019680868B0E8F00F80F3098855
:10023000BFF36F8F704700BF6C000020EFF30580A5
:10024000704700000948804709480047FEE7FEE77D
:10025000FEE7FEE7FEE7FEE7FEE7FEE7FEE7FEE776
:1002600004480549054A064B70470000374300081B
:10027000ED000008482000204826002048220020E9
:1002800048220020B2F120030AD5C2F1200320FA4F
:1002900002F001FA03F321FA02F140EA0300704789
:1002A00021FA03F04FF00001704700000FB41CB5B5
:1002B000074B06AA7B4469460090059800F0A1FB15
:1002C0000020694600F0B0FB1CBC5DF814FB000088
:1002D000710700002DE9F0474FF0000A89460446F7
:1002E000C0F820A02046E1688847002876D025285D
:1002F00006D0D4E901219047206A401C2062F1E732
:10030000E168204600258847C4F81CA0064600275F
:10031000C4F818A02A2E09D0304604F0B8F938B332
:1003200004EB8708303EC8F8186019E059F8041B40
:10033000204604EB87029161E1688847012F064659
:1003400018D1E069002820DA25F020051DE0D8F852
:10035000180000EB800006EB40003038C8F81800A9
:100360002046E1688847064604F091F90028EED15E
:10037000012F0AD02E2E08D12046E16888477F1C25
:100380000646022F45F02005C4DBA069002803DAE9
:10039000404245F00105A061E80701D025F01005B5
:1003A000B6B1A6F14100192802D8203645F40065FF
:1003B0004A463146204625604D46FFF7D1FE58B1EA
:1003C000012806D0ED1D25F0070000F1080989E796
:1003D00004E005F1040985E730468AE7206ABDE8B4
:1003E000F08770B5064600F0F3F80468054630461D
:1003F0000A22002100F01DFB2C6070BD401ECAB215
:1004000010F8011F8A4202D00029F9D1002070475C
:1004100030B505460B462A4613F8014B12F8010B7E
:1004200008B1A042F8D01CB1002802D06D1CF1E741
:10043000284630BD40EA0103024630B59B0710D183
:100440004FF0013400E008C208C91D1B9D4315EAA6
:10045000C41FF8D013F0FF0102F8011B0DD01B0AD6
:10046000F8E711F8013B002B02F8013B05D011F829
:10047000013B002B02F8013BF3D130BD032A40F2CF
:10048000308010F0030C00F0158011F8013BBCF136
:10049000020F624498BF11F801CB00F8013B38BF4E
:1004A00011F8013BA2F1040298BF00F801CB38BF5C
:1004B00000F8013B11F0030300F02580083AC0F07A
:1004C000088051F8043B083A51F804CBA0E8081022
:1004D000F5E7121D5CBF51F8043B40F8043BAFF355
:1004E0000080D20724BF11F8013B11F801CB48BFAF
:1004F00011F8012B24BF00F8013B00F801CB48BFE5
:1005000000F8012B704710B5203AC0F00B80B1E81D
:100510001850203AA0E81850B1E81850A0E8185038
:10052000BFF4F5AF5FEA027C24BFB1E81850A0E841
:10053000185044BF18C918C0BDE810405FEA827C5B
:1005400024BF51F8043B40F8043B08BF7047D20772
:1005500028BF31F8023B48BF11F8012B28BF20F813
:10056000023B48BF00F8012B704702F0FF0343EA4B
:10057000032242EA024200F096BA4FF0000200B5B0
:10058000134694469646203922BFA0E80C50A0E8B6
:100590000C50B1F12001BFF4F7AF090728BFA0E864
:1005A0000C5048BF0CC05DF804EB890028BF40F830
:1005B000042B08BF704748BF20F8022B11F0804F72
:1005C00018BF00F8012B7047704770477047000054
:1005D00000487047E41F002070472DE9FF4F0C468C
:1005E0001E464FF0FF378BB0D2E90001DDF8608086
:1005F0000A908A46C1F30A5505B93D4600210846CE
:100600004FF00000BAF1000F00F4400005DA00EBF3
:1006100080004FF4400101EA50004FEA9059B9F1CF
:10062000010F00DDB9460A9850EA4A000ED044F6A0
:100630001050A5F2FF3545432F14B8F1000F1ED01E
:100640007542291E1EDDC9F100021CE0B8F1010F40
:100650004FF0000001D0302103E0F24305E02154C7
:10066000401CB042FBDB30460022002121540B9994
:10067000C1F80880C1E900200FB0BDE8F08FBD1BB4
:100680006D1CDEE74A4600DA694206A800F012FB5C
:1006900006AB93E8070003AB83E8070050460A99CE
:1006A00000F0FDFB8DE80700A0F500501F3800901A
:1006B0000398002D0ADD42F21F014A460844002338
:1006C00003A90390684600F066FE09E0A0F500501B
:1006D0004A461F38002303A90390684600F070FEC5
:1006E0008DE807000004000C03D04FF0FF304108F4
:1006F00000E01046B8F1000F03D00022009215462A
:100700001EE0751E05D400F0FFF9303262556D1EF3
:10071000F9D5B3460122084302D000227F1C04E031
:100720002078302801D100227F1E002A099784D02A
:100730001DE0112D07DA00F0E7F9303262556D1C2B
:1007400050EA0102F5D1084302D00098C8B10EE08A
:100750000021681E05E0235C625C63542254401E45
:10076000491C8142F7DBAB46A81B401E09900020C4
:1007700004F80B000B98099AC0F80880C0E9002B18
:100780007AE711264FF0000857E72DE9F04F884629
:100790000446D21D22F0070191B0D1E90001CDE954
:1007A0000A0103F050FF02460B98C00F01D02D2024
:1007B00007E02068810701D52B2002E0202101EA13
:1007C000C000032A099001D0072A05DB03464146F1
:1007D000204600F0DFF90BE12078800601D5E069C2
:1007E00000E00620B8F1650F814606D0B8F1660F2B
:1007F00018D0B8F1670F70D131E00020B9F1110FB6
:10080000009001DB112301E009F101030AAA01A90B
:100810000CA8FFF7E2FEDDE90C70002609F10105E6
:10082000834647E001204B4600904FF000470AAA5C
:1008300001A90CA8FFF7D1FEDDE90DB00C995D46CA
:10084000002610B909F101000D18B9EB050003D419
:10085000C0F1FF3609F10105A5EB09002BE0B9F164
:10086000010F01DA4FF001090020B9F1110F0090DA
:10087000484601DD112300E003460AAA01A90CA89D
:10088000FFF7ABFEDDE90C704D460026834620786D
:1008900000070AD4AB4500DA5D4601A8012D04DD4E
:1008A000411911F8011C302907D04F4502DA17F120
:1008B000040F04DA012082460FE06D1EEEE7002FE0
:1008C00002DCED1B3E4403E0781CA84200DD7D1CE9
:1008D000B81B00F1010A4FF000472078000703D44D
:1008E000AA4501DB4FF0FF3A0021B7F1004F0DF1AF
:1008F00043088DF8431024D002202B23002F01DA67
:100900007F422D230A21021EA0F1010000DC5FB10D
:1009100097FBF1FC97FBF1F201FB1C7C17460CF1F5
:10092000300C08F801CDEEE7A8F101000370218832
:10093000090501D5452100E06521A0F1010800F875
:10094000011C09980FA9A1EB0807FF1D00B10120A8
:10095000411901EBEA70A1693844081A401EA061F0
:100960002078C00602D42046AFF30080099828B151
:10097000D4E901219047206A401C20622078C006FB
:1009800022D52046AFF300801EE0002E04DBB345E5
:1009900002DD01A8805D00E03020D4E9012190470C
:1009A000206A401C2062761CAAF101005FEA000A5E
:1009B0000AD100F0A5F8C0680168405CD4E90121C3
:1009C0009047206A401C2062281EA5F10105DCDC4E
:1009D00007E0D4E9012118F8010B9047206A401C78
:1009E0002062381EA7F10107F3DC2046AFF3008038
:1009F000032011B041E6000001694A1C0261087839
:100A0000704700B58FB0CDE901310021059105494E
:100A10007944CDE9031011466846FFF75BFC0FB03F
:100A200000BD0000E5FFFFFF0A6802F8010B0A6045
:100A300070472DE9F04791460F4680460446002650
:100A400014F8015B2DB100F053F80068405DC00759
:100A5000F6D12B2D02D02D2D18D0641E4A463946D2
:100A6000204600F0D7F827B13968A14201D1C7F874
:100A700000804FF0020471050BD54042002803DDD1
:100A8000FFF7A6FD0460A007BDE8F08746F4806686
:100A9000E4E70028F8DAFFF79BFD04606FF0004000
:100AA000F2E74FF000020429C0F0128010F0030CAE
:100AB0003FF465ADCCF1040CBCF1020F18BF00F897
:100AC000012BA8BF20F8022BA1EB0C01FFF757BDAB
:100AD0005FEAC17C24BF00F8012B00F8012B48BF5E
:100AE00000F8012B7047000000487047E41F002009
:100AF00010B500F005F8001D10BD00BFC959000079
:100B0000004870470420002030B5B0F10A024FEAD7
:100B1000900E71F100034EEA817EB0EB0E0061EBA6
:100B200091014FEA101E4EEA017E10EB0E0041EBE0
:100B300011114FEA102E4EEA016E10EB0E0041EB40
:100B400011214FEA104E4EEA014E10EB0E0041EB20
:100B50001141401841F100014FEAD00040EA4170D4
:100B60004FEAD10110EB80054FEA810444EA90740A
:100B700044EB01046D1944EB0404521BA3414FF0F4
:100B8000000348BF0A3200D530BD401C41F10001CE
:100B900030BD00002DE9F0411F46044603260168E0
:100BA000072A01F4006004DB08B116A505E016A5CC
:100BB00003E008B115A500E015A521F010002060A4
:100BC000A069C01EA0610FB1401EA0612046AFF316
:100BD00000804FB1D4E9012138469047206A401C7B
:100BE0002062C01C206206E0206AFAE7D4E90121F5
:100BF00015F8010B9047761EF8D22046AFF300801F
:100C0000BDE8F0814E414E006E616E00494E4600D7
:100C1000696E66002DE9F05F824615468B46002717
:100C20000AF10104B9460078302801D09DB113E0E3
:100C300014F8010B0127782803D0582801D045B1BA
:100C40000AE00DB1102D07D1002714F8010B102573
:100C500002E0082500E00A250026B0460EE005FB6C
:100C6000080005FB06F101271FFA80F801EB10468A
:100C7000B6F5803F00D3B94614F8010B294600F0C1
:100C8000B0F80028EBDABBF1000F05D00FB1641EFD
:100C900000E05446CBF80040B9F1000F06D0FFF752
:100CA00097FC02210160C81EBDE8F09F48EA06409B
:100CB000FAE700002DE9F047814616468AB035482C
:100CC00078440DC88DE80D0032487844801C03AC90
:100CD0000DC884E80D0041F69B300844372190FB95
:100CE000F1F290FBF1F5A5F1800501FB12041B3C2C
:100CF00002D56442012000E00020DFF898A0804681
:100D00000027FA44AAF1BE0A0EE0E0070AD03246F4
:100D1000684607EB470101230AEB810100F050FB15
:100D20008DE8070064107F1C002CEED1194F7F4422
:100D3000AE3F19E0E80715D007EB04100DF1180AD3
:100D400090E80E008AE80E00C068F04201D19819C0
:100D500008903246012306A903A800F031FB03AB3B
:100D600083E807006D10641C002DE3D14FF00103F0
:100D700032466946B8F1000F03A802D000F00BFB21
:100D800001E000F01DFBC9E90001C9F808200AB024
:100D9000BDE8F087748400007546FFF7A5FEAE46F7
:100DA00005006946534620F00700854618B020B577
:100DB000FFF756FABDE820404FF000064FF000075D
:100DC0004FF000084FF0000B21F00701AC46ACE8F3
:100DD000C009ACE8C009ACE8C009ACE8C0098D4660
:100DE00070473A2800D2303820F02002412A01D33F
:100DF000A2F13700884201D34FF0FF30704710B5A1
:100E00000446AFF300802046BDE81040FFF7C8B9A4
:100E10004FF0013C50F8042B51F8043B9A4221D189
:100E2000A2EB0C03934313EACC1317D150F8042B15
:100E300051F8043B9A4215D1A2EB0C03934313EAF9
:100E4000CC130BD150F8042B51F8043B9A4209D132
:100E5000A2EB0C03934313EACC13DBD04FF000005A
:100E6000704700BFD01A01BAB1FA81F101F0180140
:100E700022FA01F0CB40C1F12001DBB2C0B2C01AAE
:100E80002CFA01F3D11A914311EAC311E6D170474C
:100E900001491820ABBEFEE72600020070475FEA5A
:100EA000400C08BF91F0000F4FEA8C234FEAC1229B
:100EB00043EA51514FEA1C5018BF00F5F0404FEA89
:100EC000300018BF41F000415FEA6C5C00F02980FF
:100ED000BCF1FF3F08BF40F080407047130C06BFD5
:100EE00012044FF0100C4FF0000C130E04BF12024E
:100EF0000CF1080C130F04BF12010CF1040C930F3A
:100F000004BF92000CF1020CD30F04BF52000CF18D
:100F1000010C11464FF00002A0F11F00A0EB0C00E5
:100F2000704711F0004F08BF704731F000413FF4A7
:100F3000D5AF0B0C06BF09044FF0100C4FF0000C9E
:100F40000B0E04BF09020CF1080C0B0F04BF0901C2
:100F50000CF1040C8B0F04BF89000CF1020CCB0FB9
:100F600004BF49000CF1010CCCF12003A0EB0C00F4
:100F700022FA03F302FA0CF241EA030100F1010044
:100F8000704720F07F4C80EA030023F07F47ACEBF2
:100F9000070303F57C5300F0004003F1FF032DE944
:100FA00080494FEA154B09B44FEA144325EA0B4E2A
:100FB00024EA03480FF2042606EB132749083E787B
:100FC0005FEA320203FB0667C7F5000707FB06F678
:100FD0004FEA54374FEAD64606F1020607FB066C85
:100FE000CCF1005C4FEA1C472CEA074C07FB06F4E7
:100FF0000CFB06F504EB15464FEA961634BF0020AD
:101000004FF000404FEAD13706FB07FC4FEA1C4C7B
:101010000CFB0BF7D21B03FB0CF761EB07010CFB7E
:101020000EF7B0EB074072EB17420CFB08F734BF2A
:10103000A2EB0742B2EB074261EB17414FEA0C44C7
:101040004FEA910706FB07FC4FEA1C4C0CFB0BF721
:10105000B0EBC74072EB573203FB0CF734BFA2EB87
:10106000C742B2EBC74261EB57310CFB0EF7B0EB56
:10107000C70072EB57720CFB08F734BFA2EBC70234
:10108000B2EBC70261EB5771039F4FEA816141EAFE
:10109000921104EBCC044FEAD1374FEA826206FB8F
:1010A00007FC42EA90124FEA80604FEA1C4C0CFBAE
:1010B0000BF7D21B03FB0CF761EB07010CFB0EF7E0
:1010C000B0EB074072EB17420CFB08F734BFA2EB02
:1010D0000742B2EB074261EB17414FEA8C554FEAEA
:1010E000910704EB9C2406FB07FC4FEA1C4C0CFB0D
:1010F0000BF7B0EBC74072EB573203FB0CF734BF72
:10110000A2EBC742B2EBC74261EB57310CFB0EF7C3
:10111000B0EBC70072EB57720CFB08F734BFA2EBC1
:10112000C702B2EBC70261EB577115EB4C254FEAD2
:10113000816141EA92114FEA82624FEAD13742EA75
:10114000901206FB07FC44F100044FEA80604FEA6E
:101150001C4C0CFB0BF7D21B03FB0CF761EB0701DC
:101160000CFB0EF7B0EB074072EB17420CFB08F7D5
:1011700034BFA2EB0742B2EB074261EB174115EB1C
:101180001C154FEA813141EA92414FEA823242EA2C
:1011900090424FEA80304FEA0C7644F1000448EA6E
:1011A00003434EEA0B484FF0000EB2EB080C71EB14
:1011B000030724BF624639464EEB0E0E4FF0000B7C
:1011C0000018524149414BEB0B0BB2EB080C71EB91
:1011D00003077BF1000B24BF624639464EEB0E0E2F
:1011E0004FF0000B0018524149414BEB0B0BB2EB97
:1011F000080C71EB03077BF1000B24BF62463946F4
:101200004EEB0E0E51EA020718BF46F0010616EB30
:101210000E7655F1000254F1000103D5BDE88901B5
:10122000BDE80088BDE88901BDE80048B619524113
:1012300041EB0101A3F10103704780807F7E7D7C3B
:101240007B7A7978777676757473727171706F6E58
:101250006E6D6C6C6B6A6A69686867666665646403
:10126000636362616160605F5F5E5E5D5D5C5C5B8D
:101270005B5A5A59595858575756565555555454FC
:10128000535352525251515050504F4F4F4E4E4D5A
:101290004D4D4C4C4C4B4B4B4A4A4A4949494848A6
:1012A00048474747474646464545454444444443E6
:1012B00043434342424242414141002B9C4630D489
:1012C00077002BD01CB54FEA370703B44FF010005E
:1012D0004FF01001BAF1000F06D0BCF1000FDCBFD7
:1012E00040F0080040F008014FF000000FBCBDE8DE
:1012F00010400BF1010BBBF1010F08BF5FEA1707AC
:1013000022BF12F1010211F101014FF0004143F13E
:10131000000300F0004043EA00007047F9D357088B
:10132000D0E746EA064613F1400F4FEA16461FDDA6
:1013300013F1200FDFBF16430A46002120335B4222
:10134000BED0C3F1200746EA064602FA07F74FEA85
:10135000164646EA0706C3F1200722FA03F201FA0D
:1013600007F721FA03F14FF0000342EA0702A7E76B
:1013700046EA020646EA06464FEA164646EA0106ED
:10138000BCBF46EA0646360C4FF000034FF00002A1
:101390004FF0000194E72DE9804C9A46934670B4D3
:1013A00091E8380007C831EA400C48BF34EA430CE2
:1013B00003D5FFF7E6FDFFF780FFF0BCBDE8008C2A
:1013C0002DE9804C9A46934670B491E8380007C8DE
:1013D00010F0804F08BF13F0804F03D100F005F8E4
:1013E000FFF76BFFF0BCBDE8008C20F07F4780EA80
:1013F000030023F07F4C07EB0C03A3F57C5300F0B4
:101400000040A3F1FE0392F0000F00F0B38095F0CE
:10141000000F00F077802DE901494FEA11404FEAB3
:10142000144621EA004800FB06FC24EA064708FBB4
:1014300006F607FB08F800FB07F718EB06484CEB2D
:10144000164C4FEA124B18EB07484FEA15464CEB87
:10145000174022EA0B4E0BFB06FC25EA06470EFB63
:1014600006F607FB0EFE0BFB07F71EEB064E4CEBDA
:10147000164C4FF000061EEB074E4CEB174B18EBCB
:101480000B0840F1000018EB0E0B58EB000840F180
:1014900000008F1A4FF000013CBFC943661B14BF08
:1014A000B5EB040C00213CBFC943F61B4FEA1744BF
:1014B0004EEA8E0E27EA04454FEA1C4704FB0762FA
:1014C0002CEA074C05FB07F70CFB05F604FB0CFCAC
:1014D00016EB074642EB174216EB0C4642EB1C425A
:1014E0001BEB060658EB0202414146EA9E0601D577
:1014F000BDE80189B619524141EB0101A3F1010395
:10150000BDE801894FEA14454FEA114724EA054630
:1015100021EA074C05FB07F406FB07F70CFB06F175
:1015200005FB0CFC11EB074144EB17444FEA124753
:1015300011EB0C4144EB1C4422EA074C05FB07F27B
:1015400006FB07F70CFB06F605FB0CFC16EB074643
:1015500042EB174216EB0C4642EB1C456A1854F15D
:10156000000148BF7047B619524141EB0101A3F198
:101570000103704795F0000F37D04FEA11424FEA50
:10158000144721EA024624EA074C02FB07F106FB56
:1015900007F70CFB06F402FB0CFC14EB074441EBD1
:1015A00017414FEA154714EB0C4441EB1C4125EA67
:1015B000074C02FB07F506FB07F70CFB06F602FBE0
:1015C0000CFC16EB074645EB174516EB0C4645EBB6
:1015D0001C42121951F1000148BF7047B61952411F
:1015E00041EB0101A3F1010370474FEA14454FEAB3
:1015F000114724EA054621EA074C05FB07F106FBE3
:1016000007F70CFB06F24FF0000605FB0CFC12EB93
:10161000074241EB174112EB0C4251EB1C4148BF12
:101620007047921841EB0101A3F101037047FEE7F7
:101630002DE9F0470C46304E00F16401DFF8B4901C
:1016400003274FF40058A6F12005C82923D840F2FB
:10165000474137613160002803DD00BF4FF00101D1
:1016600001E04FF00001297001DAC0F100004FEAFB
:1016700010216970204BA870A3F10403A3F11C0290
:101680001D491E4800F096FA28B14146484600F030
:1016900098FE72B6FEE7012003F0BEF804F1640084
:1016A000C82822D84FF4896037613060002C02DDF1
:1016B0004FF0010001E04FF00000287001DAC4F1A2
:1016C00000044FEA14200C4B6870A3F10403AC70C3
:1016D000A3F11C020849094800F06CFA28B1414600
:1016E000484600F06EFE72B6FEE7BDE8F047012006
:1016F00003F092B80010014024000020980100205F
:10170000024600204FEA000152F82130491C1844DB
:101710000C29F9D37047704710B502F051FA102127
:10172000142002F081FA0122054906A002F086FB8E
:1017300002F098FBBDE810404FF47A7003F06CB8EB
:101740005400002050494420534156454421000094
:10175000F0B58FB0064602F033FA3C2212496846D3
:10176000FEF7D1FE00246F4604EB440081000D46D5
:10177000002002F059FAB44204D101220B490CA016
:1017800002F05CFB29460F2002F04EFAC4EB041075
:1017900038440122054902F051FB641CE4B2042CD8
:1017A000E2D30FB0F0BD0000406800084C000020FC
:1017B0002D3E000070B58EB00D46060005D0012EFE
:1017C00005D0022E06D0032E07D0404C07E03F4C38
:1017D000183C04E03D4C303C01E03C4C1834002106
:1017E000084602F021FA36B1012E08D0022E11D09F
:1017F000032E09D112E00122354936A002E0012270
:10180000334937A002F01AFB0C21002002F00CFA39
:1018100045B10CE001222E4934A0F3E701222C4906
:1018200036A0EFE701222A4936A002F007FB0C217F
:101830000F2002F0F9F9206804F060FE02460B4622
:1018400031A16846FEF732FD01222149684602F0C7
:10185000F5FA1821002002F0E7F9012D04D1012248
:101860001B4928A002F0EAFA18210F2002F0DCF947
:10187000606804F043FE02460B4626A16846FEF768
:1018800015FD01221249684602F0D8FA24210020F1
:1018900002F0CAF9022D04D101220D4919A002F06B
:1018A000CDFA24210F2002F0BFF9A06804F026FE33
:1018B00002460B461AA16846FEF7F8FC01220449CD
:1018C000684602F0BBFA0EB070BD0000680100204F
:1018D0004C00002050494420504954434800000027
:1018E000504944205350454544000000504944208D
:1018F000504F534954494F4E000000005049442076
:10190000594157002D3E00004B70203D20252E32BE
:10191000660000004B69203D20252E326600000045
:101920004B64203D20252E3266000000012000F08F
:1019300047BC022000F044BC042000F041BC000081
:1019400006490020C8610648016941F004010161AF
:10195000016941F04001016170470000F002002080
:1019600000200240064A0021D16106490A6942F07E
:1019700002020A614861086940F04000086170474E
:10198000F002002000200240044B0022DA61044AE9
:10199000136943F00103136101807047F0020020D6
:1019A0000020024014480022C168CB06134904D528
:1019B000CA6942F00202CA611022C3685B0705D5FA
:1019C000CB6943F00103CB6142F00402C369DB073A
:1019D00007D0CB6943F00403CB61C16921F0010159
:1019E000C161A2F58071013901D0C2607047C1693F
:1019F00021F00101C161704700200240F002002087
:101A000070B5054600F0EAFC0646114C09E0681C7A
:101A100007D025B100F0E2FC801BA84201D90320C9
:101A200070BDE068C007F2D1E068800601D52020D3
:101A3000E060E068C00605D4E069C00702D1E06854
:101A4000400703D5FFF7AEFF012070BD002070BD39
:101A50000020024010B500240460446084600C60E3
:101A60004C6004488C60C2E9000494601C605C60B7
:101A70009C6010BD0000C040F0B515468DB00E460C
:101A800007461A4A1C4669465FF0000052F82030AB
:101A900041F82030401C0D28F8D30846FFF730FEEF
:101AA0000C99814208D023462A4631463846FFF732
:101AB000D1FF01200DB0F0BD00983860019878602A
:101AC0000298B86003983060049870600598B06020
:101AD00006982860079868600898A86009982060B0
:101AE0000A9860600B98A0600020E3E700FC000803
:101AF000F0B593B004680094446801948068029043
:101B000008680390486804908868059010680690FB
:101B100050680790906808901868099058680A9073
:101B200098680B906846FFF7EBFD0C9000F032FBD5
:101B300000200D90134C0120CDE90F4011A90DA8F4
:101B400000F08AFA050004D000F0DAFA284613B053
:101B5000F0BD6F465FF00005002357F825202146B1
:101B6000022000F0D7FA060003D000F0C9FA304690
:101B7000EDE7241D6D1C0D2DEED300F0C1FA002001
:101B8000E5E7000000FC000801463F20884370475D
:101B900090F82020012A07D0022A05D0416A41F49A
:101BA0008021416201207047006842690A43426116
:101BB00000207047F0B590F820500468A468012D0B
:101BC00005D0022D03D0416A41F480214DE014F08C
:101BD000406F01D1E50045D5C4F301640125A5405E
:101BE0001D608D684FF4C0739DB1CE6835434E685B
:101BF00045EAC605066803EB0417F5514FF4C275B4
:101C0000076805EB04150E697E51097D012905D091
:101C100009E00E88CD6845EA4655EBE701684E5964
:101C200046F480764E511179D2F805504FF4C676BD
:101C300041EA0521056806EB0416A9511178D2F88E
:101C400001204FF4C47541EA0221026805EB041536
:101C50005151006803EB0411425842F00102425016
:101C60000020F0BD416A41F4001141620120F0BD45
:101C700010B590F820300268012B07D0022B05D058
:101C8000416A41F480214162012010BDD2F8000276
:101C900040F00100C2F80002087D00F01F0301209F
:101CA0009840D2F81C328343C2F81C32CB69B3B9D6
:101CB000D2F80C328343C2F80C328C894B6864F33F
:101CC0001F434C6902EBC404C4F840320C890B6812
:101CD00064F31F434C6902EBC404C4F84432CB697B
:101CE000012B16D1D2F80C320343C2F80C320C8807
:101CF0004B6864F31F434C6902EBC404C4F84032E0
:101D00000C89CB6864F31F434C6902EBC404C4F82C
:101D100044328B69002BD2F804320FD053EA00030F
:101D2000C2F804320B69002BD2F8143208D00343F6
:101D3000C2F81432096A012904D008E08343EFE7AE
:101D40008343F5E7D2F81C120143C2F81C12D2F803
:101D5000000220F00100C2F80002002010BD70B5A2
:101D6000040003D094F8200010B104E0012070BDFD
:101D7000204600F081F82068016841F0010101600F
:101D800000F02CFB0546052604E000F027FB401B75
:101D90000A2811D820684068C007F6D0206801687A
:101DA00021F00201016000F019FB05460BE000F094
:101DB00015FB401B0A2806D9606A40F400306062B7
:101DC00084F82060D2E7206840688007EFD4207E46
:101DD0000128206801683DD021F080010160607E0B
:101DE00001282068016838D021F040010160A07E00
:101DF00001282068016833D021F020010160E07ED5
:101E00000128206801682ED041F010010160207F78
:101E100001282068016829D021F008010160607F55
:101E200001282068016824D021F004010160D4E970
:101E300002010843D4E90412114308436168491EB2
:101E400008432168C86100206062012084F82000F6
:101E5000002070BD41F08001C0E741F04001C5E7BE
:101E600041F02001CAE721F01001CFE741F008015D
:101E7000D4E741F00401D9E710B586B00021009104
:101E80000191029103910068184988422BD11848AA
:101E9000C16941F00071C161C16901F00071049133
:101EA000816941F0080181618069124C00F00800ED
:101EB00004904FF4807000906946204600F08CF941
:101EC000601500900220019003200390694620468F
:101ED00000F082F90848416821F4C04141F0E06116
:101EE00041F48041416006B010BD00000064004034
:101EF00000100240000C01400000014070B5044693
:101F000090F82000012804D0606A40F4002060624C
:101F100018E0022084F820002068016821F0010107
:101F2000016000F05BFA05460EE000BF00F056FAD3
:101F3000401B0A2808D9606A40F40030606205201E
:101F400084F82000012070BD20684068C007EDD1F2
:101F5000606270BD10B590F821100022022905D0F2
:101F60000421816380F82020012010BD01680B68E6
:101F700023F00E030B6001680B6823F001030B6074
:101F800090F84030C46B012101FA03F3636080F8DC
:101F9000211080F82020104610BD000010B590F8E8
:101FA00021100024022903D00421816301243DE093
:101FB00001680A6822F00E020A6001680A6822F0CD
:101FC00001020A601A4A0168914201D1012121E00F
:101FD000174A1432914201D110211BE0144A2832D1
:101FE000914201D1891515E0114A3C32914201D14B
:101FF00089140FE00E4A5032914202D14FF48031E1
:1020000008E00B4A6432914202D14FF4801101E0A2
:102010004FF08071064A083A5160012180F8211082
:10202000002180F82010416B01B18847204610BD87
:102030000800024070B5044600F0D0F90546601C67
:1020400002D004480078044400F0C8F9401BA042C4
:10205000FAD370BD3C0000202DE9F0470546264824
:102060000F460126017E01290FD00121814601760C
:102070002868DFF888804CF25034022808D0A24645
:102080002046FFF7BDFCA8B131E00220BDE8F08793
:102090002046FFF7B5FC08BB0120FFF751FC2046A6
:1020A000FFF7AEFCD8F81010064621F00401C8F87E
:1020B00010101CE04FF0FF303860AC6811E0204693
:1020C000FFF750FC5046FFF79BFCD8F810100600B5
:1020D00021F00201C8F8101001D03C6007E004F5BF
:1020E0008064D5E9020100EB8120A042E7D80021FD
:1020F00089F818103046C9E7F0020020002002409D
:102100000348016941F0800101610020704700002F
:10211000002002402DE9F05F07461C488846002455
:10212000017E15461E46012909D00121814601760E
:102130004CF2503A5046FFF763FC18B122E00220FF
:10214000BDE8F09F012F02D0022F00D00427D34614
:10215000DFF83CA0220128463146FEF793F881B211
:1021600008EB4400FFF710FC5846FFF749FCDAF88B
:10217000102022F00102CAF8102018B9641CE4B241
:10218000BC42E7D3002289F81820D9E7F0020020EA
:1021900000200240064900200A69120607D5054AB8
:1021A0004A60054A4A600969090600D5012070475E
:1021B0000020024023016745AB89EFCD7047000046
:1021C000044910B50A68024202D00860FFF7F6FF22
:1021D00010BD0000140401402DE9F84FDFF8B8915C
:1021E0000024A9F1040B23460F2709F1040AABF1DF
:1021F000040EC9E00125A5402A40AA427DD1674EC0
:10220000D1F804C0ACEB0608B44532D014DCBCF104
:10221000030F3AD009DCBCF1000F2AD0BCF1010F4A
:102220001CD0BCF1020F31D11DE0BCF1110F17D051
:10223000BCF1120F2AD119E0B8F5881F19D006DCBD
:10224000B8F5803F15D0B8F5801F1FD111E0B8F563
:10225000001F0ED0B8F5041F18D10AE0CB6815E0B6
:10226000CB681B1D12E0CB6808330FE0CB680C3342
:102270000CE08B682BB1012B4FF0080303D04561B4
:1022800004E0042302E0056100E00023FF2A01D8F6
:10229000064601E000F104064FEA840501D9A5F1E4
:1022A0002005D6F8008007FA05FC28EA0C0803FA96
:1022B00005F548EA0508C6F800804D68ED0062D5CE
:1022C000374DAE6946F00106AE61AD6924F00306F4
:1022D00005F001050095334D06EB050CDCF80850C0
:1022E000A607360F07FA06F825EA0805DFF8B880D2
:1022F000404503D14FF0000817E044E0DFF8AC8020
:10230000404502D14FF001080FE0DFF8A4804045BE
:1023100002D14FF0020808E0DFF89880404502D172
:102320004FF0030801E04FF0040808FA06F848EA05
:102330000508CCF808804D68D9F80060ED024D46DC
:1023400001D5164300E096432E604D68DAF8006030
:10235000AD02554601D5164300E096432E604D6808
:10236000DBF80060AD035D4601D5164300E09643FF
:102370002E604D68DEF80060ED03754601D516430A
:1023800000E096432E60641C0D682A46E5407FF409
:1023900031AFBDE8F88F00000804014000001110C3
:1023A000001002400000014000080140000C014004
:1023B00000100140001401408068084000D0012056
:1023C0007047C26821EA02030A4043EA0241016100
:1023D00070470AB1016170470904FBE70148806852
:1023E000704700003C00002070B5040025D094F830
:1023F0003D00002520B984F83C50204600F004FA46
:10240000242084F83D002068016821F0010101606A
:102410002068016841F4004101602068016821F4EE
:102420000041016000F052FB4D4A6168914201D8C1
:102430004C4900E04C49884201D2012070BD4B4913
:102440002368B0FBF1F15E6826F03F060E435E6044
:102450006368934206D94FF4967359434FF47A73E5
:10246000B1FBF3F12368491C1E6A26F03F06314395
:1024700019626168914210D84900401EB0FBF1F228
:10248000521CC2F30B02042A01D2042022E0B0FB4A
:10249000F1F0401CC0F30B001CE0A268F2B301EBAA
:1024A000C10303EB0116431EB3FBF6F35B1C43F4BD
:1024B00080431B0549D092B301EBC10202EB01112D
:1024C000401EB0FBF1F0401CC0F30B0040F4804014
:1024D00040F400402168CA694CF6FF739A431043E8
:1024E000C861D4E9071001432068026822F0C002E5
:1024F00011430160D4E9030101432068826848F276
:10250000FF339A4311438160D4E9050108432168F0
:10251000CA6822F0FF021043C86001E00EE016E036
:102520002068016841F0010101602564202084F8E1
:102530003D00256384F83E50002070BD01EB41064C
:10254000431EB3FBF6F35B1CB3E70120C2E701EBCC
:102550004101401EB0FBF1F0401CC0F30B00B7E797
:10256000A086010080841E0000093D0040420F004B
:102570002DE9FF4F81B089460446FFF72FFF05463E
:1025800094F83D004FF0000820287DD11923012246
:1025900050492046009501F0E9F8002874D194F8DC
:1025A0003C00012870D0012084F83C0020680168BC
:1025B000C90703D1016841F0010101602068016889
:1025C00021F400610160242084F83D000026266487
:1025D0004148E0624FF0011B20272068016841F468
:1025E000807101600095002259462046049B01F04D
:1025F000BDF850B120680068C00502D54FF40070E6
:102600002064032005B0BDE8F08F216809F0FE00CA
:102610000861FFF7E3FE2168054648694969C0F390
:102620004000C1F380214FF0A00A0FE0FFF7D6FE73
:10263000411B0498814200D808B984F83DA0216864
:1026400048694969C0F34000C1F3802194F83D20F6
:10265000A02A02D008B90029E8D084F83D7020688B
:102660004169C943890716D4016841F400710160CA
:102670002068416980691923012216492046009586
:1026800001F074F8B8B900E021E084F83D7084F8F6
:102690003C600020B6E7016841F4007101602168E8
:1026A0006FF480604861192301220A492046009591
:1026B00001F05CF808B10120A4E7039808F10108D3
:1026C00080458AD384F83D7084F83C60F3E70220AB
:1026D00098E70000020010000000FFFF2DE9F84F0E
:1026E0001F4690468A460446DDF82890FFF776FE9E
:1026F000054694F83D0020287FD119230122404946
:102700002046009501F032F8002876D194F83C007C
:10271000012872D0012084F83C0020680168C907B4
:1027200003D1016841F0010101602068016821F4D2
:1027300000610160212084F83D00102084F83E00F3
:1027400000262664C4F824806785608D20852D4886
:10275000E0622B464A465146204600F08DFF90B974
:10276000206841698069009036E02A464946204643
:1027700001F0A2F850B1206C042804D1206801684F
:1027800041F4007101600120BDE8F88F606A2168A2
:1027900000780861606A401C6062618D491E618535
:1027A000218D491E89B2218522685369DB435B076D
:1027B0000BD451B100781061606A401C6062608D7A
:1027C000401E6085208D401E20852A4649462046B1
:1027D00000F0A0FF0028CED1208D0028C5D154F8EC
:1027E0003D0B016841F400710160202004F81E09CE
:1027F000E67766770020C7E7FFE70220C4E700001E
:10280000020010000000FFFF10B586B0002100910B
:1028100001910291039100680F4988421AD10F4C2F
:10282000A06940F00800A061A069694600F00800B6
:102830000490C020009012200190032003900848CB
:10284000FFF7CAFCE06940F40010E061E06900F4C1
:102850000010049006B010BD00540040001002406B
:10286000000C014002488168027811448160704781
:102870003C000020074810B5016841F010010160DC
:10288000032000F07BF80F2000F006F800F024F899
:10289000002010BD0020024070B50D4D04464FF4DD
:1028A0007A712878B1FBF0F00A490968B1FBF0F0C1
:1028B00000F0E2FA48B9102C07D200222146501E3F
:1028C00000F03CF800206C6070BD012070BD00007D
:1028D0003C000020480000200F4808B5816941F005
:1028E00001018161816901F001010091C16941F03B
:1028F0008051C161C069002200F0805000900F211A
:10290000901E00F01BF80548416821F0E06141F09D
:102910000071416008BD000000100240000001404D
:10292000002809DB00F01F020121914040098000CE
:1029300000F1E020C0F8001170470000F0B40E4B29
:102940001B680C46C3F30223C3F10705042D00D90D
:102950000425191D072901D2002300E0DB1E0126F2
:1029600006FA05F1491E214099409E40761E164008
:102970003143F0BC01F07BBE0CED00E0064900F0F5
:10298000070208684FF6FF03184040EA0220034A96
:1029900010430860704700000CED00E00000FA05ED
:1029A0002DE9F0470F46050061D0434E306800F036
:1029B0000700B84209D2306820F007003843306081
:1029C000306800F00700B84251D128683B4C8107BD
:1029D00012D5400703D5606840F4E0606060287855
:1029E000000703D5606840F4605060606068A968C3
:1029F00020F0F000084360602878C00728D068689D
:102A0000012810D02168022810D0890700292EDA69
:102A1000616821F0030101436160FFF7DFFC80463C
:102A200041F288390DE021688903EFE78901EDE77C
:102A3000FFF7D4FCA0EB0801494502D90320BDE80B
:102A4000F0876068696800F00C00B0EB810FEFD18F
:102A5000306800F00700B8420BD9306820F007005A
:102A600038433060306800F00700B84201D00120E0
:102A7000E5E72878400705D56068E96820F4E0605C
:102A8000084360602878000706D56068296920F44B
:102A9000605040EAC100606000F038F86168084AA0
:102AA000C1F30311515CC84006490860064800683C
:102AB000FFF7F2FE0020C2E70020024000100240B3
:102AC0008E680008480000204000002004480549A6
:102AD00000684968044AC1F30221515CC84070474C
:102AE00048000020001002409E6800080448054984
:102AF00000684968044AC1F3C221515CC84070476C
:102B000048000020001002409E6800080E4A5168EC
:102B10000E4801F00C03042B11D0082B0FD10C48E8
:102B2000C1F38343C903C05C0AD55168084AC1F3A5
:102B30004041921E515C054A5043B0FBF1F0704792
:102B400004494843704700000010024000127A0018
:102B50007E68000800093D002DE9F84F040070D0A0
:102B60002078C04DC00749D06868C0F381000128B3
:102B700007D06868C0F38100022809D16868C003E3
:102B800006D52868800339D560680028E7D035E08D
:102B90006068B0F5803F0BD010B1B0F5A02F11D018
:102BA000286820F480302860286820F4802002E023
:102BB000286840F480302860606890B1FFF70EFC10
:102BC00006460AE0286840F480202860F0E700BF4D
:102BD000FFF704FC801B642873D828688003F7D5AE
:102BE0000CE0FFF7FBFB064605E000BFFFF7F6FB36
:102BF000801B6428F0D828688003F7D420789A4E88
:102C000080074FF001094FF0000839D5686810F0CF
:102C10000C0F07D06868C0F38100022809D16868EA
:102C2000C00306D42868800714D52069012808D17C
:102C300010E02069B0B1C6F80090FFF7CFFB07465F
:102C400005E00AE1FFF7CAFBC01B0228C4D82868C8
:102C50008007F7D52868616920F0F80040EAC100D4
:102C600028600DE0C6F80080FFF7B8FB074604E0D7
:102C7000FFF7B4FBC01B022823D828688007F7D4CD
:102C8000207800072CD57948A169D9B1C0F8009007
:102C9000FFF7A4FB074604E0FFF7A0FBC01B0228D8
:102CA0000FD8686A8007F7D571484FF4FA51006869
:102CB000B0FBF1F0009000BF0098411E0091FAD2E5
:102CC0000EE080E0C0F80080FFF788FB074604E0D4
:102CD000FFF784FBC01B022875D8686A8007F7D409
:102CE0002078400760D5E8690027C00008D4E8696B
:102CF00040F08050E861E869012700F080500090C2
:102D00005C480168C90513D40168834641F48071A9
:102D10000160FFF763FB824606E000BFFFF75EFB42
:102D2000A0EB0A0064284ED8DBF80000C005F5D5FA
:102D3000E06801280AD008B1052813D0286A20F0DD
:102D400001002862286A20F0040002E0286A40F0AE
:102D500001002862E06841F2883B98B1FFF73EFB32
:102D600082460BE0286A40F004002862EEE700BFCC
:102D7000FFF734FBA0EB0A0159455AD8286A8007AF
:102D8000F6D50CE0FFF72AFB824605E0FFF726FBAD
:102D9000A0EB0A0159454CD8286A8007F6D41FB128
:102DA000E86920F08050E861E06988B36968C1F3A0
:102DB0008101022944D00228C6F8608004D0FFF7C0
:102DC0000DFB044638E034E0FFF708FB074604E05B
:102DD000FFF704FBC01B02282BD828688001F7D41A
:102DE000206AB0F5803F05D16868A16820F4003002
:102DF00008436860D4E908010843696821F4741144
:102E000008436860C6F86090FFF7E8FA044606E0F9
:102E100025E000BFFFF7E2FA001B022809D8286866
:102E20008001F7D51BE000BFFFF7D8FA001B02288E
:102E300002D90320BDE8F88F28688001F4D40EE0A1
:102E40000128F7D06868226A00F48031914204D1E9
:102E5000616A00F47010884201D00120EAE7002086
:102E6000E8E70000001002400000424280044242B5
:102E7000480000200070004010B5401EB0F1807F77
:102E800001D3012010BD4FF0E02460610F216017D5
:102E900001F0EDFB0020A06107202061002010BDA3
:102EA0007047704770B590F83C20012A26D0012465
:102EB00080F83C40022280F83D2003685A689D68F3
:102EC00022F070060A6832435A600D4B02689A423B
:102ED00008D0B2F1804F05D00A4B9A4202D00A4B7B
:102EE0009A4204D1496825F080031943916080F823
:102EF0003D40002180F83C10084670BD022070BDA6
:102F0000002C0140000400400008004010B50400FF
:102F100003D094F83D0010B107E0012010BD00205F
:102F200084F83C00204600F01FF8022084F83D00A1
:102F3000211D206801F006FA012084F8460084F87B
:102F40003E0084F83F0084F8400084F8410084F893
:102F5000420084F8430084F8440084F8450084F873
:102F60003D00002010BD000008B50068B0F1804FA2
:102F700012D10A48C16941F00101C161C069002252
:102F800000F00100009005211C20FFF7D7FCBDE8F0
:102F900008401C20FFF7C4BC08BD00000010024020
:102FA00090F83D10012901D001207047022180F8DE
:102FB0003D100168CA6842F00102CA6000680B490E
:102FC000884208D0B0F1804F05D00949884202D02C
:102FD0000849884204D1816801F00701062903D01D
:102FE000016841F00101016000207047002C0140A0
:102FF000000400400008004070B5044690F83C0012
:103000000025012817D0012684F83C60022084F8AE
:103010003D002068826822F0770222F47F428260BD
:103020000868502838D00DDC20284FD005DC90B33C
:10303000102811D14AE0022070BD302846D0402827
:103040000AD13BE060282FD070280DD0B0F5805F0A
:1030500003D0B0F5005F12D0012584F83D60002058
:1030600084F83C00284670BDCB68D1E90121206876
:1030700001F0A4F92068816841F0770109E0CB688C
:10308000D1E90121206801F099F92068816841F4B3
:1030900080418160E1E719E0CA684968206801F071
:1030A0009FF95021206806E0CA684968206801F04D
:1030B000A8F96021206801F08BF9CEE7CA68496859
:1030C000206801F08DF940212068F4E7226801466C
:1030D0001046F0E770472DE9F04104460068C668E5
:1030E00005694FF00007A90713D5B10711D5F91EDF
:1030F000016101202077206880698007204602D086
:10310000FFF7E8FF04E000F07EF8204600F07CF8CE
:103110002777680716D5700714D521686FF004006B
:103120000861022020772068806910F4407F2046E3
:1031300002D0FFF7CFFF04E000F065F8204600F072
:1031400063F82777280715D5300713D521686FF066
:1031500008000861042020772068C06980072046A5
:1031600002D0FFF7B7FF04E000F04DF8204600F072
:103170004BF82777E80616D5F00614D521686FF0CE
:1031800010000861082020772068C06910F4407F93
:10319000204602D0FFF79EFF04E000F034F82046FE
:1031A00000F032F82777E80708D0F00706D021684A
:1031B0006FF001000861204600F027F8280608D5C6
:1031C000300606D521686FF0800008612046FFF7C1
:1031D00067FE680608D5700606D521686FF04000C6
:1031E0000861204600F012F8A8060AD5B00608D5F6
:1031F00021686FF0200008612046BDE8F041FFF72C
:1032000050BEBDE8F0817047704770477047704707
:1032100070470000F8B5016804460868CA684B6941
:1032200010F00F0F4FF0000559D003F0010602F423
:103230009077374365D0C10705D0D10503D5616CC0
:1032400041F001016164410705D5D90703D0616CE4
:1032500041F002016164810705D5D90703D0616C93
:1032600041F004016164010707D502F020013143F8
:1032700003D0616C41F008016164616C00293AD0AF
:10328000800604D5900602D5204601F0FBF82068A0
:103290004069616CC0F38010090700D460B3204618
:1032A00001F0C9F820684069400621D52068143033
:1032B00050E8001F21F0400140E80012002AF5D13B
:1032C000E06BA8B16D494163E06BFEF767FE002833
:1032D00011D0E06B416B01B0BDE8F04008478306B8
:1032E0000FD593060DD52046BDE8F84001F0CAB8C9
:1032F0002046FFF78DFFF8BD2046FFF789FF656484
:10330000F8BD266B2023012E7CD1C6067AD5D606C1
:1033100078D508684868009048694FF00206400672
:1033200040D5E16B086840680004000CE8D0A28D2D
:103330008242E5D9E085886920282DD020680C30AC
:1033400050E8001F21F4807140E80012002AF5D1F6
:103350002068143050E8001F21F0010140E80012FD
:10336000002AF5D12068143050E8001F21F04001F8
:1033700040E80012002AF5D184F842302563206825
:103380000C3050E8001F21F0100140E80012002A24
:10339000F5D1E06BFEF7DEFD6663A08DE18D401A8E
:1033A00081B22AE0A08DE18D401A81B2E08D002823
:1033B000A6D00029A4D022680C3252E8000F20F4D5
:1033C000907042E80007002FF5D12068143050E8D3
:1033D000002F22F0010240E80027002FF5D184F8E9
:1033E0004230256320680C3050E8002F22F0100294
:1033F00040E80023002BF5D166632046FFF707FF66
:10340000F8BDFFE705062BD5150629D594F8410030
:103410002128F5D1A068B0F5805F01D12069B0B155
:10342000206A411C2162216800784860E08C401EBF
:103430000004000CE084E3D12068C16821F0800121
:10344000C1602068C16841F04001C160D8E7206ACE
:103450000088C0F308004860206A801C2062E5E70D
:103460004006CDD55006CBD5CA68204622F0400292
:10347000CA6084F8413000F0E5F8C1E7274400084D
:1034800070B5040004D094F84100002510B106E0A6
:10349000012070BD84F84050204600F023F824201D
:1034A00084F841002068C16821F40051C1602046C1
:1034B00001F04AF82068016921F490410161206817
:1034C000416921F02A0141612068C16841F400513D
:1034D000C1606564202084F8410084F8420065637F
:1034E000002070BD30B585B0002400940194029492
:1034F00003942C4D03682C4802210322AB422BD1AC
:10350000C36943F40033C361C36903F40033049314
:10351000836943F0040383618069244D00F0040053
:1035200004900420CDE90001039269462846FEF785
:1035300053FE0820CDE90004012002906946284688
:10354000FEF74AFE002205212620FFF7F7F9262084
:10355000FFF7E6F905B030BD154DAB42FAD1C369AE
:1035600043F48023C361C36903F480230493836914
:1035700043F0080383618069039200F0080004901F
:103580002815CDE900010B4D69462846FEF724FEBB
:10359000E814CDE90004694628460294FEF71CFEB3
:1035A000D8E700000044004000100240000801403D
:1035B00000480040000C014090F84230202B01D020
:1035C0000220704721B11AB10023036301F018B83B
:1035D0000120704710B500681649884229D1FEF7CE
:1035E000FDFE154948641548C2780A2A14D00D2AF0
:1035F00012D091F840003F2806D291F840000B18F5
:10360000401C81F840001A700C490122BDE81040AE
:10361000C91C0B48FFF7D0BF91F8402000202AB109
:1036200091F840208854012281F8482081F8400018
:10363000EAE710BD00440040EC000020000000203C
:103640005C0200207047FEE701684A69D2435205D8
:103650000FD46FF480624A61002140F8301F2022AD
:1036600042738173026942F0040202610173012016
:103670007047002070470000F8B50446C06A1E4637
:103680000D461746082807D0012805D010F5803FC1
:1036900002D0206B122804D12068016841F48071A7
:1036A0000160134600224FF001112046009600F001
:1036B0005DF840B120680068C00502D54FF4007085
:1036C00020640320F8BD2069B0F5804F0ED006209D
:1036D000216800EAD51040F0F000086133463A4610
:1036E0000B49204600F08AF878B902E005F0FE00A8
:1036F00000E0E8B221680861054933463A46891F6F
:10370000204600F07BF80028DCD00120F8BD000046
:103710000800010070B516460D4604461EE020461E
:10372000FFF792FF08B1012070BD681C16D0FEF7AC
:1037300055FE801BA84200D885B920684069C04367
:1037400040070BD5002044F8300F20216173A0738F
:10375000216941F0200121612073E4E7206840697C
:10376000C0434007DBD4002070BD00002DE9F047C6
:10377000984617460D460446C1F30746DDF82090EB
:103780002AE000BFB8F1FF3F26D0FEF727FEA0EBEE
:103790000901414502D8B8F1000F1DD12068012E62
:1037A00016D0806925EA00000004000C12D0002029
:1037B000B84211D1002044F8300F20216173A0736A
:1037C000216941F02001216120730120BDE8F087CB
:1037D0004069E7E70120EBE72068012E0AD0806905
:1037E00025EA00000004000C06D00020B842C9D031
:1037F0000020EBE74069F3E70120F7E72DE9F04708
:10380000984616460D4604464FF000094FF0200A30
:10381000C1F3074723E020684069C043400515D441
:103820002068016841F40071016021686FF48060D4
:103830004861C4F8309084F83DA084F83E90216C33
:1038400041F00401216484F83C9021E0701C06D012
:10385000FEF7C4FDA0EB0800B04203D816B1012F5B
:103860001FD021E02068012F15D0806925EA0000D3
:103870000004000C18D000BF44F8309F84F80DA05D
:1038800084F80E90216941F02001216184F80C90A8
:103890000120BDE8F087406925EA00000004000C23
:1038A000EAD12068406901E02068806925EA0000CB
:1038B0000004000CAFD1ECE770B516460D46044687
:1038C0001EE02046FFF7C0FE08B1012070BD681C55
:1038D00016D0FEF783FD801BA84200D885B920686A
:1038E0004069C04300060BD5002044F8300F20216A
:1038F0006173A073216941F0200121612073E4E725
:1039000020684069C0430006DBD4002070BD000081
:1039100030B517488BB01549016009210024C0E972
:1039200001144FF48031C0E903414461047601255C
:1039300045768576C47604774477FEF710FA08B1A9
:1039400072B6FEE71220CDE9044044F2202008952B
:10395000CDE90004CDE90204282009906946044815
:10396000CDE90645FEF784F90BB030BD0064004098
:1039700098010020F0B585B00024394800940194E6
:1039800002940394816941F010018161816901F021
:1039900010010491816941F020018161816901F088
:1039A00020010491816941F004018161816901F084
:1039B00004010491816941F0080181618069294E07
:1039C00000F008004FF400550490002229463046CC
:1039D000FEF7FFFC244F002260213846FEF7F9FC79
:1039E0000220CDE902400095012569460195304647
:1039F000FEF7F2FB6020CDE900050320CDE902408F
:103A000069463846FEF7E8FB28038DE83100174D7C
:103A100069462846FEF7E0FB082000901448CDE9EF
:103A2000010469462846FEF7D7FB0022114606200E
:103A3000FEF784FF0620FEF773FF002211460720E1
:103A4000FEF77CFF0720FEF76BFF002211460820DF
:103A5000FEF774FF0820FEF763FF05B0F0BD00001D
:103A6000001002400010014000080140000C01401D
:103A70000000111010B586B000241748009401947E
:103A80000294039404944FF080410594016041F640
:103A90001F41C0E9011440F2E731C0E90314846119
:103AA000FFF734FA08B172B6FEE74FF48050009089
:103AB00069460948FFF7A0FA08B172B6FEE7049418
:103AC00004A905480594FFF7EDF9002801D072B666
:103AD000FEE706B010BD000014020020FEE7FEE77E
:103AE0002DE9F84F344F0024224640213846FEF796
:103AF00070FC012220213846FEF76BFC00222021B9
:103B00003846FEF766FC0025ADF8005005E000BF22
:103B1000BDF80000401CADF80000BDF800001428FE
:103B2000F6D3012220213846FEF753FCADF80050B1
:103B300005E000BFBDF80000401CADF80000BDF876
:103B400000001428F6D3DFF874A000264FF4805943
:103B50004FF0800849465046FEF72EFC10B128FA77
:103B600006F00443012240213846FEF732FCADF84E
:103B7000005004E0BDF80000401CADF80000BDF8A6
:103B800000001428F6D3002240213846FEF721FC1D
:103B9000ADF8005005E000BFBDF80000401CADF8D6
:103BA0000000BDF800001428F6D3761CF6B2082EEB
:103BB000D0D32046BDE8F88F00080140000C01403A
:103BC00010B5002000F024F8BDE8104000F04AB91C
:103BD00070B5802813D2402911D20B4B012401F07B
:103BE00007051E79AC40094BC90800EBC1100EB1A6
:103BF00032B101E0012A03D0195CA143195470BD10
:103C0000195C2143FAE70000640000201003002043
:103C100028B1FF224FF480610248FCF7A6BC0022C5
:103C2000F8E7000010030020014A1080518070471F
:103C30006400002010B501F051FB44F6206301221E
:103C400078215448FEF794FC08B1002010BD40F6DE
:103C5000C210401EFDD1AE220021782001F044FBAD
:103C600020220021782001F03FFB10220021782043
:103C700001F03AFBB0220021782001F035FBC82288
:103C80000021782001F030FB00221146782001F05D
:103C90002BFB10220021782001F026FB402200217E
:103CA000782001F021FB81220021782001F01CFB0B
:103CB000FF220021782001F017FBA12200217820AB
:103CC00001F012FBA6220021782001F00DFBA822B2
:103CD0000021782001F008FB3F220021782001F02C
:103CE00003FBA4220021782001F0FEFAD322002158
:103CF000782001F0F9FA00221146782001F0F4FA58
:103D0000D5220021782001F0EFFAF022002178205E
:103D100001F0EAFAD9220021782001F0E5FA222206
:103D20000021782001F0E0FADA220021782001F069
:103D3000DBFA12220021782001F0D6FADB220021E2
:103D4000782001F0D1FA20220021782001F0CCFA6D
:103D50008D220021782001F0C7FA1422002178205A
:103D600001F0C2FAAF220021782001F0BDFA2E2224
:103D70000021782001F0B8FA0020FFF749FF00F099
:103D800071F80548002101804180012141710846F8
:103D900010BD0000C0010020640000202DE9F047A4
:103DA000814625480D46924601882A78114480298B
:103DB00005D28046408869780844402802D3002014
:103DC000BDE8F08700262AE0A9F1200101FB006090
:103DD0006A68002432F810701DE000BF07FA04F092
:103DE000000409D5B8F80210B8F8000031442044A6
:103DF00089B280B252460BE0BAF1000F1AD000220D
:103E0000B8F80210B8F800003144204489B280B2FA
:103E1000FFF7DEFE641C2878A042DFD8761C6878A5
:103E2000B042D1D8B8F800102A7848461144A8F812
:103E30000010C5E70122E3E76400002070B51546D5
:103E40000E46044609E02A463146FFF7A7FF2178CF
:103E5000884201D0C8B270BD641C20780028F2D11D
:103E6000C0B270BD70B5104D002400BF04F1B000A9
:103E7000C2B20021782001F037FA002211467820E2
:103E800001F032FA10220021782001F02DFA05EB22
:103E9000C41280234021782001F036FA641CE4B279
:103EA000082CE3D370BD0000100300202DE9F04F73
:103EB000244B8DB008AC0FCB84E80F0000244FF4E6
:103EC000A0684FF4005B0DF120094FF0080A254669
:103ED00008EB040086B259F824000CAB90E8860089
:103EE0000595CDF818A004958DE846008DF81C5076
:103EF0006A4602A91448FDF75DFE28B159461348E9
:103F0000FEF75FFA72B6FEE70220FEF793F810366E
:103F10000097CDE901560CAB6A4602A90A48FDF7A5
:103F200049FE28B159460948FEF74BFA72B6FEE73A
:103F30000220FEF77FF8641C042CC9DB0DB0BDE83D
:103F4000F08F000030680008980100200010014048
:103F5000012000F061FCFBE7DFF8E890384F8EB0FD
:103F60006FF0630B4FF4FA68002509F1080400BFF5
:103F700097F84800B0B372B631496846FCF75AFA70
:103F800087F8485062B630A16846FCF741FA82468D
:103F90002EA16846FCF73CFA0646BAF1000032D082
:103FA00006B32C21FCF72AFAE0B1B0422BD20570FF
:103FB0000AF10200FCF715FA0FFA80FAB01CFCF7C0
:103FC00010FA06B25046BAF1640F01DD642004E035
:103FD00001465846824500DB08468246642E02DDD3
:103FE000642603E00FE05E4500DA5E464FF0FF31E5
:103FF000D9F81C0000F04CFCA4F800A06680D9F8A9
:104000001C0000F0A2FCFEF7E9F9796C401A40456B
:104010000BD94FF0FF314E46D9F81C0000F038FCA8
:1040200025806580F06900F090FCB4F90210B4F9C5
:104030000000FDF7FDFA012000F0EEFB98E700001C
:10404000EC00002000000020583A0000593A00001F
:1040500000263F27B146B046FFF7B2FD00212820D9
:10406000FFF7E2FD0122894989A0FFF7E7FEFFF78C
:10407000F9FE884CB2464FF0010B00BFFFF730FD50
:10408000FDF782FD05462078854273D1761CF6B295
:10409000032E70D3BD426ED01F2D0ED0B8F1000F8D
:1040A0003FD000275FEA090027D0012827D0022847
:1040B00028D0B9F1030F2AD127E0B8F1000F10D0B2
:1040C000002084F801A080464FF0000984F802A087
:1040D000FFF776FDB8F1000F05D04846FDF738FB35
:1040E0002DE00120EDE700212820FFF79DFD0122B2
:1040F000664967A0FFF7A2FE21E0674F07E0664F21
:10410000183F04E0644F303F01E0634F18373E2D05
:1041100008D03D2D16D03B2D3DD02F2D77D0372DFB
:1041200074D079E0607810B1012805D074E084F88B
:1041300001B084F802A097E00220607094E0FFF7DD
:1041400091FE69E0607820B1012808D002280AD0E9
:1041500062E0B9F1000F5FD0A9F1010027E0A0787B
:10416000F8B1401E2DE0A07830B1012809D0022816
:104170000CD079E084E085E04849386802F0EAF93B
:104180002FE04649786802F0E5F933E04349B86822
:1041900002F0E0F937E0607820B101280DD0022864
:1041A00011D039E0B9F1030F36D209F1010000F066
:1041B000FF0900BFFFF704FD8FE7A07802282BD28C
:1041C000401CA07050E0A07820B101280BD002283C
:1041D00012D049E03868B0F5000F45DB304902F0F5
:1041E00067FA386040E07868B0F5000F3CDB2C4996
:1041F00002F05EFA786037E0B868B0F5000F33DBA4
:10420000274902F055FAB8602EE000E00CE0607833
:10421000012803D0022804D02F4633E084F801A0FF
:10422000C8E784F801B01FE01B4A1B4BA2F118013C
:104230001833A1F11800FDF75BFCE0B1FFF7C0FCFB
:1042400014210020FFF7F0FC0122164916A0FFF709
:10425000F5FDFFF707FE4FF47A7000F0DDFA6078A5
:10426000022801D00128A5D1FFF7AAFCA178484671
:10427000FDF7A0FA63E7FFF719FEFDF74DFAEEE749
:1042800000262570142000F0C7FAF7E65C00002035
:104290005E5F5E0000000020680100200AD7A33C9A
:1042A0000AD7233C4C000020534156452046414943
:1042B0004C45442100000000012000F0ADFAFBE76E
:1042C00010B5FEF7CFFA01F0F5FE012803D0BDE8E6
:1042D000104001F0EBBA10BD30B58FB02821684610
:1042E000FCF74BF914210AA8FCF747F9012108044F
:1042F000CDE900100024029402250491CDE9075075
:104300004FF4E01009906846FEF726FC08B172B63B
:10431000FEE70F20CDE90A054FF48060CDE90C409F
:1043200002210AA80E94FEF73BFB002801D072B6CA
:10433000FEE70FB030BD70470148FEF7CCBE00006D
:1043400014020020F0B50268194B1A4C1A4D4FF0B8
:104350008047984205D0B84203D0A04201D0A8427D
:1043600003D122F070064A683243984205D0B84221
:1043700003D0A04201D0A84203D122F44074CA68FD
:1043800022434C6922F08002224302608A68C262A2
:104390000A688262984201D1096901630121416181
:1043A0000169C90703D0016921F001010161F0BD74
:1043B000002C0140000400400008004010B5846853
:1043C00042EA032224F47F440A432243826010BD60
:1043D000826822F070020A4342F007018160704750
:1043E00010B5036A046A24F001040462846924F0AD
:1043F000F00444EA021423F00A020A4384610262D0
:1044000010BD10B5036A046A24F0100404628469C4
:1044100023F0A00324F4704444EA023243EA011179
:104420008261016210BD10B5406A0021C185C1845E
:10443000FEF7EEFE10BD01680C3151E8002F22F4AA
:10444000907241E80023002BF5D10168143151E846
:10445000002F22F0010241E80023002BF5D1016B6F
:10446000012909D101680C3151E8002F22F0100216
:1044700041E80023002BF5D1202180F842100021D3
:104480000163704708B590F84210222901D002203C
:1044900008BD82684FF480539A4201D1016921B16D
:1044A000816A9A421BD04AB10AE00268816A526866
:1044B000C2F308020A80816A891C08E0026972B1AD
:1044C0000268526802F07F020A70816A491C8162A8
:1044D000C18D491E0904090CC18503D01BE0026887
:1044E0005268F1E70168CA6822F02002CA600168D8
:1044F000CA6822F48072CA6001684A6922F0010227
:104500004A61202180F8421000214163026B012A98
:1045100003D0FFF75FF8002008BD016301680C318C
:1045200051E8002F22F0100241E80023002BF5D1C2
:1045300001680A68D20602D50A6849680091818D2F
:10454000FEF765FEE7E7000070B504460068016904
:10455000E26821F44051114301612169A0680843D8
:10456000616908432168CA6841F20C639A430243B7
:10457000CA6020684169A26921F440711143416118
:104580001E492068884202D1FEF7B0FA01E0FEF72A
:104590009DFA00EBC00101EB00126068642180000D
:1045A000B2FBF0F3B3FBF1F36FF018067343B2FB09
:1045B000F0F5B2FBF0F605EB8305322303EB0515AE
:1045C000B5FBF1F5B6FBF1F605F0F00505EB0615C8
:1045D000B2FBF0F6B2FBF0F0B0FBF1F06FF01802B6
:1045E000504306EB800003EB0010B0FBF1F02168B4
:1045F00000F00F002844886070BD000000380140C2
:1046000081628285C28500214164222180F84210A6
:10461000016921B10168CA6842F48072CA60016808
:104620004A6942F001024A610068C16841F0200114
:10463000C1600020704700000148FEF7EBBD00009C
:104640005C020020FEE7490050EAC12018BF0420A8
:104650004A0D18BF40F0010040F2FF72B2EB515F0B
:1046600008BF40F00200012808BF05207047090775
:10467000090E002804DB00F1E02080F800147047E8
:1046800000F00F0000F1E02080F8141D7047303872
:104690000A2801D20120704700207047FEF7EAF88F
:1046A000FFF71AFEFFF766F95148504900240160F0
:1046B0004FF46121C0E901140C25C460C0E9044530
:1046C0008461C461FEF7DCFE08B172B6FEE7FFF755
:1046D0001FF9FFF7CFF946484649483001604FF4CB
:1046E000E131C0E90114C460C0E904458461C461DA
:1046F000FEF7C6FE08B172B6FEE73D483E499C385B
:1047000001603E49C0E901144FF48041C0E9034112
:1047100044618461C4610462FDF766FE08B172B64B
:10472000FEE733484838FEF73BFC01223449304865
:10473000FEF742FF2E48C438FDF7E0FB08B172B621
:10474000FEE72B480221C438FDF722FA08B172B601
:10475000FEE7274BDC3BA3F11802A2F11801A1F1FF
:104760001800FDF789F998B1214BDC3BA3F1180241
:10477000A2F11801A1F11800FDF76CF91C4BDC3B0C
:10478000A3F11802A2F11801A1F11800FDF7B0F988
:10479000FFF78CFBFFF74EFA00F04CF8002000F01A
:1047A000A0F8174CE41EE061E8B1164A0021164853
:1047B00000F0ECF8134AE06024320021134800F0C6
:1047C000E5F8104A206148320021114800F0DEF877
:1047D0000C4A60616C3200210E4800F0D7F8A061ED
:1047E00000F03AF8FEE772B6FEE700000044004031
:1047F0005C0200200048004000540040801A06007F
:1048000003000020A0670008513F0008593F00083E
:1048100051400008B942000810B5EFF3058111B10D
:104820006FF0050403E0002408B100F0BDFE20464F
:1048300010BD0000EFF3058010B16FF00500704768
:104840000448016811B14FF0FF3070470121016049
:1048500000207047BC00002010B5EFF3058010B1B8
:104860006FF0050010BD08480168012902D04FF023
:10487000FF3010BD054A002182F8141D022101609D
:1048800000F042FF002010BDBC0000200BE000E063
:104890002DE9F0410D46014621F0010001F0010132
:1048A0004FF00004EFF305820AB1A41F16E048B1EF
:1048B00000296FF001066FF00207294608D001F0C9
:1048C00041FB07E06FF0030408E035B1344605E032
:1048D00001F07CFA0128F8D100E03C462046BDE812
:1048E000F08170B505464FF00004EFF3058050BB32
:1048F0000DB1686800E00020C10701D0012600E08A
:10490000002600071FD46DB1D5E9021021B150284F
:1049100019D31EB1042002E020B114E0012000F000
:10492000E6FF05E00EB1042000E0012000F0D4FF16
:10493000040008D00DB1296800E0002100F0FEFD60
:104940000EB144F00104204670BD70B5014621F05F
:10495000010001F001014FF00004EFF305820AB1FC
:10496000A41F11E028B16FF0020529B101F073F91D
:1049700007E06FF0030407E000231A46194601F030
:104980005BF8012800D02C46204670BD2DE9FF4180
:104990004FEA01034FF00005EFF30581039549BB92
:1049A00040B38027182100244AB3166806B1344664
:1049B00096691EB13146761E382E02D21679F60758
:1049C00003D0002004B0BDE8F081566906B1B708F5
:1049D000D2F808C0BCF1000F0DD0D5685C2D18D3FB
:1049E00012693AB136B18DE806103A46214601F017
:1049F00030FB03900DE0D6685EB912694AB903AA8C
:104A0000CDE90012BAB2214601F0F6FA012800D031
:104A100003950398D6E700002DE9F041134C0F46AB
:104A20000546E6682068001D00F08AFC681C07D176
:104A300037B12168BDE8F0410D48091D00F0D0BC38
:104A400020683544B5424560216805D2A06BBDE8B9
:104A5000F041091D00F0ACBC606B091D00F0A8FC22
:104A6000A06A854200D2A562BDE8F0816C000020FA
:104A7000000C00202DE9F041054600F0BDFC2D4C56
:104A8000A068401CA06020682B4F10B1606930B353
:104A90002BE02560A068012827D1002606EB8600C0
:104AA00007EB800000F076FC761C382EF6D3234806
:104AB00000F070FC2148143000F06CFC1F482830D6
:104AC00000F068FC1D483C3000F064FC1B4850308E
:104AD00000F060FC194860631430A06305E02068B2
:104AE000E96AC06A884200D82560606A401C60623A
:104AF0006864E86A2169884200D9206100EB80007F
:104B000007EB8000291D00F06BFC00F095FC60694C
:104B100000280CD02068E96AC06A884207D2084998
:104B20004FF080500860BFF34F8FBFF36F8FBDE829
:104B3000F08100006C00002050070020B00B002026
:104B400004ED00E038B500F057FC104C2068C8B9FF
:104B50000F4800F01FFC0E48143000F01BFC0C48FE
:104B6000E060143020610A4B0020F03B009003F11C
:104B7000500210210A2000F0E8FE206010B105A1CB
:104B800000F0DCFCBDE8384000F056BCA800002076
:104B9000040D0020546D72510000000030B4026C0E
:104BA0000B46002A0BD0C1681144C1608468A14241
:104BB00001D30168C16030BC1846FBF75FBC30BC54
:104BC00070472DE9F041856B174604460026026CBC
:104BD00082B1C7B1E068FBF751FCE168206C091AAB
:104BE000E1602268914202D2A168081AE060022FB7
:104BF00016D017E02068A8B9A06801F0D3FA0646DD
:104C00000020A0600EE06068FBF738FC216C606853
:104C100008446060A168884204D32068606001E0B5
:104C200005B16D1E6D1CA5633046BDE8F08110B561
:104C3000044690F8590058B101280CD002280FD032
:104C4000502080F31188BFF34F8FBFF36F8FFEE7C3
:104C5000206B00F005FC2046BDE8104000F000BCD1
:104C600010BD000010484FF44061420706D0C01D3F
:104C70000D4920F00700411AC1F540610B4A00239D
:104C80000144C2E900030839183A21F00701116014
:104C90004B600B600B1AC0E9001393604FF00040AB
:104CA0005360506170470000E4130020D8000020DA
:104CB000144E154CA6F29C474FF08058DFF84C90EC
:104CC00012E000BF00F098FBF068C568281D00F0F6
:104CD00037FBA068401EA0606068401E606000F066
:104CE000ABFB2846FFF7A3FF60680028EAD13868CD
:104CF0000128F9D9C9F80080BFF34F8FBFF36F8F38
:104D0000F2E70000EC0B00206C00002004ED00E056
:104D1000002807D00021816001600B460A46C1606F
:104D200000F08ABE7047000070B51D46049C51B16A
:104D3000C4F80020C4E90F010121204600F038FE2C
:104D400084F84C5070BD2460F4E700002DE9F05F5A
:104D50008846DDE90B941546834691009A460A9EE3
:104D6000A522206BFBF701FC6FF00301206B01EB28
:104D70008501084420F00707780707D0502080F30A
:104D80001188BFF34F8FBFF36F8FFEE70025B8F197
:104D9000000F0FD05FF00000221818F8001082F802
:104DA000341018F8001011B1401C1028F4D384F806
:104DB000435001E084F83450382E00D33726E662A1
:104DC000C4E91365201D00F0F0FA04F1180000F0AA
:104DD000ECFA2461C6F138006462A061656584F86C
:104DE000585052465946384600F066FA2060B9F1EC
:104DF000000F01D0C9F80040BDE8F09F30B511495F
:104E000000E011460A688242FBD34B685C1884427A
:104E100003D1406818444860084643681C1894420F
:104E200009D1084C183C2468A24209D052681A449F
:104E300042600A6812680260814200D0086030BD9A
:104E40000460F9E7D800002070B5002441600B4DE4
:104E50000061914206D8D11A8269914206D2011DA1
:104E6000286907E09A4203D2994201D3012403E062
:104E7000011DE86800F09CFA204670BDA8000020E3
:104E800010B5044600F0B8FAA06B28B15FF000043A
:104E900000F0D2FA204610BD0124F9E730B589B000
:104EA0003C4D6EE00498002806DADDE90601059A1B
:104EB00090470498002864DB069C606910B1201DAF
:104EC00000F03EFA03A800F0D7F8024604980A283A
:104ED00057D2DFE800F00505052D334A05052D33CF
:104EE00094F8280040F0010084F828000599A06992
:104EF000059B01442046FFF7A7FF68B3216A2046BF
:104F0000884794F8280040073BD50020009005987A
:104F1000A169002342181946204601F089FAD8B940
:104F2000502080F31188BFF34F8FBFF36F8FFEE7E0
:104F300014F8280F20F00100207022E094F82800D7
:104F400040F0010084F828000598A06128B181187C
:104F500013462046FFF778FF13E0502080F31188B6
:104F6000BFF34F8FBFF36F8FFEE794F828008107E0
:104F700003D4204600F074FA03E020F0010084F826
:104F80002800002204A9286800F084FE002889D1A6
:104F900009B030BDA80000202DE9FC410F460546B0
:104FA00000F0F6FB01A800F067F80446019818B17C
:104FB00001F0ACF9BDE8FC81254EAFB13069006865
:104FC000D0B30027291B3A46306800F0CBFA01F035
:104FD0009DF90028EED11F494FF080500860BFF3C3
:104FE0004F8FBFF36F8FE5E7A542EBD801F08EF945
:104FF000F0682746C068C468201D00F0A1F994F845
:105000002800410719D5A0692B4641193A46204688
:10501000FFF71AFFA8B100200346014600902A4678
:10502000204601F005FA60B9502080F31188BFF3E3
:105030004F8FBFF36F8FFEE707E020F0010084F889
:105040002800216A20468847B4E70127BAE7000014
:10505000A800002004ED00E00648416B096829B172
:10506000416BC968C9684968816270474FF0FF3178
:10507000FAE700006C00002070B5054601F028F842
:10508000064E0446B068844203D200F009F80120BD
:1050900000E0002028602046B46070BDA800002019
:1050A000F8B5194D20E0C068C4680668201D00F0FE
:1050B00047F9216A2046884794F82800400713D50D
:1050C000A0693044B04206D924616060211DE868BF
:1050D00000F06EF908E000200346014600903246D9
:1050E000204601F0A5F938B1E86801680029DAD155
:1050F0002969C5E90310F8BD502080F31188BFF37A
:105100004F8FBFF36F8FFEE7A8000020084840686C
:10511000401C4FF0500080F3118804D0BFF34F8F34
:10512000BFF36F8FFEE7BFF34F8FBFF36F8FFEE7C5
:10513000E0000020074CE068016841B1C068002130
:10514000D0F80000FFF728FFFFF7A8FEF3E70121E2
:105150000020F7E7A80000202DE9F041044600F008
:105160004BF994F9455004F1240609E0606A48B10E
:10517000304601F093F808B100F044FA6D1E6DB2AC
:10518000002DF3DC4FF0FF3684F8456000F054F951
:1051900000F032F994F9445004F1100709E0206955
:1051A00048B1384601F07AF808B100F02BFA6D1ECC
:1051B0006DB2002DF3DC84F84460BDE8F04100F0EE
:1051C0003BB900002DE9F0410546002700F0E0FA68
:1051D000324E306808B9FFF745FD706905424ED17F
:1051E000C5B3083568070ED005F00700C0F1080008
:1051F0000544680707D0502080F31188BFF34F8F14
:10520000BFF36F8FFEE72DB37068854237D8234810
:10521000183001460C6801E020460C466168A9423E
:1052200002D221680029F7D131688C4227D0076863
:105230002168016060680837411B10290FD9601987
:10524000420708D0502080F31188BFF34F8FBFF37F
:105250006F8FFEE713E041606560FFF7CFFD616887
:105260007068401A7060B268904200D2B060706995
:1052700001430020C4E90001F068401CF06001F027
:1052800045F8780707D0502080F31188BFF34F8F7F
:10529000BFF36F8FFEE73846BDE8F081C000002005
:1052A0000449086818B10868026D521C0265086854
:1052B000704700006C00002010B5031F4FF0807491
:1052C0001C601B1F21F001011960191F024B0B60AC
:1052D000143940380A6010BD0D5100080148401EC5
:1052E000FDD1704790D003001CB502238DF8041047
:1052F0000A2100918DF80520014601AA0148FDF719
:10530000EDF91CBDC001002070B5C2B000248DF8BD
:10531000041001A904E0155D0E19641C7570E4B257
:105320009C42F8D30A2100915B1C01469BB201AA62
:105330000248FDF7D3F942B070BD0000C001002063
:10534000D0E9013201699A60D0E901235A604A68C4
:10535000824201D182684A60002202610868401ED0
:105360000860086870470000034B036003F15C00AD
:1053700008608020106070472C0D0020044B0360F3
:1053800003F15C0008604FF480701060704700000B
:10539000880F002000F108014FF0FF32C0E9011230
:1053A000C160016100210160704700210161704707
:1053B00030B50B685A1C02D000F1080202E0026905
:1053C00004E02246546825689D42FAD953684B6030
:1053D00099608A60516008610168491C016030BDB4
:1053E00042684A6093688B60936859609160086175
:1053F0000168491C01607047502080F31188BFF399
:105400004F8FBFF36F8F0A494868401C48600128DE
:105410000CD10848006810F0FF0F07D0502080F32F
:105420001188BFF34F8FBFF36F8FFEE77047000007
:10543000E000002004ED00E00849486828B1401E63
:10544000486001D180F311887047502080F31188A3
:10545000BFF34F8FBFF36F8FFEE70000E000002027
:1054600070B500282AD0164DA0F10804606869695B
:10547000084207D1502080F31188BFF34F8FBFF34C
:105480006F8FFEE722683AB1502080F31188BFF396
:105490004F8FBFF36F8FFEE78843606000F078F9AD
:1054A00060686968084468602046FFF7A7FC2869BF
:1054B000401C2861BDE8704000F028BF70BD0000AE
:1054C000C00000204FF0E02000210161816105490A
:1054D0004FF47A720968B1FBF2F1491E416107216C
:1054E000016170474800002010B5FAF7A7FE114986
:1054F00010280ED300F1E02090F8F0030A789042D3
:1055000007D2502080F31188BFF34F8FBFF36F8F06
:10551000FEE709480068896800F4E060884207D91E
:10552000502080F31188BFF34F8FBFF36F8FFEE7DA
:1055300010BD0000E00000200CED00E010B5084BAD
:10554000002200BF53F832401CB1521C082AF9D384
:1055500010BD43F8321003EBC201486010BD0000DB
:105560001007002070B515460E460446FFF744FFAD
:1055700094F944100020491C01D184F8440094F9A6
:105580004510491C01D184F84500FFF755FFA06B79
:1055900028B92A46314604F1240000F051F820468B
:1055A000BDE87040FFF7D8BD10B5020014D00F4819
:1055B000006B38B1502080F31188BFF34F8FBFF3D9
:1055C0006F8FFEE700F0E4F800211046FFF724FAA1
:1055D00000F09CFE002807D105494FF0805008607C
:1055E000BFF34F8FBFF36F8F10BD00006C00002022
:1055F00004ED00E002490A6A0260C9684160704730
:105600006C00002001490120C86170476C00002037
:1056100010B50C4650B1094909681831FFF7C8FEAA
:105620002046BDE810400121FFF7F6B9502080F375
:105630001188BFF34F8FBFF36F8FFEE76C00002020
:1056400070B514460D4668B10A4909681831FFF76C
:10565000C7FE0CB14FF0FF3521462846BDE870402B
:10566000FFF7DAB9502080F31188BFF34F8FBFF3F3
:105670006F8FFEE76C00002070B504003ED0226DF5
:10568000A2B1E06C884200D30146E06A884235D07E
:10569000012A33D11A4D2A6894420FD1502080F349
:1056A0001188BFF34F8FBFF36F8FFEE7502080F359
:1056B0001188BFF34F8FBFF36F8FFEE7E162A269DE
:1056C000002A02DBC1F13801A1610E4E00EB80001F
:1056D000616906EB8000814210D1201DFFF730FE8A
:1056E000E06A2969884200D9286100EB800006EB56
:1056F0008000211DBDE87040FFF772BE70BD000044
:105700006C0000205007002030B587B000240394BF
:1057100005AA04A903A80494FFF726FEDDE9030106
:105720000094CDE90110002315A11748059A00F057
:1057300090FC164D0028E8621FD000F049FE0128B9
:1057400009D0401C19D1502080F31188BFF34F8F2E
:10575000BFF36F8FFEE7502080F31188BFF34F8FA8
:10576000BFF36F8F4FF0FF30A86201206861EC60DB
:1057700007B0BDE8304000F045B807B030BD0000CC
:1057800049444C4500000000B14C00086C0000206A
:105790000248016B491C0163704700006C00002047
:1057A000164810B5016B11B10121C16110BD002176
:1057B000C1610169124A01E0B9B1491E01EB8103DF
:1057C00052F82330002BF7D001EB810302EB830268
:1057D00002F1080453685B685360A34201D15B681F
:1057E0005360DA680260016110BD502080F31188B7
:1057F000BFF34F8FBFF36F8FFEE700006C000020F8
:10580000500700201CB5264908780190FF20087039
:1058100008788DF800009DF800009DF8002000F049
:10582000F000904207D0502080F31188BFF34F8FD3
:10583000BFF36F8FFEE79DF800001A4C00F0500098
:1058400020700720A06005E09DF8002052008DF830
:105850000020401E9DF800201206F5D4A060032809
:1058600007D0502080F31188BFF34F8FBFF36F8FA5
:10587000FEE74FF44070A060019808700A48016884
:1058800041F470010160016841F070410160FFF76F
:1058900019FE00206060FAF79BFC00201CBD000090
:1058A00000E400E0E000002020ED00E010B5502012
:1058B00080F31188BFF34F8FBFF36F8F00F00EFCA2
:1058C00018B104494FF080500860002080F311881F
:1058D00010BD000004ED00E010B5024600210120DB
:1058E00000F012F80446FFF713FA204610BD38B551
:1058F0000B46002200901146012000F026F80446D5
:10590000FFF706FA204638BDF8B517460E460500E3
:1059100013D005FB06F05030FFF754FC04000AD00A
:10592000002084F8460004F150023B4631462846E8
:105930000094FFF7F9F92046F8BD502080F3118854
:10594000BFF34F8FBFF36F8FFEE738B5049D18B1DB
:1059500053B1CAB181B120E0502080F31188BFF368
:105960004F8FBFF36F8FFEE7502080F31188BFF396
:105970004F8FBFF36F8FFEE7502080F31188BFF386
:105980004F8FBFF36F8FFEE739B1502080F311883E
:10599000BFF34F8FBFF36F8FFEE750241C460123E8
:1059A00084F846302B460094FFF7BEF9204638BDF8
:1059B00070B50D46040025D0FFF71EFDD4E90F2079
:1059C000216802FB0011A1600021A16321686160D0
:1059D0000A46D4E90F01401E00FB0121E160214687
:1059E0004FF0FF3001F8440F487004F110008DB102
:1059F000FFF7D0FC04F12400FFF7CCFCFFF71CFDFF
:105A0000012070BD502080F31188BFF34F8FBFF38A
:105A10006F8FFEE721690029F0D000F03FFC0028DD
:105A2000ECD004494FF080500860BFF34F8FBFF3B4
:105A30006F8FE3E704ED00E02DE9FF4782B01D46DC
:105A40008A464FF00008040003D0BAF1000F08D0D6
:105A500011E0502080F31188BFF34F8FBFF36F8F99
:105A6000FEE7206C38B1502080F31188BFF34F8FD0
:105A7000BFF36F8FFEE7022D0AD1E06B012807D03C
:105A8000502080F31188BFF34F8FBFF36F8FFEE775
:105A900000F010FB3F4F4FF000094FF0805648B91F
:105AA000049838B1502080F31188BFF34F8FBFF3B3
:105AB0006F8FFEE7FFF7A0FCA06BE16B884207D376
:105AC000022D05D00498D0B1B8F1000F1AD01EE015
:105AD0002A4651462046FFF774F8616A19B104F16D
