:020000040800F2
:1000000088220020710200088B2D00086F23000851
:10001000892D0008EF060008993100080000000053
:10002000000000000000000000000000D9010008EE
:1000300091080008000000001D020008052E0008BD
:100040008B0200088B0200088B0200088B0200085C
:100050008B0200088B02000893080008990800082A
:100060009F0800088B0200088B0200088B02000822
:100070008B0200088B0200088B0200088B0200082C
:100080008B0200088B0200088B0200088B0200081C
:100090008B0200088B0200088B0200088B0200080C
:1000A0008B0200088B0200088B0200088B020008FC
:1000B000812E00088D2E00088B0200088B0200089C
:1000C0008B0200088B0200088B0200088B020008DC
:1000D0008B0200088B0200088D3100088B0200089B
:1000E0008B0200088B0200088B02000800F002F867
:1000F00000F063F80AA090E8000C82448344AAF15F
:100100000107DA4501D100F058F8AFF2090EBAE85C
:100110000F0013F0010F18BFFB1A43F0010318473B
:1001200084650000A46500000A444FF0000C10F83C
:10013000013B13F0070408BF10F8014B1D1108BF65
:1001400010F8015B641E05D010F8016B641E01F805
:10015000016BF9D113F0080F1EBF10F8014BAD1C55
:100160000C1B09D16D1E58BF01F801CBFAD505E073
:1001700014F8016B01F8016B6D1EF9D59142D6D3CD
:10018000704700000023002400250026103A28BFF5
:1001900078C1FBD8520728BF30C148BF0B607047F9
:1001A0001FB500F041FA04000020002105F094F88A
:1001B000401C60601FBD10B510BD00F010FA114664
:1001C000FFF7EEFF03F040FA00F040FA03B4FFF748
:1001D000F2FF03BC00F084FA224B19680868B0E80B
:1001E000F00F80F30988BFF36F8F4FF0000080F3AA
:1001F00011884EF00D0E70470000000006480068A0
:10020000006880F3088862B661B6BFF34F8FBFF312
:100210006F8F00DF00BF00BF08ED00E0EFF3098043
:10022000BFF36F8F0F4B1A6820E9F00F106008B50D
:100230004FF0500080F31188BFF34F8FBFF36F8FE3
:1002400004F006FA4FF0000080F31188BDE8084082
:1002500019680868B0E8F00F80F30988BFF36F8F62
:10026000704700BFF0000020EFF3058070470000EA
:100270000948804709480047FEE7FEE7FEE7FEE73A
:10028000FEE7FEE7FEE7FEE7FEE7FEE70448054976
:10029000054A064B704700007D2E0008ED0000085F
:1002A000881C002088220020881E0020881E002034
:1002B00070B5064600F09CF80468054630460A22F0
:1002C000002100F0A4F82C6070BD401ECAB210F8E6
:1002D000011F8A4202D00029F9D10020704730B5B1
:1002E00005460B462A4613F8014B12F8010B08B1DC
:1002F000A042F8D01CB1002802D06D1CF1E72846BE
:1003000030BD032A40F2308010F0030C00F015805D
:1003100011F8013BBCF1020F624498BF11F801CB08
:1003200000F8013B38BF11F8013BA2F1040298BF6D
:1003300000F801CB38BF00F8013B11F0030300F0D7
:100340009E80083AC0F0088051F8043B083A51F802
:1003500004CBA0E80810F5E7121D5CBF51F8043B80
:1003600040F8043BAFF30080D20724BF11F8013BF3
:1003700011F801CB48BF11F8012B24BF00F8013B55
:1003800000F801CB48BF00F8012B704702F0FF03D3
:1003900043EA032242EA024200F0A5B84FF000020D
:1003A00000B5134694469646203922BFA0E80C506B
:1003B000A0E80C50B1F12001BFF4F7AF090728BF46
:1003C000A0E80C5048BF0CC05DF804EB890028BFC2
:1003D00040F8042B08BF704748BF20F8022B11F0EB
:1003E000804F18BF00F8012B704770477047704767
:1003F00000487047241C002010B5FFF7F9FF006883
:1004000010BD10B50446FFF7F3FF046010BD2DE9E1
:10041000F04791460F4680460446002614F8015BDB
:100420002DB100F085F80068405DC007F6D12B2D96
:1004300002D02D2D18D0641E4A463946204600F0C1
:100440007FF827B13968A14201D1C7F800804FF089
:10045000020471050BD54042002803DDFFF7C8FFF9
:100460000460A007BDE8F08746F48066E4E7002852
:10047000F8DAFFF7BDFF04606FF00040F2E710B557
:10048000203AC0F00B80B1E81850203AA0E818508C
:10049000B1E81850A0E81850BFF4F5AF5FEA027C4D
:1004A00024BFB1E81850A0E8185044BF18C918C0BC
:1004B000BDE810405FEA827C24BF51F8043B40F85D
:1004C000043B08BF7047D20728BF31F8023B48BF42
:1004D00011F8012B28BF20F8023B48BF00F8012B80
:1004E00070474FF000020429C0F0128010F0030C96
:1004F0003FF456AFCCF1040CBCF1020F18BF00F86A
:10050000012BA8BF20F8022BA1EB0C01FFF748BF7D
:100510005FEAC17C24BF00F8012B00F8012B48BF23
:1005200000F8012B7047000000487047241C002091
:1005300010B500F079F8001D10BD00BF9D4D000002
:100540002DE9F05F824615468B4600270AF101042B
:10055000B9460078302801D09DB113E014F8010BA2
:100560000127782803D0582801D045B10AE00DB101
:10057000102D07D1002714F8010B102502E00825E3
:1005800000E00A250026B0460EE005FB080005FB4A
:1005900006F101271FFA80F801EB1046B6F5803FFF
:1005A00000D3B94614F8010B294600F041F80028A1
:1005B000EBDABBF1000F05D00FB1641E00E054462A
:1005C000CBF80040B9F1000F06D0FFF711FF022170
:1005D0000160C81EBDE8F09F48EA0640FAE775468C
:1005E000FFF7A2FFAE4605006946534620F007001C
:1005F000854618B020B5FFF749FEBDE820404FF012
:1006000000064FF000074FF000084FF0000B21F0FC
:100610000701AC46ACE8C009ACE8C009ACE8C009C9
:10062000ACE8C0098D46704700487047441C002064
:100630003A2800D2303820F02002412A01D3A2F11A
:100640003700884201D34FF0FF30704710B50446A1
:10065000AFF300802046BDE81040FFF7B7BD0000B3
:100660004FF0013C50F8042B51F8043B9A4221D141
:10067000A2EB0C03934313EACC1317D150F8042BCD
:1006800051F8043B9A4215D1A2EB0C03934313EAB1
:10069000CC130BD150F8042B51F8043B9A4209D1EA
:1006A000A2EB0C03934313EACC13DBD04FF0000012
:1006B000704700BFD01A01BAB1FA81F101F01801F8
:1006C00022FA01F0CB40C1F12001DBB2C0B2C01A66
:1006D0002CFA01F3D11A914311EAC311E6D1704704
:1006E00001491820ABBEFEE7260002007047FEE776
:1006F0002DE9F05F604F0D464FF0040840F246418F
:10070000C7F810803960A7F108040C2121705B49FB
:100710001646884201D2012200E00022894662701A
:10072000484501D380F00040554905F03BFD05F0F8
:1007300005FD010A504BA1701B1FE0701A1F191D07
:10074000504800F0C1F8DFF840B14FF4005A28B12A
:100750005146584600F008FC72B6FEE7012002F050
:10076000FFFF05F16400C82825D840F24740C7F8CC
:100770001080386016202070002D02DD4FF001003F
:1007800001E04FF00000607001DAC5F100054FEAAA
:100790001520394BA070A3F10403E570A3F1040206
:1007A0003549384800F090F828B15146584600F0D5
:1007B000DBFB72B6FEE7012002F0D2FF06F1640017
:1007C000C82826D84FF48960C7F8108038601720F1
:1007D0002070002E03DD00BF4FF0010001E04FF05C
:1007E0000000607001DAC6F100064FEA1620224BC5
:1007F000A070A3F10403E670A3F104021E4921488E
:1008000000F062F828B15146584600F0ADFB72B6D0
:10081000FEE7012002F0A4FF40F24940C7F8108033
:1008200038601A492A202070D1E90C0104F06AFDD1
:10083000484501D2012200E000226270484501D300
:1008400080F000400E4905F0ADFC05F077FC010A90
:10085000094BA1701B1FE0701A1F191D094800F0F9
:1008600033F8002805D05146584600F07DFB72B69B
:10087000FEE7BDE8F09F00002C0000200000808013
:100880000000C842A401002000100140B002002076
:100890007047012000F06CBA022000F069BA042011
:1008A00000F066BA90F82020012A07D0022A05D06D
:1008B000416A41F480214162012070470068426929
:1008C0000A43426100207047F0B590F82050046858
:1008D000A468012D05D0022D03D0416A41F4802186
:1008E0004DE014F0406F01D1E50045D5C4F301643B
:1008F0000125A5401D608D684FF4C0739DB1CE6881
:1009000035434E6845EAC605066803EB0417F55102
:100910004FF4C275076805EB04150E697E51097D19
:10092000012905D009E00E88CD6845EA4655EBE778
:1009300001684E5946F480764E511179D2F805502F
:100940004FF4C67641EA0521056806EB0416A95165
:100950001178D2F801204FF4C47541EA02210268EF
:1009600005EB04155151006803EB0411425842F0A5
:10097000010242500020F0BD416A41F40011416281
:100980000120F0BD10B590F820300268012B07D08F
:10099000022B05D0416A41F480214162012010BD43
:1009A000D2F8000240F00100C2F80002087D00F019
:1009B0001F0301209840D2F81C328343C2F81C3236
:1009C000CB69B3B9D2F80C328343C2F80C328C89AC
:1009D0004B6864F31F434C6902EBC404C4F8403213
:1009E0000C890B6864F31F434C6902EBC404C4F820
:1009F0004432CB69012B16D1D2F80C320343C2F832
:100A00000C320C884B6864F31F434C6902EBC4043E
:100A1000C4F840320C89CB6864F31F434C6902EB85
:100A2000C404C4F844328B69002BD2F804320FD0CE
:100A300053EA0003C2F804320B69002BD2F81432D7
:100A400008D00343C2F81432096A012904D008E02F
:100A50008343EFE78343F5E7D2F81C120143C2F862
:100A60001C12D2F8000220F00100C2F8000200209F
:100A700010BD70B5040003D094F8200010B104E05C
:100A8000012070BD204600F081F82068016841F027
:100A90000101016000F076FA0546052604E000F049
:100AA00071FA401B0A2811D820684068C007F6D0A8
:100AB0002068016821F00201016000F063FA054638
:100AC0000BE000F05FFA401B0A2806D9606A40F488
:100AD0000030606284F82060D2E7206840688007B8
:100AE000EFD4207E0128206801683DD021F08001EC
:100AF0000160607E01282068016838D021F0400143
:100B00000160A07E01282068016833D021F0200117
:100B10000160E07E0128206801682ED041F01001BC
:100B20000160207F01282068016829D021F0080198
:100B30000160607F01282068016824D021F0040151
:100B40000160D4E902010843D4E9041211430843C7
:100B50006168491E08432168C86100206062012065
:100B600084F82000002070BD41F08001C0E741F012
:100B70004001C5E741F02001CAE721F01001CFE7AD
:100B800041F00801D4E741F00401D9E710B586B07F
:100B90000021009101910291039100681849884257
:100BA0002BD11848C16941F00071C161C16901F0E0
:100BB00000710491816941F0080181618069124CE2
:100BC00000F0080004904FF48070009069462046C1
:100BD00000F0DAF8601500900220019003200390E5
:100BE0006946204600F0D0F80848416821F4C04129
:100BF00041F0E06141F48041416006B010BD000069
:100C00000064004000100240000C01400000014060
:100C100070B5044690F82000012804D0606A40F4C2
:100C20000020606218E0022084F82000206801683B
:100C300021F00101016000F0A5F905460EE000BFBA
:100C400000F0A0F9401B0A2808D9606A40F400307F
:100C50006062052084F82000012070BD2068406893
:100C6000C007EDD1606270BD10B590F82110002270
:100C7000022905D00421816380F82020012010BDC5
:100C800001680B6823F00E030B6001680B6823F00A
:100C900001030B6090F84030C46B012101FA03F3AB
:100CA000636080F8211080F82020104610BD0000FD
:100CB00010B590F821100024022903D0042181638B
:100CC00001243DE001680A6822F00E020A60016812
:100CD0000A6822F001020A601A4A0168914201D1B1
:100CE000012121E0174A1432914201D110211BE069
:100CF000144A2832914201D1891515E0114A3C323B
:100D0000914201D189140FE00E4A5032914202D132
:100D10004FF4803108E00B4A6432914202D14FF423
:100D2000801101E04FF08071064A083A51600121BC
:100D300080F82110002180F82010416B01B1884714
:100D4000204610BD0800024070B5044600F01AF9B4
:100D50000546601C02D004480078044400F012F9F3
:100D6000401BA042FAD370BD440000207047000031
:100D7000044910B50A68024202D00860FFF7F6FF86
:100D800010BD0000140401402DE9F84FDFF8B891C0
:100D90000024A9F1040B23460F2709F1040AABF143
:100DA000040EC9E00125A5402A40AA427DD1674E24
:100DB000D1F804C0ACEB0608B44532D014DCBCF169
:100DC000030F3AD009DCBCF1000F2AD0BCF1010FAF
:100DD0001CD0BCF1020F31D11DE0BCF1110F17D0B6
:100DE000BCF1120F2AD119E0B8F5881F19D006DC22
:100DF000B8F5803F15D0B8F5801F1FD111E0B8F5C8
:100E0000001F0ED0B8F5041F18D10AE0CB6815E01A
:100E1000CB681B1D12E0CB6808330FE0CB680C33A6
:100E20000CE08B682BB1012B4FF0080303D0456118
:100E300004E0042302E0056100E00023FF2A01D85A
:100E4000064601E000F104064FEA840501D9A5F148
:100E50002005D6F8008007FA05FC28EA0C0803FAFA
:100E600005F548EA0508C6F800804D68ED0062D532
:100E7000374DAE6946F00106AE61AD6924F0030658
:100E800005F001050095334D06EB050CDCF8085024
:100E9000A607360F07FA06F825EA0805DFF8B88036
:100EA000404503D14FF0000817E044E0DFF8AC8084
:100EB000404502D14FF001080FE0DFF8A480404523
:100EC00002D14FF0020808E0DFF89880404502D1D7
:100ED0004FF0030801E04FF0040808FA06F848EA6A
:100EE0000508CCF808804D68D9F80060ED024D4641
:100EF00001D5164300E096432E604D68DAF8006095
:100F0000AD02554601D5164300E096432E604D686C
:100F1000DBF80060AD035D4601D5164300E0964363
:100F20002E604D68DEF80060ED03754601D516436E
:100F300000E096432E60641C0D682A46E5407FF46D
:100F400031AFBDE8F88F0000080401400000111027
:100F5000001002400000014000080140000C014068
:100F60000010014000140140C26821EA02030A4057
:100F700043EA0241016170470AB101617047090407
:100F8000FBE7000001488068704700004400002033
:100F900070B5040025D094F83D00002520B984F8F0
:100FA0003C50204600F07EFA242084F83D00206862
:100FB000016821F0010101602068016841F40041ED
:100FC00001602068016821F40041016000F018FC14
:100FD0004D4A6168914201D84C4900E04C49884231
:100FE00001D2012070BD4B492368B0FBF1F15E686E
:100FF00026F03F060E435E606368934206D94FF4C5
:10100000967359434FF47A73B1FBF3F12368491C8B
:101010001E6A26F03F06314319626168914210D87A
:101020004900401EB0FBF1F2521CC2F30B02042A2D
:1010300001D2042022E0B0FBF1F0401CC0F30B0011
:101040001CE0A268F2B301EBC10303EB0116431EDF
:10105000B3FBF6F35B1C43F480431B0549D092B30A
:1010600001EBC10202EB0111401EB0FBF1F0401C8C
:10107000C0F30B0040F4804040F400402168CA698E
:101080004CF6FF739A431043C861D4E9071001433B
:101090002068026822F0C00211430160D4E9030114
:1010A00001432068826848F2FF339A43114381600C
:1010B000D4E9050108432168CA6822F0FF02104301
:1010C000C86001E00EE016E02068016841F001010F
:1010D00001602564202084F83D00256384F83E509B
:1010E000002070BD01EB4106431EB3FBF6F35B1C11
:1010F000B3E70120C2E701EB4101401EB0FBF1F074
:10110000401CC0F30B00B7E7A086010080841E00DE
:1011100000093D0040420F002DE9FF4F83B000253C
:10112000DDE910799A4693460446DDF8488000953B
:10113000FFF728FF064694F83D0020287CD11923AC
:10114000012288492046009601F028FA0028F5D1AE
:1011500094F83C0001286FD0012084F83C002068FE
:101160000168C90703D1016841F0010101602068ED
:10117000016821F400610160222084F83D004020D4
:1011800084F83E0025646762A4F82A90608D20856B
:101190007548E062CDE9008653465A4620460499D8
:1011A00001F0FEF800287CD1208DDFF8C0912027C7
:1011B00068B1012814D00228206801681ED041F4CB
:1011C000806101602068416980690090BCE020680E
:1011D000416981690091016841F400710160B3E0E7
:1011E0002068016821F48061016072B6206841695D
:1011F00081690091016841F400710AE041F40061E5
:10120000016072B62068416981690091016821F42A
:101210008061016062B697E0032865D801280CD090
:10122000022843464FF000024946204600960BD064
:1012300001F0B4F9A8BB0CE091E0324641462046EB
:1012400001F052FA68BB72E001F0A8F948BB72B62F
:1012500033E02068016821F48061016072B6206883
:101260000069616A0870606A401C6062208D401EDF
:101270002085608D401E60853D4846F2A8110068BB
:10128000B0FBF1F0C0EBC00000EB80000090401E0E
:10129000009007D020684069C04340070DD50098F2
:1012A000F5E727E044F8305F6773A573206940F0E5
:1012B0002000206162B625731CE02068016841F4BB
:1012C0000071016020680069616A0870606A401CF2
:1012D0006062218D491E2185618D491E618562B63E
:1012E00021680969017026E032464146204601F036
:1012F000FBF918B1012007B0BDE8F08F2068006944
:10130000616A0870606A401C6062208D401E81B274
:101310002185608D401E608520684269D243520756
:1013200012D4032903D1016821F48061016020688F
:101330000069616A0870606A401C6062208D401E0E
:101340002085608D401E6085208D00287FF464AF6D
:1013500084F83D7084F83E5084F83C50CBE702207E
:10136000C9E70000020010000000FFFF04000100B8
:10137000500000202DE9FF4F83B09A46DDE9119718
:1013800093460446DDF84080FFF7FCFD054694F8DF
:101390003D0020287FD11923012240492046009595
:1013A00001F0FCF8002876D194F83C00012872D0B6
:1013B000012084F83C0020680168C90703D1016856
:1013C00041F0010101602068016821F400610160C1
:1013D000212084F83D00402084F83E000026266449
:1013E000C4F82480A4F82A90608D20852C48E062FF
:1013F000CDE9007553465A462046049901F04EF84F
:1014000070B930E02A463946204601F0A5F958B1B6
:10141000206C042804D12068016841F40071016047
:10142000012007B0BDE8F08F606A2168007808618C
:10143000606A401C6062218D491E89B22185628DDF
:10144000521E628522685369DB435B070BD469B186
:1014500000781061606A401C6062208D401E20850B
:10146000608D401E6085208D0028CBD12A463946EC
:10147000204601F067F80028CAD154F83D0B0168F6
:1014800041F400710160202004F81E09E6776677B8
:101490000020C6E7FFE70220C3E7000002001000BB
:1014A0000000FFFF10B586B000210091019102916C
:1014B000039100680F4988421AD10F4CA06940F08F
:1014C0000800A061A069694600F008000490C020EF
:1014D000009012200190032003900848FFF754FC6D
:1014E000E06940F40010E061E06900F4001004904D
:1014F00006B010BD0054004000100240000C014036
:1015000002488168027811448160704744000020DD
:10151000074810B5016841F010010160032000F098
:10152000A7F80F2000F006F800F050F8002010BDDA
:101530000020024030B505461F4887B0C16941F020
:101540000201C161C06906A900F00200009001A873
:1015500000F036F90498B0B100F052F94000174994
:10156000174AB0FBF1F11748491E0260416040F292
:10157000E7320021C0E903218160816100F04CFB6A
:10158000040003D015E000F03BF9E8E70D4800F057
:101590008DFB04000DD11D2000F03CF8102D07D26A
:1015A000002229461D2000F043F80748056000E0AE
:1015B000012407B0204630BD0010024040420F0019
:1015C0000004004008030020480000200F4808B530
:1015D000816941F001018161816901F0010100919E
:1015E000C16941F08051C161C069002200F08050A2
:1015F00000900F21901E00F01BF80548416821F073
:10160000E06141F00071416008BD0000001002403F
:1016100000000140002809DB00F01F020121914079
:101620004009800000F1E020C0F800117047000080
:10163000F0B40E4B1B680C46C3F30223C3F107053D
:10164000042D00D90425191D072901D2002300E02B
:10165000DB1E012606FA05F1491E214099409E40F5
:10166000761E16403143F0BC01F0ABBD0CED00E03E
:10167000064900F0070208684FF6FF03184040EAE9
:101680000220034A10430860704700000CED00E0A0
:101690000000FA052DE9F0470F46050061D0434EE2
:1016A000306800F00700B84209D2306820F0070027
:1016B00038433060306800F00700B84251D12868E4
:1016C0003B4C810712D5400703D5606840F4E060C9
:1016D00060602878000703D5606840F4605060605F
:1016E0006068A96820F0F000084360602878C007AF
:1016F00028D06868012810D02168022810D08907F6
:1017000000292EDA616821F0030101436160FFF7CF
:1017100039FC804641F288390DE021688903EFE702
:101720008901EDE7FFF72EFCA0EB0801494502D93E
:101730000320BDE8F0876068696800F00C00B0EB3A
:10174000810FEFD1306800F00700B8420BD9306844
:1017500020F0070038433060306800F00700B842DE
:1017600001D00120E5E72878400705D56068E968E1
:1017700020F4E060084360602878000706D56068C0
:10178000296920F4605040EAC100606000F058F818
:101790006168084AC1F30311515CC84006490860FA
:1017A00006480068FFF7C6FE0020C2E7002002409E
:1017B00000100240BA6500085000002048000020D8
:1017C0000F2202600C4A536803F00303436053681E
:1017D00003F0F0038360536803F4E063C36052686E
:1017E0004FF4E06303EAD20202610448006800F0AB
:1017F000070008607047000000100240002002400F
:101800000448054900684968044AC1F30221515C53
:10181000C84070475000002000100240CA65000810
:101820000448054900684968044AC1F3C221515C73
:10183000C84070475000002000100240CA650008F0
:101840000E4A51680E4801F00C03042B11D0082BEE
:101850000FD10C48C1F38343C903C05C0AD551685A
:10186000084AC1F34041921E515C054A5043B0FB07
:10187000F1F07047044948437047000000100240EF
:1018800000127A00AA65000800093D002DE9F84F12
:10189000040070D02078C04DC00749D06868C0F3FC
:1018A0008100012807D06868C0F38100022809D1AF
:1018B0006868C00306D52868800339D560680028A9
:1018C000E7D035E06068B0F5803F0BD010B1B0F5DF
:1018D000A02F11D0286820F480302860286820F4D8
:1018E000802002E0286840F480302860606890B171
:1018F000FFF748FB06460AE0286840F4802028608D
:10190000F0E700BFFFF73EFB801B642873D8286810
:101910008003F7D50CE0FFF735FB064605E000BF76
:10192000FFF730FB801B6428F0D828688003F7D4C9
:1019300020789A4E80074FF001094FF0000839D502
:10194000686810F00C0F07D06868C0F381000228A7
:1019500009D16868C00306D42868800714D52069B7
:10196000012808D110E02069B0B1C6F80090FFF757
:1019700009FB074605E00AE1FFF704FBC01B02284C
:10198000C4D828688007F7D52868616920F0F80076
:1019900040EAC10028600DE0C6F80080FFF7F2FAC7
:1019A000074604E0FFF7EEFAC01B022823D8286898
:1019B0008007F7D4207800072CD57948A169D9B1E0
:1019C000C0F80090FFF7DEFA074604E0FFF7DAFA06
:1019D000C01B02280FD8686A8007F7D571484FF4FA
:1019E000FA510068B0FBF1F0009000BF0098411E72
:1019F0000091FAD20EE080E0C0F80080FFF7C2FA52
:101A0000074604E0FFF7BEFAC01B022875D8686AD3
:101A10008007F7D42078400760D5E8690027C00028
:101A200008D4E86940F08050E861E869012700F0D7
:101A3000805000905C480168C90513D40168834652
:101A400041F480710160FFF79DFA824606E000BF15
:101A5000FFF798FAA0EB0A0064284ED8DBF80000E4
:101A6000C005F5D5E06801280AD008B1052813D0D3
:101A7000286A20F001002862286A20F0040002E0B1
:101A8000286A40F001002862E06841F2883B98B182
:101A9000FFF778FA82460BE0286A40F004002862DB
:101AA000EEE700BFFFF76EFAA0EB0A0159455AD8DE
:101AB000286A8007F6D50CE0FFF764FA824605E055
:101AC000FFF760FAA0EB0A0159454CD8286A800755
:101AD000F6D41FB1E86920F08050E861E06988B36E
:101AE0006968C1F38101022944D00228C6F86080E8
:101AF00004D0FFF747FA044638E034E0FFF742FA33
:101B0000074604E0FFF73EFAC01B02282BD82868DE
:101B10008001F7D4206AB0F5803F05D16868A168DC
:101B200020F4003008436860D4E90801084369687C
:101B300021F4741108436860C6F86090FFF722FA38
:101B4000044606E025E000BFFFF71CFA001B022850
:101B500009D828688001F7D51BE000BFFFF712FA0B
:101B6000001B022802D90320BDE8F88F28688001F5
:101B7000F4D40EE00128F7D06868226A00F48031BE
:101B8000914204D1616A00F47010884201D00120B2
:101B9000EAE70020E8E700000010024000004242AF
:101BA000800442425000002000700040704770479F
:101BB00070B590F83C20012A26D0012480F83C40E2
:101BC000022280F83D2003685A689D6822F0700662
:101BD0000A6832435A600D4B02689A4208D0B2F14B
:101BE000804F05D00A4B9A4202D00A4B9A4204D148
:101BF000496825F080031943916080F83D40002139
:101C000080F83C10084670BD022070BD002C0140D9
:101C1000000400400008004010B5040003D094F810
:101C20003D0010B107E0012010BD002084F83C0009
:101C3000204600F01FF8022084F83D00211D206896
:101C400001F02AF9012084F8460084F83E0084F867
:101C50003F0084F8400084F8410084F8420084F892
:101C6000430084F8440084F8450084F83D000020D7
:101C700010BD000008B50068B0F1804F12D10A48CD
:101C8000C16941F00101C161C069002200F0010099
:101C9000009005211C20FFF7CBFCBDE808401C206C
:101CA000FFF7B8BC08BD00000010024090F83D10DE
:101CB000012901D001207047022180F83D10016800
:101CC000CA6842F00102CA6000680B49884208D025
:101CD000B0F1804F05D00949884202D008498842B6
:101CE00004D1816801F00701062903D0016841F0A1
:101CF0000101016000207047002C014000040040F9
:101D00000008004070B5044690F83C00002501280A
:101D100017D0012684F83C60022084F83D0020683A
:101D2000826822F0770222F47F428260086850289D
:101D300038D00DDC20284FD005DC90B3102811D10D
:101D40004AE0022070BD302846D040280AD13BE04E
:101D500060282FD070280DD0B0F5805F03D0B0F58B
:101D6000005F12D0012584F83D60002084F83C001B
:101D7000284670BDCB68D1E90121206801F0C8F880
:101D80002068816841F0770109E0CB68D1E9012141
:101D9000206801F0BDF82068816841F480418160CD
:101DA000E1E719E0CA684968206801F0C3F85021EA
:101DB000206806E0CA684968206801F0CCF8602114
:101DC000206801F0AFF8CEE7CA684968206801F0E2
:101DD000B1F840212068F4E7226801461046F0E798
:101DE00070472DE9F04104460068C66805694FF068
:101DF0000007A90713D5B10711D5F91E016101200C
:101E00002077206880698007204602D0FFF7E8FF2E
:101E100004E000F07EF8204600F07CF827776807A1
:101E200016D5700714D521686FF0040008610220F0
:101E300020772068806910F4407F204602D0FFF7A9
:101E4000CFFF04E000F065F8204600F063F8277744
:101E5000280715D5300713D521686FF008000861F1
:101E6000042020772068C0698007204602D0FFF751
:101E7000B7FF04E000F04DF8204600F04BF827775C
:101E8000E80616D5F00614D521686FF01000086139
:101E9000082020772068C06910F4407F204602D0D7
:101EA000FFF79EFF04E000F034F8204600F032F81F
:101EB0002777E80708D0F00706D021686FF0010007
:101EC0000861204600F028F8280608D5300606D517
:101ED00021686FF0800008612046FFF767FE680602
:101EE00008D5700606D521686FF0400008612046CD
:101EF00000F01CF8A8060AD5B00608D521686FF0D6
:101F0000200008612046BDE8F041FFF750BEBDE863
:101F1000F08170477047000000680349884201D192
:101F2000FFF7EEBA704700000004004070477047AA
:101F300070470000F8B5016804460868CA684B6934
:101F400010F00F0F4FF0000559D003F0010602F416
:101F50009077374365D0C10705D0D10503D5616CB3
:101F600041F001016164410705D5D90703D0616CD7
:101F700041F002016164810705D5D90703D0616C86
:101F800041F004016164010707D502F020013143EB
:101F900003D0616C41F008016164616C00293AD0A2
:101FA000800604D5900602D5204601F015F8206879
:101FB0004069616CC0F38010090700D460B320460B
:101FC00000F0E3FF20684069400621D52068143006
:101FD00050E8001F21F0400140E80012002AF5D12E
:101FE000E06BA8B16D494163E06BFEF761FE00282C
:101FF00011D0E06B416B01B0BDE8F04008478306AB
:102000000FD593060DD52046BDE8F84000F0E4BF9B
:102010002046FFF78DFFF8BD2046FFF789FF656476
:10202000F8BD266B2023012E7CD1C6067AD5D606B4
:1020300078D508684868009048694FF00206400665
:1020400040D5E16B086840680004000CE8D0A28D20
:102050008242E5D9E085886920282DD020680C309F
:1020600050E8001F21F4807140E80012002AF5D1E9
:102070002068143050E8001F21F0010140E80012F0
:10208000002AF5D12068143050E8001F21F04001EB
:1020900040E80012002AF5D184F842302563206818
:1020A0000C3050E8001F21F0100140E80012002A17
:1020B000F5D1E06BFEF7D8FD6663A08DE18D401A87
:1020C00081B22AE0A08DE18D401A81B2E08D002816
:1020D000A6D00029A4D022680C3252E8000F20F4C8
:1020E000907042E80007002FF5D12068143050E8C6
:1020F000002F22F0010240E80027002FF5D184F8DC
:102100004230256320680C3050E8002F22F0100286
:1021100040E80023002BF5D166632046FFF707FF58
:10212000F8BDFFE705062BD5150629D594F8410023
:102130002128F5D1A068B0F5805F01D12069B0B148
:10214000206A411C2162216800784860E08C401EB2
:102150000004000CE084E3D12068C16821F0800114
:10216000C1602068C16841F04001C160D8E7206AC1
:102170000088C0F308004860206A801C2062E5E700
:102180004006CDD55006CBD5CA68204622F0400285
:10219000CA6084F8413000F0E9F8C1E77B2F0008FD
:1021A00070B5040004D094F84100002510B106E099
:1021B000012070BD84F84050204600F023F8242010
:1021C00084F841002068C16821F40051C1602046B4
:1021D00000F064FF2068016921F4904101612068EA
:1021E000416921F02A0141612068C16841F4005130
:1021F000C1606564202084F8410084F84200656372
:10220000002070BD30B585B0002400940194029484
:1022100003940068184988422CD11848C16941F4D8
:102220000031C161C16901F400310491816941F05B
:10223000040181618069124D00F0040004900420C3
:102240000090022001900320039069462846FEF783
:102250009BFD0820CDE90004012002906946284634
:10226000FEF792FD002205212620FFF7E1F9262046
:10227000FFF7D0F905B030BD004400400010024027
:102280000008014090F84230202B01D00220704716
:1022900021B11AB10023036300F05CBF0120704735
:1022A0002DE9F04100682C49884253D12B4D2C4A2E
:1022B0002846697800780A290FD00D290DD03128D9
:1022C00002D21154401C2870BDE8F0412349244833
:1022D0000122491CF830FFF7D5BF0026C0B31654C1
:1022E00020A11F48FDF7FBFF04461FA11C48FDF776
:1022F000F6FF074664B35FB32C212046FDF7E5FFE8
:1023000030B3B84224D20670A01CFDF7D1FF04B24E
:10231000B81CFDF7CDFF07B26FF06300642C01DD40
:10232000642402E0844200DA0446642F01DD64275D
:1023300002E0874200DA07464FF0FF31286A01F0D9
:102340004BFA0648801C04804780286A01F06DFA29
:102350002E70B9E7BDE8F081004400400000002085
:1023600070010020583A0000593A00007047FEE71B
:1023700001684A69D24352050FD46FF480624A6102
:10238000002140F8301F202242738173026942F01D
:1023900004020261017301207047002070470000B1
:1023A0002DE9F84F0446006889460B9D0168984660
:1023B000174641F4806101602068016841F4807132
:1023C000016000954FF0011B0022594620460A9BF0
:1023D00000F0E4F84FF4007A40B120680068C005CE
:1023E00001D5C4F840A00320BDE8F88F216809F0AA
:1023F000FE0008612B46284920460A9A00F016F98B
:10240000F0BB20684169806900902A4620460A99FD
:1024100000F0A2F940B1206C04283AD1206801688C
:1024200041F40071016034E0FEB2B8F1010F09D04F
:102430002168380A08612A4620460A9900F08CF97A
:102440000028E8D1206806612A4620460A9900F053
:1024500083F90028DFD12068016841F480710160B0
:1024600000950022594620460A9B00F097F8002864
:10247000B3D1216809F0FF0040F00100086100E0DD
:1024800007E02B46044920460A9A00F0CFF80028BE
:10249000AAD00120A8E70000020001002DE9F843BE
:1024A000044600680D46DDE908970168984616461F
:1024B00041F4807101604B4600224FF0011120462B
:1024C000009700F06BF848B120680068C00502D59D
:1024D0004FF4007020640320BDE8F883216805F004
:1024E000FE0008613B464A461549204600F09EF82A
:1024F00088B920684169806900903A46494620467B
:1025000000F02AF948B1206C042804D12068016841
:1025100041F4007101600120DEE7F5B2B8F1010F6E
:1025200009D02168300A08613A464946204600F041
:1025300013F90028E7D1206805610020CCE70000EE
:102540000200010070B516460D4604461EE0204606
:10255000FFF70EFF08B1012070BD681C16D0FEF712
:1025600011FD801BA84200D885B920684069C0438E
:1025700040070BD5002044F8300F20216173A07371
:10258000216941F0200121612073E4E7206840695E
:10259000C0434007DBD4002070BD00002DE9F047A8
:1025A000984617460D460446C1F30746DDF82090CD
:1025B0002AE000BFB8F1FF3F26D0FEF7E3FCA0EB16
:1025C0000901414502D8B8F1000F1DD12068012E44
:1025D00016D0806925EA00000004000C12D000200B
:1025E000B84211D1002044F8300F20216173A0734C
:1025F000216941F02001216120730120BDE8F087AD
:102600004069E7E70120EBE72068012E0AD08069E6
:1026100025EA00000004000C06D00020B842C9D012
:102620000020EBE74069F3E70120F7E72DE9F047E9
:10263000984616460D4604464FF000094FF0200A12
:10264000C1F3074723E020684069C043400515D423
:102650002068016841F40071016021686FF48060B6
:102660004861C4F8309084F83DA084F83E90216C15
:1026700041F00401216484F83C9021E0701C06D0F4
:10268000FEF780FCA0EB0800B04203D816B1012F82
:102690001FD021E02068012F15D0806925EA0000B5
:1026A0000004000C18D000BF44F8309F84F80DA03F
:1026B00084F80E90216941F02001216184F80C908A
:1026C0000120BDE8F087406925EA00000004000C05
:1026D000EAD12068406901E02068806925EA0000AD
:1026E0000004000CAFD1ECE72DE9F0410025904645
:1026F0000E460446202728E04069C043C0060CD49B
:1027000054F8301B6FF01000486144F81059677797
:10271000A577206A2062257714E0FEF733FCA0EB52
:102720000800B04200D886B920684069C04340061E
:102730000BD544F8305F6773A573206940F0200023
:10274000206125730120BDE8F08120684169C943FB
:102750004906D1D40020F6E770B516460D4604466A
:102760001EE02046FFF704FE08B1012070BD681C82
:1027700016D0FEF707FC801BA84200D885B9206858
:102780004069C04300060BD5002044F8300F2021DB
:102790006173A073216941F0200121612073E4E796
:1027A00020684069C0430006DBD4002070BD2DE9DD
:1027B000FF5F96B024AD044695E88301D4E9082371
:1027C0000893069203F0ACFA3A46434603F082F8C7
:1027D000D4E9062302F0C8FD07911290D4E910A3B2
:1027E000524638464146099303F074F8CDE900019A
:1027F000D4E90C939B464A4603F092FAD4E90E239F
:10280000CDE90B3203F08CFAD4E9002302F0ACFDE1
:102810003A46434603F05EF8D4E90A2302F0A4FDE9
:1028200005460E46DDE900014A465B4603F086F99F
:102830008B460490DDE90001DDE90B3203F07EF9FF
:102840000D910090D4E902013A46434603F042F864
:102850005246099B02F088FDCDE90E01D4E904231C
:102860002846314602F080FD80468A4602460B46E5
:102870002846314602F034FE81460F464246534612
:102880000D99009802F02CFE80468A46DDE9180179
:10289000079B129A03F044FA0B914A463B4610906C
:1028A00003F018F8079B129A02F05EFDC4E90601D6
:1028B00007911290404651460B9B109A03F00AF87C
:1028C000089B069A02F050FDC4E90801049806909E
:1028D0002A4633464846394602F0FCFF2A4633462C
:1028E00003F02CF9C4E90A015B4648463946069ACA
:1028F00002F0F0FF5B46049A03F020F9C4E90C01F2
:102900002A4633464046514602F0E4FF0D9B009AAA
:1029100003F014F9C4E90E015B4640465146069A9D
:1029200002F0D8FFDDE90E2303F008F9C4E9100135
:10293000079912981AB0BDE8F09F2DE9F04186B0D2
:102940008046012504A8CDE9000564242B467522A4
:10295000D02102944046FEF7DFFB9DF81000682866
:1029600003D0012006B0BDE8F081002703AE8DF84A
:102970000C700096CDE9015401236B22D021404612
:10298000FEF7F8FC07208DF80C000096CDE9015405
:1029900001231922D0214046FEF7ECFC8DF80C7083
:1029A0000096CDE9015401231C22D0214046FEF7B8
:1029B000E1FC8DF80C700096CDE9015401231B2237
:1029C000D0214046FEF7D6FC0020CBE72DE9F04FA2
:1029D00089B00C4664230E2204A98DE80E00012361
:1029E0003B22D021FEF798FBBDF8100040BA00B2A0
:1029F0002080BDF8121049BA09B261808946BDF83D
:102A0000141049BA09B2A1808846BDF8161049BA17
:102A10000FFA81FABDF8181049BA0FB22784BDF831
:102A20001A1049BA0EB26684BDF81C1049BA0DB22C
:102A3000A58402F0E9FE6FF00D0B5A4603F025FD68
:102A4000C4E90201484602F0DFFE5A4603F01DFDCC
:102A5000C4E90401404602F0D7FE0022614B02F0B7
:102A60003FFDC4E90601504603F084FB5E4903F0D4
:102A7000A3FA5E4903F03EFA2064384602F0C4FE31
:102A80005B4F00223B4602F02BFDC4E90A013046B1
:102A900002F0BAFE00223B4602F022FDC4E90C011E
:102AA000284602F0B1FE00223B4602F019FDC4E9BF
:102AB0000E01FEF767FA4F4D2968401A02F0BBFE7F
:102AC00000224D4B02F00CFD81468A46FEF75AFA71
:102AD0002860B4F90010B4F90400494300FB001069
:102AE00002F092FE01F05EFB002205460E46134600
:102AF00002F04EFE10D0B4F9020002F085FE2A4624
:102B0000334602F0EDFC00F0CFFB3C4A3C4B02F0B8
:102B1000E1FE0746884601E00027B846B4F9040004
:102B200002F072FE0646B4F900000D46404202F083
:102B30006BFE32462B4600F0C7FC304A304B02F0A9
:102B4000C9FEDFF8C0B005460E4600225B4602F023
:102B500085FE06D2D4E9140100222B4B02F0B8FF07
:102B60000DD30022284B2846314602F0B1FF0DD28A
:102B7000D4E9140100225B4602F070FE06D21D4823
:102B80005030C0E90656C4E914560DE0CDE9029A6A
:102B9000D4E90C01CDE9000116482A4633465030ED
:102BA000FFF705FEC4E91401D4E9140121F0004146
:102BB0000022154B02F08CFF03D2E16A81F0004144
:102BC000E162CDE9029AD4E90C01CDE9000109489E
:102BD0003A4643460830FFF7EAFDC4E9120109B05E
:102BE000BDE8F08F0029CC400000AA43B81E124275
:102BF000006060405800002000408F40F8C1631A18
:102C0000DCA54C40008056C00080564030B51748C7
:102C10008BB01549016009210024C0E901144FF46B
:102C2000A021C0E9034144610476012545768576FB
:102C3000C47604774477FDF71CFF08B172B6FEE74F
:102C40001220CDE9044044F220200895CDE900048B
:102C5000CDE902042820099069460448CDE90645DB
:102C6000FDF790FE0BB030BD00640040A4010020D1
:102C700070B586B00024284800940194029403940F
:102C8000816941F010018161816901F010010491B5
:102C9000816941F020018161816901F02001049185
:102CA000816941F004018161816901F004010491AD
:102CB000816941F0080181618069184E00F00800C7
:102CC0004FF400550490002229463046FEF754F98F
:102CD00001200095CDE901040220039069463046A9
:102CE000FEF752F8002211460620FEF7A1FC06204E
:102CF000FEF790FC002211460720FEF799FC072002
:102D0000FEF788FC002211460820FEF791FC0820FF
:102D1000FEF780FC06B070BD0010024000100140BC
:102D200010B586B0002417480094019402940394CF
:102D300004944FF080410594016041F61F41C0E9C1
:102D4000011440F2E731C0E903148461FEF764FF27
:102D500008B172B6FEE74FF480500090694609480A
:102D6000FEF7D0FF08B172B6FEE7049404A9054847
:102D70000594FEF71DFF002801D072B6FEE706B0ED
:102D800010BD000020020020FEE7FEE74FF47A7439
:102D9000204600F0E5FCFBE7012000F0E1FCFBE74A
:102DA0000A4D0B4C0949A1F1E400FFF70FFED5E9EC
:102DB000120102F0A7FAA060D5E9140102F0A2FA0C
:102DC000E060052000F0CCFCECE70000B002002041
:102DD000000000200A4C4FF0FF37E6683946206AB1
:102DE00000F0FAFCD4F80250206A00F01EFD2A140C
:102DF00029B23046FDF77CFC052000F0B1FCECE781
:102E00000000002010B54FF0E020006902F072F8D9
:102E1000012803D0BDE8104001F0A0BC10BD30B5C2
:102E20008FB028216846FDF7B9FA14210AA8FDF7EA
:102E3000B5FA01210804CDE900100024029402250E
:102E40000491CDE907504FF4E01009906846FEF771
:102E50001DFD08B172B6FEE70F20CDE90A054FF45B
:102E60008060CDE90C4002210AA80E94FEF712FC06
:102E7000002801D072B6FEE70FB030BD70470000E9
:102E80000148FEF7AEBF0000200200200148FEF717
:102E9000A8BF000008030020F0B50268194B1A4CC7
:102EA0001A4D4FF08047984205D0B84203D0A04257
:102EB00001D0A84203D122F070064A6832439842FA
:102EC00005D0B84203D0A04201D0A84203D122F4D9
:102ED0004074CA6822434C6922F080022243026097
:102EE0008A68C2620A688262984201D109690163F4
:102EF000012141610169C90703D0016921F0010184
:102F00000161F0BD002C01400004004000080040B9
:102F100010B5846842EA032224F47F440A43224322
:102F2000826010BD826822F070020A4342F00701FD
:102F30008160704710B5036A046A24F001040462DA
:102F4000846924F0F00444EA021423F00A020A43DC
:102F50008461026210BD10B5036A046A24F0100493
:102F60000462846923F0A00324F4704444EA02322A
:102F700043EA01118261016210BD10B5406A00216F
:102F8000C185C184FEF7D4FF10BD01680C3151E842
:102F9000002F22F4907241E80023002BF5D1016844
:102FA000143151E8002F22F0010241E80023002BE8
:102FB000F5D1016B012909D101680C3151E8002FCD
:102FC00022F0100241E80023002BF5D1202180F8E7
:102FD000421000210163704708B590F84210222981
:102FE00001D0022008BD82684FF480539A4201D17B
:102FF000016921B1816A9A421BD04AB10AE0026894
:10300000816A5268C2F308020A80816A891C08E05A
:10301000026972B10268526802F07F020A70816A26
:10302000491C8162C18D491E0904090CC18503D068
:103030001BE002685268F1E70168CA6822F02002CA
:10304000CA600168CA6822F48072CA6001684A696D
:1030500022F001024A61202180F8421000214163E0
:10306000026B012A03D0FFF71BF9002008BD0163A2
:1030700001680C3151E8002F22F0100241E80023D2
:10308000002BF5D101680A68D20602D50A684968A2
:103090000091818DFEF74BFFE7E7000070B5044615
:1030A00000680169E26821F440511143016121691E
:1030B000A0680843616908432168CA6841F20C634B
:1030C0009A430243CA6020684169A26921F44071B1
:1030D000114341611E492068884202D1FEF7A0FBDE
:1030E00001E0FEF78DFB00EBC00101EB0012606810
:1030F00064218000B2FBF0F3B3FBF1F36FF018062C
:103100007343B2FBF0F5B2FBF0F605EB8305322317
:1031100003EB0515B5FBF1F5B6FBF1F605F0F0058F
:1031200005EB0615B2FBF0F6B2FBF0F0B0FBF1F0E8
:103130006FF01802504306EB800003EB0010B0FB69
:10314000F1F0216800F00F002844886070BD000095
:103150000038014081628285C285002141642221BC
:1031600080F84210016921B10168CA6842F4807296
:10317000CA6001684A6942F001024A610068C16898
:1031800041F02001C1600020704700000148FEF7B7
:10319000D1BE000068020020FEE7490050EAC120CD
:1031A00018BF04204A0D18BF40F0010040F2FF7222
:1031B000B2EB515F08BF40F00200012808BF0520B4
:1031C00070470907090E002804DB00F1E02080F8B1
:1031D0000014704700F00F0000F1E02080F8141D8B
:1031E00070472DE9F0414F1E00EBC7010446D1E9BD
:1031F000000115461E4637F006020DD02A4633461A
:1032000002F068FB7F1E04EBC703D3E9002302F042
:10321000ABF837F00602F1D1022F25D0042F13D0DE
:10322000062F18BFBDE8F0812A46334602F052FB54
:10323000D4E90A2302F098F82A46334602F04AFB02
:10324000D4E9082302F090F82A46334602F042FB04
:10325000D4E9062302F088F82A46334602F03AFB06
:10326000D4E9042302F080F82A46334602F032FB08
:10327000D4E9022302F078F82A46334602F02AFB0A
:10328000D4E90023BDE8F04102F06EB8012203F05A
:10329000FCB802F069B80000024A0020110703F0F0
:1032A000F4B8000001FDFFFF2DE9F84F04460D467C
:1032B00021F0004000917349814211DC724988423B
:1032C00001DC06D12CB120462946BDE8F84FFFF7B6
:1032D000DDBF6E48002DCCBF6D496E49BDE8F88F4B
:1032E0006D49814211DD6D498142D8BF4FF0FF36F3
:1032F0006DDD20462946FFF750FF042808BFFFF781
:10330000CBFF20462946BDE8F88F6549654F25F07B
:103310000045814233DD6449814219DD0026324691
:103320004FF080432046294602F01EF880468A4628
:1033300001222046294603F0A8F800223B4602F06D
:10334000EFFC4246534602F0CBF804460D463EE001
:1033500001260022BA463B462046294602F004F8E0
:1033600080460F46002253462046294602F0D8FCEC
:1033700042463B4602F0B4F804460D4627E04B496E
:1033800081421BDDDFF828A1022600225346204699
:10339000294602F09FFA00223B4601F0E5FF8046F5
:1033A0000F46002253462046294602F0B9FC424609
:1033B0003B4602F095F804460D4608E003262246F7
:1033C0002B4600203B4902F08BF804460D4622466E
:1033D0002B461046194602F07DFA8B46824602467D
:1033E0000B4602F077FA07460246334888460B46FA
:1033F00006217844FFF7F5FE52465B4602F06AFA72
:1034000082462E488B463A46434605217844FFF7CC
:10341000E8FE3A46434602F05DFA02460B46002EAD
:10342000504659460CDA01F09FFF22462B4602F027
:1034300051FA01B022462B46BDE8F04F02F07EBBA8
:1034400001F092FF22462B4602F044FA1C4A7A44CD
:1034500002EBC603D3E9002302F062FC22462B46AE
:1034600002F05EFC174A7A4402EBC603D3E900235C
:1034700002F064FB009A002AB8BF81F00041BDE869
:10348000F88F0000000010440000F07F182D445415
:10349000FB21F93FFB21F9BF0000DC3F0000203E8B
:1034A0000000F33F0000F03F0000E63F00800340D3
:1034B0000000F83F0000F0BF4A3200000832000070
:1034C000A63100006E3100002DE9F04D9446CCF19C
:1034D000000423F000464CEA0404524F46EAD47438
:1034E0009A46884621F00042BC4206D8454240EA4E
:1034F000050442EAD474BC4204D9BDE8F04D6246EA
:10350000FFF7C7BEAAF14055A5F17F6555EA0C0447
:103510000BD0022404EAAA74434DDFF810E144EA18
:10352000D87452EA000B04D00CE0BDE8F04DFFF770
:10353000BBBE002C14BF012CBDE8F08D022C30D096
:10354000032C32D056EA0C0B0AD0BE4220D1BA422C
:1035500009D126F0804622F080423346114617E01A
:1035600000291ADB25E0DFF8C8B0FB44002C04BFBB
:10357000DBE90001BDE8F08D012C02BFDBE90001B1
:1035800081F00041BDE8F08D022C0AD0032C0CD054
:10359000BA4212D1B8F1000F0BDA23482549BDE831
:1035A000F08D28462449BDE8F08D28467146BDE8D7
:1035B000F08D1D482149BDE8F08D921B12153C2A63
:1035C000C4BF19481D490EDCBAF1000FBEBF12F18D
:1035D0003C0F0020014606DB624601F081FF21F02E
:1035E0000041FFF761FE002C08BFBDE8F08D012C03
:1035F00004BF81F00041BDE8F08D114A114B022C4F
:1036000007D002F08DFB2A46BDE8F04D0A4B02F0D0
:1036100087BB02F085FB2A46BDE8F04D064B02F061
:103620008DBA00000000F07F182D4454FB2109C022
:1036300002310000FB21F9BFFB210940FB21F93FCA
:10364000075C143326A6A13CFDF762FFFFF7E7FBFA
:10365000FFF70EFB39483849002401603849C0E9BA
:1036600001144FF48041C0E9034144618461C461A5
:103670000462FDF78DFC08B172B6FEE72F483149B0
:103680009C3001604FF4E131C0E901140C21C460A9
:10369000C0E904418461C461FEF782FD08B172B6DD
:1036A000FEE7FFF7B3FAFFF73BFB2448FFF745F9C6
:1036B0006420FDF749FB21485430FEF7F7FA1F4913
:1036C0001E48E431FFF782F91C4801221E499C3054
:1036D000FEF7D8FD19482838FDF79AFA08B172B6F6
:1036E000FEE7164802212838FDF7DCF808B172B66B
:1036F000FEE700F043F8154A0021154800F0B6F83F
:10370000114C124A641E243220610021114800F03D
:10371000ADF80E4A6061483200210F4800F0A6F86B
:103720000A4AA0616C3200210C4800F09FF8E06169
:1037300000F036F8FEE7000000540040CC01002005
:10374000801A0600004400400100002018650008AF
:103750008D2D0008992D0008A12D0008D52D0008F9
:1037600010B5EFF3058111B16FF0050403E00024FB
:1037700008B100F071FE204610BD0000EFF3058097
:1037800010B16FF0050070470448016811B14FF0A7
:10379000FF30704701210160002070474001002088
:1037A00010B5EFF3058010B16FF0050010BD0848AB
:1037B0000168012902D04FF0FF3010BD054A0021F9
:1037C00082F8141D0221016000F0F6FE002010BDF9
:1037D000400100200BE000E02DE9F0410D460146DC
:1037E00021F0010001F001014FF00004EFF3058228
:1037F0000AB1A41F16E048B100296FF001066FF06E
:103800000207294608D001F0BDFA07E06FF0030473
:1038100008E035B1344605E001F0F8F90128F8D1A7
:1038200000E03C462046BDE8F08170B5014621F03D
:10383000010001F001014FF00004EFF305820AB12D
:10384000A41F11E028B16FF0020529B101F023F99E
:1038500007E06FF0030407E000231A46194601F061
:103860000BF8012800D02C46204670BD2DE9FF4101
:103870004FEA01034FF00005EFF30581039549BBC3
:1038800040B38027182100244AB3166806B1344695
:1038900096691EB13146761E382E02D21679F60789
:1038A00003D0002004B0BDE8F081566906B1B70826
:1038B000D2F808C0BCF1000F0DD0D5685C2D18D32C
:1038C00012693AB136B18DE806103A46214601F048
:1038D000E0FA03900DE0D6685EB912694AB903AA0E
:1038E000CDE90012BAB2214601F0A6FA012800D0B3
:1038F00003950398D6E700002DE9F041134C0F46DD
:103900000546E6682068001D00F072FC681C07D1BF
:1039100037B12168BDE8F0410D48091D00F0B8BC81
:1039200020683544B5424560216805D2A06BBDE8EA
:10393000F041091D00F094BC606B091D00F090FC83
:10394000A06A854200D2A562BDE8F081F0000020A7
:10395000400800202DE9F041054600F0A5FC2D4C63
:10396000A068401CA06020682B4F10B1606930B384
:103970002BE02560A068012827D1002606EB8600F1
:1039800007EB800000F05EFC761C382EF6D323484F
:1039900000F058FC2148143000F054FC1F48283037
:1039A00000F050FC1D483C3000F04CFC1B485030EF
:1039B00000F048FC194860631430A06305E02068FB
:1039C000E96AC06A884200D82560606A401C60626B
:1039D0006864E86A2169884200D9206100EB8000B0
:1039E00007EB8000291D00F053FC00F07DFC6069AE
:1039F00000280CD02068E96AC06A884207D20849CA
:103A00004FF080500860BFF34F8FBFF36F8FBDE85A
:103A1000F0810000F000002090030020F00700205B
:103A200004ED00E038B500F03FFC104C2068C8B948
:103A30000F4800F007FC0E48143000F003FC0C485F
:103A4000E060143020610A4B0020F03B009003F14D
:103A5000500210210A2000F097FE206010B105A14D
:103A600000F0C4FCBDE8384000F03EBC2C01002052
:103A700044090020546D72510000000030B4026C03
:103A80000B46002A0BD0C1681144C1608468A14272
:103A900001D30168C16030BC1846FCF732BC30BCB1
:103AA00070472DE9F041856B174604460026026CED
:103AB00082B1C7B1E068FCF724FCE168206C091A08
:103AC000E1602268914202D2A168081AE060022FE8
:103AD00016D017E02068A8B9A06801F083FA06465E
:103AE0000020A0600EE06068FCF70BFC216C6068B1
:103AF00008446060A168884204D32068606001E0E7
:103B000005B16D1E6D1CA5633046BDE8F08110B592
:103B1000044690F8590058B101280CD002280FD063
:103B2000502080F31188BFF34F8FBFF36F8FFEE7F4
:103B3000206B00F0EDFB2046BDE8104000F0E8BB34
:103B400010BD000010484FF44061420706D0C01D70
:103B50000D4920F00700411AC1F540610B4A0023CE
:103B60000144C2E900030839183A21F00701116045
:103B70004B600B600B1AC0E9001393604FF00040DC
:103B80005360506170470000241000205C01002049
:103B9000144E154CA6F29C474FF08058DFF84C901D
:103BA00012E000BF00F080FBF068C568281D00F03F
:103BB0001FFBA068401EA0606068401E606000F0AF
:103BC00093FB2846FFF7A3FF60680028EAD1386816
:103BD0000128F9D9C9F80080BFF34F8FBFF36F8F69
:103BE000F2E700002C080020F000002004ED00E0C7
:103BF00070B51D46049C51B1C4F80020C4E90F0102
:103C00000121204600F0F4FD84F84C5070BD246082
:103C1000F4E700002DE9F05F8846DDE90B941546D6
:103C2000834691009A460A9EA522206BFCF7AEFBC4
:103C30006FF00301206B01EB8501084420F00707BA
:103C4000780707D0502080F31188BFF34F8FBFF360
:103C50006F8FFEE70025B8F1000F0FD05FF0000076
:103C6000221818F8001082F8341018F8001011B15A
:103C7000401C1028F4D384F8435001E084F83450F9
:103C8000382E00D33726E662C4E91365201D00F004
:103C9000E4FA04F1180000F0E0FA2461C6F13800FB
:103CA0006462A061656584F85850524659463846AA
:103CB00000F066FA2060B9F1000F01D0C9F80040A9
:103CC000BDE8F09F30B5114900E011460A68824214
:103CD000FBD34B685C18844203D1406818444860A9
:103CE000084643681C18944209D1084C183C2468C3
:103CF000A24209D052681A4442600A6812680260FF
:103D0000814200D0086030BD0460F9E75C0100200A
:103D100070B5002441600B4D0061914206D8D11A64
:103D20008269914206D2011D286907E09A4203D2B6
:103D3000994201D3012403E0011DE86800F090FAE4
:103D4000204670BD2C01002010B5044600F0ACFAEE
:103D5000A06B28B15FF0000400F0C6FA204610BD49
:103D60000124F9E730B589B03C4D6EE00498002895
:103D700006DADDE90601059A90470498002864DB1D
:103D8000069C606910B1201D00F032FA03A800F013
:103D9000D7F8024604980A2857D2DFE800F0050554
:103DA000052D334A05052D3394F8280040F0010015
:103DB00084F828000599A069059B01442046FFF777
:103DC000A7FF68B3216A2046884794F82800400777
:103DD0003BD5002000900598A169002342181946A0
:103DE000204601F045FAD8B9502080F31188BFF37E
:103DF0004F8FBFF36F8FFEE714F8280F20F00100FC
:103E0000207022E094F8280040F0010084F8280097
:103E10000598A06128B1811813462046FFF778FF66
:103E200013E0502080F31188BFF34F8FBFF36F8FE3
:103E3000FEE794F82800810703D4204600F068FAD2
:103E400003E020F0010084F82800002204A928687B
:103E500000F040FE002889D109B030BD2C010020BF
:103E60002DE9FC410F46054600F0EAFB01A800F0F1
:103E700067F80446019818B101F068F9BDE8FC81C3
:103E8000254EAFB130690068D0B30027291B3A46F0
:103E9000306800F0BFFA01F059F90028EED11F494F
:103EA0004FF080500860BFF34F8FBFF36F8FE5E78F
:103EB000A542EBD801F04AF9F0682746C068C4680B
:103EC000201D00F095F994F82800410719D5A06944
:103ED0002B4641193A462046FFF71AFFA8B10020A9
:103EE0000346014600902A46204601F0C1F960B918
:103EF000502080F31188BFF34F8FBFF36F8FFEE721
:103F000007E020F0010084F82800216A2046884755
:103F1000B4E70127BAE700002C01002004ED00E01F
:103F20000648416B096829B1416BC968C96849688D
:103F3000816270474FF0FF31FAE70000F000002087
:103F400070B5054600F0E4FF064E0446B0688442B2
:103F500003D200F009F8012000E00020286020468C
:103F6000B46070BD2C010020F8B5194D20E0C06888
:103F7000C4680668201D00F03BF9216A2046884786
:103F800094F82800400713D5A0693044B04206D900
:103F900024616060211DE86800F062F908E00020FB
:103FA0000346014600903246204601F061F938B1DF
:103FB000E86801680029DAD12969C5E90310F8BD6C
:103FC000502080F31188BFF34F8FBFF36F8FFEE750
:103FD0002C01002008484068401C4FF0500080F33E
:103FE000118804D0BFF34F8FBFF36F8FFEE7BFF38D
:103FF0004F8FBFF36F8FFEE764010020074CE0682E
:10400000016841B1C0680021D0F80000FFF728FF27
:10401000FFF7A8FEF3E701210020F7E72C010020BD
:104020002DE9F041044600F03FF994F9455004F1C0
:10403000240609E0606A48B1304601F04FF808B143
:1040400000F038FA6D1E6DB2002DF3DC4FF0FF3634
:1040500084F8456000F048F900F026F994F94450DE
:1040600004F1100709E0206948B1384601F036F83C
:1040700008B100F01FFA6D1E6DB2002DF3DC84F85C
:104080004460BDE8F04100F02FB900002DE9F04197
:104090000546002700F0D4FA324E306808B9FFF721
:1040A00051FD706905424ED1C5B3083568070ED081
:1040B00005F00700C0F108000544680707D050204C
:1040C00080F31188BFF34F8FBFF36F8FFEE72DB3DF
:1040D0007068854237D82348183001460C6801E0E3
:1040E00020460C466168A94202D221680029F7D116
:1040F00031688C4227D00768216801606068083702
:10410000411B10290FD96019420708D0502080F3B5
:104110001188BFF34F8FBFF36F8FFEE713E041604D
:104120006560FFF7CFFD61687068401A7060B26823
:10413000904200D2B060706901430020C4E90001E0
:10414000F068401CF06001F001F8780707D05020BB
:1041500080F31188BFF34F8FBFF36F8FFEE73846B0
:10416000BDE8F081440100200449086818B10868DE
:10417000026D521C0265086870470000F0000020C4
:1041800010B5031F4FF080741C601B1F21F001014C
:104190001960191F024B0B60143940380A6010BDBA
:1041A000D53F00082DE9F04106460F4601F0D2FC4C
:1041B000041E0D4618BF0120284320F00040C0F126
:1041C0007F6000F1E040C00F0ED0301C18BF01200E
:1041D000384320F00040C0F17F6000F1E040C00FA4
:1041E00004BF0120FCF70DF920462946BDE8F08107
:1041F000D0E9013201699A60D0E901235A604A6826
:10420000824201D182684A60002202610868401E31
:104210000860086870470000034B036003F15C000E
:1042200008608020106070476C090020044B036018
:1042300003F15C0008604FF480701060704700006C
:10424000C80B002000F108014FF0FF32C0E9011255
:10425000C160016100210160704700210161704768
:1042600030B50B685A1C02D000F1080202E0026966
:1042700004E02246546825689D42FAD953684B6091
:1042800099608A60516008610168491C016030BD15
:1042900042684A6093688B609368596091600861D6
:1042A0000168491C01607047502080F31188BFF3FA
:1042B0004F8FBFF36F8F0A494868401C4860012840
:1042C0000CD10848006810F0FF0F07D0502080F391
:1042D0001188BFF34F8FBFF36F8FFEE77047000069
:1042E0006401002004ED00E00849486828B1401E40
:1042F000486001D180F311887047502080F3118805
:10430000BFF34F8FBFF36F8FFEE700006401002003
:1043100070B500282AD0164DA0F1080460686969BC
:10432000084207D1502080F31188BFF34F8FBFF3AD
:104330006F8FFEE722683AB1502080F31188BFF3F7
:104340004F8FBFF36F8FFEE78843606000F078F90E
:1043500060686968084468602046FFF7B3FC286914
:10436000401C2861BDE8704000F0F0BE70BD000048
:10437000440100204FF0E0200021016181610549E6
:104380004FF47A720968B1FBF2F1491E41610721CD
:10439000016170475000002010B5FBF765FF11491F
:1043A00010280ED300F1E02090F8F0030A78904234
:1043B00007D2502080F31188BFF34F8FBFF36F8F68
:1043C000FEE709480068896800F4E060884207D980
:1043D000502080F31188BFF34F8FBFF36F8FFEE73C
:1043E00010BD0000640100200CED00E010B5084B8A
:1043F000002200BF53F832401CB1521C082AF9D3E6
:1044000010BD43F8321003EBC201486010BD00003C
:104410005003002070B515460E460446FFF744FFD2
:1044200094F944100020491C01D184F8440094F907
:104430004510491C01D184F84500FFF755FFA06BDA
:1044400028B92A46314604F1240000F051F82046EC
:10445000BDE87040FFF7E4BD10B5020014D00F486E
:10446000006B38B1502080F31188BFF34F8FBFF33A
:104470006F8FFEE700F0E4F800211046FFF73CFAEA
:1044800000F064FE002807D105494FF08050086015
:10449000BFF34F8FBFF36F8F10BD0000F0000020FF
:1044A00004ED00E002490A6A0260C9684160704791
:1044B000F000002001490120C8617047F000002091
:1044C00010B50C4650B1094909681831FFF7C8FE0C
:1044D0002046BDE810400121FFF70EBA502080F3BE
:1044E0001188BFF34F8FBFF36F8FFEE7F0000020FE
:1044F00070B514460D4668B10A4909681831FFF7CE
:10450000C7FE0CB14FF0FF3521462846BDE870408C
:10451000FFF7F2B9502080F31188BFF34F8FBFF33C
:104520006F8FFEE7F000002070B504003ED0226DD2
:10453000A2B1E06C884200D30146E06A884235D0DF
:10454000012A33D11A4D2A6894420FD1502080F3AA
:104550001188BFF34F8FBFF36F8FFEE7502080F3BA
:104560001188BFF34F8FBFF36F8FFEE7E162A2693F
:10457000002A02DBC1F13801A1610E4E00EB800080
:10458000616906EB8000814210D1201DFFF730FEEB
:10459000E06A2969884200D9286100EB800006EBB7
:1045A0008000211DBDE87040FFF772BE70BD0000A5
:1045B000F00000209003002030B587B00024039461
:1045C00005AA04A903A80494FFF726FEDDE9030168
:1045D0000094CDE90110002315A11748059A00F0B9
:1045E00058FC164D0028E8621FD000F011FE01288B
:1045F00009D0401C19D1502080F31188BFF34F8F90
:10460000BFF36F8FFEE7502080F31188BFF34F8F09
:10461000BFF36F8F4FF0FF30A86201206861EC603C
:1046200007B0BDE8304000F045B807B030BD00002D
:1046300049444C4500000000913B0008F000002078
:104640000248016B491C016370470000F000002024
:10465000164810B5016B11B10121C16110BD0021D7
:10466000C1610169124A01E0B9B1491E01EB810340
:1046700052F82330002BF7D001EB810302EB8302C9
:1046800002F1080453685B685360A34201D15B6880
:104690005360DA680260016110BD502080F3118818
:1046A000BFF34F8FBFF36F8FFEE70000F0000020D5
:1046B000900300201CB5264908780190FF2008705F
:1046C00008788DF800009DF800009DF8002000F0AB
:1046D000F000904207D0502080F31188BFF34F8F35
:1046E000BFF36F8FFEE79DF800001A4C00F05000FA
:1046F00020700720A06005E09DF8002052008DF892
:104700000020401E9DF800201206F5D4A06003286A
:1047100007D0502080F31188BFF34F8FBFF36F8F06
:10472000FEE74FF44070A060019808700A480168E5
:1047300041F470010160016841F070410160FFF7D0
:1047400019FE00206060FBF759FD00201CBD000031
:1047500000E400E06401002020ED00E010B55020EE
:1047600080F31188BFF34F8FBFF36F8F00F0D6FB3C
:1047700018B104494FF080500860002080F3118880
:1047800010BD000004ED00E038B5049D18B153B130
:10479000CAB181B120E0502080F31188BFF34F8F60
:1047A000BFF36F8FFEE7502080F31188BFF34F8F68
:1047B000BFF36F8FFEE7502080F31188BFF34F8F58
:1047C000BFF36F8FFEE739B1502080F31188BFF33C
:1047D0004F8FBFF36F8FFEE750241C46012384F8F0
:1047E00046302B460094FFF703FA204638BD000000
:1047F00070B50D46040025D0FFF756FDD4E90F2013
:10480000216802FB0011A1600021A16321686160A1
:104810000A46D4E90F01401E00FB0121E160214658
:104820004FF0FF3001F8440F487004F110008DB1D3
:10483000FFF708FD04F12400FFF704FDFFF754FD26
:10484000012070BD502080F31188BFF34F8FBFF35C
:104850006F8FFEE721690029F0D000F03FFC0028AF
:10486000ECD004494FF080500860BFF34F8FBFF386
:104870006F8FE3E704ED00E02DE9FF4782B01D46AE
:104880008A464FF00008040003D0BAF1000F08D0A8
:1048900011E0502080F31188BFF34F8FBFF36F8F6B
:1048A000FEE7206C38B1502080F31188BFF34F8FA2
:1048B000BFF36F8FFEE7022D0AD1E06B012807D00E
:1048C000502080F31188BFF34F8FBFF36F8FFEE747
:1048D00000F010FB3F4F4FF000094FF0805648B9F1
:1048E000049838B1502080F31188BFF34F8FBFF385
:1048F0006F8FFEE7FFF7D8FCA06BE16B884207D310
:10490000022D05D00498D0B1B8F1000F1AD01EE0E6
:104910002A4651462046FFF7C4F8616A19B104F1EE
:10492000240000F0DBFB20B13E60BFF34F8FBFF3EC
:104930006F8FFFF7D9FC012006B0BDE8F087FFF7C5
:10494000D3FC22E06846FFF7ADFD4FF00108FFF70A
:10495000CBFCFFF775FEFFF7A7FC94F94400401C61
:1049600001D184F8449094F94500401C01D184F8A9
:104970004590FFF7B9FC04A9684600F023FA30B16E
:104980002046FFF74DFB00F0E1FB0020D4E7FFF7E6
:104990008BFCA06BE16B884213D1FFF7A5FC04F1FF
:1049A00010000499FFF78CFD2046FFF739FB00F05B
:1049B000CDFB00289ED13E60BFF34F8FBFF36F8FBA
:1049C00098E7FFF791FC2046FFF72AFB00F0BEFBBB
:1049D00090E7000004ED00E02DE9F0471F46904607
:1049E0008946040003D0B9F1000F08D011E050202F
:1049F00080F31188BFF34F8FBFF36F8FFEE7206CFA
:104A000038B1502080F31188BFF34F8FBFF36F8F01
:104A1000FEE7022F0AD1E06B012807D0502080F377
:104A20001188BFF34F8FBFF36F8FFEE7FFF7B4FC22
:104A30005020EFF3118680F31188BFF34F8FBFF33F
:104A40006F8FA06BE16B884206D3022F04D0002049
:104A500086F31188BDE8F08794F94550A06B3A467B
:104A600049462046FFF71DF8681C04D06D1C84F8E9
:104A700045500120ECE7606A0028FAD004F12400D8
:104A800000F02CFB0028F4D0B8F1000FF1D0012188
:104A9000C8F80010EDE710B5040009D000F024FAC2
:104AA000A168884214D1E068401EE06008D00DE0A3
:104AB000502080F31188BFF34F8FBFF36F8FFEE755
:104AC00000231A4619462046FFF7D6FE012010BDE6
:104AD000002010BD2DE9F747002683B08A46040068
:104AE00003D0BAF1000F08D011E0502080F31188F4
:104AF000BFF34F8FBFF36F8FFEE7206C38B15020AC
:104B000080F31188BFF34F8FBFF36F8FFEE700F084
:104B1000F1F9DFF8F4804FF000094FF0805748B901
:104B2000059838B1502080F31188BFF34F8FBFF341
:104B30006F8FFEE7FFF7B8FBA56BC5B15146204666
:104B4000FEF79CFF6D1EA563206950B104F11000B3
:104B500000F0C4FA28B1C8F80070BFF34F8FBFF35C
:104B60006F8FFFF7C1FB012006B0BDE8F087059805
:104B700008B11EB106E0FFF7B7FB27E06846FFF774
:104B800091FC0126FFF7B0FBFFF75AFDFFF78CFB06
:104B900094F94400401C01D184F8449094F94500F4
:104BA000401C01D184F84590FFF79EFB05A968469B
:104BB00000F008F9002820460AD0FFF731FA00F08B
:104BC000C5FA2046FFF7C0F80028B3D00020CBE795
:104BD000FFF7BAF890B104F124000599FFF770FCD3
:104BE0002046FFF71DFA00F0B1FA0028A2D1C8F85C
:104BF0000070BFF34F8FBFF36F8F9BE72046FFF727
:104C00000FFA00F0A3FA95E704ED00E02DE9F34375
:104C1000002683B00400354609D0206C78B15020BE
:104C200080F31188BFF34F8FBFF36F8FFEE75020E3
:104C300080F31188BFF34F8FBFF36F8FFEE700F053
:104C400059F9DFF83C814FF000094FF0805748B91F
:104C5000049838B1502080F31188BFF34F8FBFF311
:104C60006F8FFEE7FFF720FBA06BC8B1401EA0636B
:104C7000206810B9FFF778FAA060206950B104F1FC
:104C8000100000F02BFA28B1C8F80070BFF34F8F66
:104C9000BFF36F8FFFF728FB012005B0BDE8F0835D
:104CA000049808B166B10FE03DB1502080F311883F
:104CB000BFF34F8FBFF36F8FFEE7FFF715FB5DE08C
:104CC0006846FFF7EFFB0126FFF70EFBFFF7B8FC86
:104CD000FFF7EAFA94F94400401C01D184F84490AB
:104CE00094F94500401C01D184F84590FFF7FCFA87
:104CF00004A9684600F066F80028204612D0FFF7A5
:104D00008FF900F023FA2046FFF71EF80028A9D0FB
:104D10009DB3FFF7C9FA606A50B3206B0068C0F119
:104D2000380126E0FFF710F8E0B1206838B9FFF746
:104D3000BBFAA06800F096F90546FFF7D5FA04F132
:104D400024000499FFF7BCFB2046FFF769F900F047
:104D5000FDF9002886D1C8F80070BFF34F8FBFF36C
:104D60006F8F7FE72046FFF75BF900F0EFF979E7F7
:104D70000021A068FFF7D8FB9FE7FFE700208CE742
:104D800004ED00E070B50D46040009D000F0ACF869
:104D9000A16888420CD1E068401CE060012070BD31
:104DA000502080F31188BFF34F8FBFF36F8FFEE762
:104DB00029462046FFF72AFF0028F0D0E168491C69
:104DC000E16070BD2DE9F0410C46050011D0C4B181
:104DD000FFF76AFA174BDA686E682068911B471C68
:104DE00017D02F681B6A9F4219D0964217D801240A
:104DF00010E0502080F31188BFF34F8FBFF36F8F07
:104E0000FEE7502080F31188BFF34F8FBFF36F8F01
:104E1000FEE70024FFF768FA2046BDE8F0818842EB
:104E200005D9401A20602846FFF73CFBF1E7002037
:104E30002060DCE7F00000202DE9FF5F8346DDE91C
:104E40000E87994616468A469000FFF71FF905001F
:104E50001CD05C20FFF71AF9040014D00020256351
:104E600084F85900CDE90240CDE900874B4632462F
:104E700051465846FEF7CEFE2046FEF76BFD012058
:104E800004B0BDE8F09F2846FFF742FA4FF0FF302C
:104E9000F6E7F0B585B0DDE90B640A9DA6B1DCB19B
:104EA0005C2700972663022684F85960002604AF29
:104EB000CDE90246CDE90057FEF7ACFE2046FEF7ED
:104EC00049FD049805B0F0BD502080F31188BFF370
:104ED0004F8FBFF36F8FFEE7502080F31188BFF331
:104EE0004F8FBFF36F8FFEE70148006870470000E7
:104EF000F00000200548416919B1006B18B100208D
:104F0000704701207047022070470000F000002029
:104F10000148C06870470000F00000202DE9F04112
:104F20002E4C0027206B28B1A069401CA061384698
:104F3000BDE8F081E668761CE66013D1606B00681E
:104F400038B1502080F31188BFF34F8FBFF36F8FBC
:104F5000FEE7606BA16B6163A063206A401C206266
:104F6000FEF7DEFFA06ADFF87880864209D3606B27
:104F70000068A0B1606BC068C5686868864211D2DD
:104F8000A0622068C06A00EB800158F82100012867
:104F900000D90127E0690028C9D00127C7E74FF0F1
:104FA000FF30EDE7281DFFF723F9A86A18B105F1D6
:104FB0001800FFF71DF9E86A2169884200D92061CD
:104FC00000EB800108EB8100291DFFF761F9E86A19
:104FD0002168C96A8842CAD30127C8E7F0000020C7
:104FE0009003002070B504004FF0000133D01B4D3A
:104FF0002868844207D0502080F31188BFF34F8F78
:10500000BFF36F8FFEE7206D38B1401E2065E36C63
:10501000E26A9A421FD040B11DE0502080F311880F
:10502000BFF34F8FBFF36F8FFEE7201DFFF7E0F850
:10503000E06CE062C0F13800A061E06A2969884252
:1050400000D92861064900EB800001EB8000211D9A
:10505000FFF71EF90121084670BD0000F000002096
:105060009003002070B504004FF000002BD0194DC4
:10507000E16A2A68D26A914226D2A069002804DB3C
:105080002868C06AC0F13800A061134E01EB8101AD
:10509000606906EB8101884211D1201DFFF7A8F855
:1050A0002868C06AE0622969884200D9286100EB5B
:1050B000800006EB8000211DFFF7EAF802E0286877
:1050C000C06AE062012070BDE16C2A68D26A914238
:1050D000F8D370BDF00000209003002070B5C068C8
:1050E000C46854B104F118000646FFF781F8144D66
:1050F000286B50B13146134815E0502080F31188D9
:10510000BFF34F8FBFF36F8FFEE7201DFFF770F8DF
:10511000E06A2969884200D928610B4900EB8000C8
:1051200001EB8000211DFFF7B3F8E06A2968C96A26
:10513000884202D90120E86170BD002070BD0000E6
:10514000F000002018080020900300202DE9F0470F
:105150002C4D00242746286B38B1FFF7A5F8286BA3
:10516000401E2863286B40B146E0502080F3118830
:10517000BFF34F8FBFF36F8FFEE7A968224E012068
:10518000D1B3A6F5916980463068E0B1F068C46893
:1051900004F11800FFF72CF8201DFFF729F8E06A4A
:1051A0002969884200D9286100EB800109EB810060
:1051B000211DFFF76DF8E06A2968C96A8842E3D3C8
:1051C000C5F81C80E0E70CB1FEF7AAFEAC694CB153
:1051D0004FEA0806FFF7A2FE00B1EE61641EF9D1A6
:1051E0000020A861E86938B108490127380708603C
:1051F000BFF34F8FBFF36F8FFFF776F83846BDE8E8
:10520000F0870000F00000201808002004ED00E006
:1052100010B586B0FEF706FC114C2068B8B100202E
:105220000390049005AA04A903A8FEF7FFFFDDE997
:10523000032102208DE8070000230AA10B48059AEC
:10524000FFF727FE606010B106B0012010BD5020AE
:1052500080F31188BFF34F8FBFF36F8FFEE700001D
:105260002C010020546D722053766300FD3F00082E
:105270002DE9FF411E46134602000A9D4FF0000033
:1052800016D0144C2768002F0FD0CDE900130292DE
:10529000062917DAFFF72EFE02284FF000030FD081
:1052A000002269462068FFF7E7FA04B0BDE8F08104
:1052B000502080F31188BFF34F8FBFF36F8FFEE74D
:1052C0002A46EEE70023324669463846FFF784FB5C
:1052D000EBE700002C01002010B500290AD0087867
:1052E000002807D005487844FBF7BAF9002801D018
:1052F000002010BD0248784410BD0000DE130000FD
:10530000D613000021F00042A2F16052B2F5801FD6
:1053100001F0004328BFD2F17F6C0BD95FEA001C7B
:1053200043EAC20242EB507018BF704728BF20F01A
:1053300001007047B2F5801FBCBF184670474FEAA6
:10534000410C1CF5001F02D2084600F0F2BF70B5F8
:1053500000F06AFB00000089FFF7F6BF4FF0004045
:10536000A0F580007047000010B591EA030F48BF18
:1053700083F0004300F1DC84841A71EB030C05D246
:10538000121943EB0C03001B61EB0C01DFF824E165
:105390004FEA1154A4EB135C1EEA430F18BF9EEAB8
:1053A000445F73D023EA0E03DCF1200E21EA04519E
:1053B00043F4801332D322FA0CFE10EB0E0023FAD2
:1053C0000CFE41EB0E01CCF1200E03FA0EFE10EBA9
:1053D0000E0051F10001B1F5801FCCF1200E32D248
:1053E00001EB045112FA0EF2BDE8104058BF7047AD
:1053F000401C38BF5FEA420218BF7047002814BF44
:1054000020F0010041F100014FEA410313F5001FB4
:1054100038BF7047A1F1C04100F054BB012A43EBF3
:105420000302ACF1200CDCF11F0E32BF4FF0000E76
:1054300023FA0CF310EB030041EB0451B4EB115FC2
:10544000D0D0A1EB045101F5801149085FEA30008A
:1054500001EB04510ED350F1000038BF12FA0EFEDA
:1054600008D1BDE81040C9E7401C38BF5FEA4202DE
:10547000CAD1C3E7BDE810404FEA410313F5001F4E
:1054800038BF7047A1F1C04100F01CBB9EEA445FE9
:1054900008D011EA5E0FBDE8104004BF01F00041E2
:1054A00000207047BDE8104070B500F0BDFA00BFA5
:1054B00064FBBE3E0000E0FF02494FF0000000F038
:1054C000B2BF00BF0000F87F491058BFC1F1404192
:1054D0005B1058BFC3F140438B42EFF3008070472D
:1054E0002DE9C04130B4DFF8A0C23CEA111418BF66
:1054F0003CEA131400F0EC8081EA03051CEA111465
:1055000044EAD57418BF1CEA131500F0C780A4EB59
:1055100005044FF0004545EAC12145EAC32341EAAD
:10552000505143EA525304F17F74994204F5003418
:105530004FEAC0204FEAC22208BF904200F09C8090
:105540004FEA13650FF24016765D4FEA134506FBEE
:1055500005F7C7F1807706FB07F74FEAD737A7FBB8
:1055600003687642C8F58038A7FB06CE38BFA8F19D
:10557000010807FB08E64FF0000EA6FB028CE6FBD5
:1055800003CEDCF1000CCEF1004E38BFAEF1010EBF
:10559000A6FB0C584FF000074FF00005E6FB0E8706
:1055A000A1FB08C6A0FB07CE16EB0E0645F10005D1
:1055B000E1FB076515F1E04E7EBFA4F580345FEA9C
:1055C00046066D4116F1800745F100054FEA1727A1
:1055D0004FEA066647EA0567A6F1DE46B6F1805F48
:1055E0004FEA15251FD9384624F0010C05EBC4718C
:1055F000BCF1FE6F01EB0C1102D8F0BCBDE80081DC
:1056000024425CBF01F5801E9EEAC47F02D4F0BC38
:10561000BDE80081244238D4F0BCA1F1C041BDE80E
:10562000004100F04FBA4FEAD22242EA43524FEA19
:10563000D323A7FB02864FEAD02040EA415007FB64
:1056400003661EEA0E0F4FEAD12105FB026658BF22
:10565000A6EB0056B6EB00564FEA520E4EEAC37E5A
:1056600018EB0E0E56EB530EBDD518EB02085E413B
:105670007F1C55F10005B6E74FF480154FF0000789
:105680004FF000064FF00008ADE7F0BC4FF000000F
:1056900001F1C04101F00041BDE8008111EA0C1F99
:1056A0000CEA131500D00CE013EA0C1F00F0258063
:1056B0004FF00000F0BC81EA030101F00041BDE8B9
:1056C0000081F0BCBDE8004181EA030100F0FAB9B5
:1056D000F0BCBDE8004170B500F0A6F9097EFC3EC3
:1056E00000F007B881EA03014FF0000001F000412B
:1056F000704781EA030100F0E5B9F0BCBDE8004164
:105700004FF0000021497047FFFDFBF9F7F5F4F277
:10571000F0EEEDEBE9E8E6E4E3E1E0DEDDDBDAD84C
:10572000D7D5D4D3D1D0CFCDCCCBCAC8C7C6C5C4AA
:10573000C2C1C0BFBEBDBCBBBAB9B8B7B6B5B4B3C1
:10574000B2B1B0AFAEADACABAAA9A8A8A7A6A5A4AC
:10575000A3A3A2A1A09F9F9E9D9C9C9B9A99999870
:105760009797969595949393929191908F8F8E8E13
:105770008D8C8C8B8B8A89898888878786858584A0
:1057800084838382828181800000FF070000F87F8C
:1057900051EA030C17D41CF5801F58BFBCF5801FBD
:1057A00000F10680994218BF704708BF90427047C9
:1057B00007D711F5801F58BF13F5801F19D49942E0
:1057C0007047894270471CF5801F08D5BCF5801FC3
:1057D000F7D58B4218BF704708BF824270474FF41D
:1057E000001C1CEB410F38BF1CEB430F01D28B4256
:1057F000704770B500F018F9922449004FF000513D
:105800004FF08053FFF760BE10F0004248BF4042A7
:10581000B0FA80F310FA03F10AD0C3F11D0303F5C7
:1058200080634FEA415002EB035202EBD1217047F3
:105830004FF000007047B0FA80F310FA03F10AD07D
:10584000C3F11D0303F580634FEA41504FEA035251
:1058500002EBD12170474FF00000704751EA030C72
:1058600017D41CF5801F58BFBCF5801F00F10680BF
:10587000994218BF704708BF9042704707D711F58B
:10588000801F58BF13F5801F19D499427047894271
:1058900070471CF5801F08D5BCF5801FF7D58B42DB
:1058A00018BF704708BF824270474FF4001C1CEBC2
:1058B000410F38BF1CEB430F01D28B42704770B5CC
:1058C00000F0B2F8922449004FF000514FF080539D
:1058D000FFF7FABDDFF848C170B51CEA111E1EBF04
:1058E0001CEA13159EEA0C0F95EA0C0F00F06F806E
:1058F00081EA030423EA4C134EEAD47E21EA4C11D8
:1059000041F4801143F48013AE44A1FB024CA0FB90
:105910000365AEF17F7E361955EB0C05A1FB034CF8
:105920004CF10003A0FB021C16EB0C06654153F181
:105930000003094218BF46F0010613F4007F0BD1A3
:105940004FEA03314FEA0530340341EA155140EA8A
:1059500016506FF003020AE04FEAC3214FEAC52058
:10596000F40241EA555140EA56506FF0020202EB50
:105970002E4201EB025585EACE710AD05FEA440C53
:1059800018BF24F0004450F1000041F1000120EA6A
:10599000D47040F2FE7C624500D270BDA84214BFB4
:1059A0004FF080444FF04044002E08BF0024BEF169
:1059B000806FA8BFA1F1C041BDE8704080F2828035
:1059C0004FF0000001F1C04101F0004170479EEA34
:1059D0000C0F0CEA131518BF95EA0C0F06D04FF008
:1059E000000081EA030E0EF0004170BD00F01CF8CB
:1059F0008900013E00F007B800F009B84FEA430CF7
:105A00005FEA5C5C08D081EA030100F05BB84FEA12
:105A1000410C5FEA5C5CF6D14FF000000149704731
:105A20000000FF070000F87F0EF1020E2EF0030EBB
:105A30005EF8046B364205D4012A43EB030515F5E5
:105A4000001F12D8012841EB010C1CF5001F0CD8D7
:105A50000ED14FEAD17C15F5001F0CEB4C0C0CF16C
:105A6000020C08BF4CEBD37C04E04FF0080C01E0C3
:105A70004FEAD37C0CEB4C0526FA05F606F0070638
:105A8000B6F1040C06D20EEB860CBDE870404CF06B
:105A9000010C6047DFE80CF0090B02024FF00041F7
:105AA0004FF00000A1F5002170BD194610460128F5
:105AB00051EB010418BFD4F5001484BF002001F09D
:105AC000004170BD0808A0F500114FEA3101704790
:105AD00053EA010C17D41CF5801F58BFBCF5801F7A
